{
    "address": "0xccb146728f6D94Fe22D1030E7FA369bd33916824",
    "abi": [
        {
            "inputs": [
                {
                    "internalType": "contract IERC20",
                    "name": "wethToken_",
                    "type": "address"
                }
            ],
            "stateMutability": "nonpayable",
            "type": "constructor"
        },
        {
            "anonymous": false,
            "inputs": [
                {
                    "indexed": true,
                    "internalType": "address",
                    "name": "masterContract",
                    "type": "address"
                },
                {
                    "indexed": false,
                    "internalType": "bytes",
                    "name": "data",
                    "type": "bytes"
                },
                {
                    "indexed": true,
                    "internalType": "address",
                    "name": "cloneAddress",
                    "type": "address"
                }
            ],
            "name": "LogDeploy",
            "type": "event"
        },
        {
            "anonymous": false,
            "inputs": [
                {
                    "indexed": true,
                    "internalType": "contract IERC20",
                    "name": "token",
                    "type": "address"
                },
                {
                    "indexed": true,
                    "internalType": "address",
                    "name": "from",
                    "type": "address"
                },
                {
                    "indexed": true,
                    "internalType": "address",
                    "name": "to",
                    "type": "address"
                },
                {
                    "indexed": false,
                    "internalType": "uint256",
                    "name": "amount",
                    "type": "uint256"
                },
                {
                    "indexed": false,
                    "internalType": "uint256",
                    "name": "share",
                    "type": "uint256"
                }
            ],
            "name": "LogDeposit",
            "type": "event"
        },
        {
            "anonymous": false,
            "inputs": [
                {
                    "indexed": true,
                    "internalType": "address",
                    "name": "borrower",
                    "type": "address"
                },
                {
                    "indexed": true,
                    "internalType": "contract IERC20",
                    "name": "token",
                    "type": "address"
                },
                {
                    "indexed": false,
                    "internalType": "uint256",
                    "name": "amount",
                    "type": "uint256"
                },
                {
                    "indexed": false,
                    "internalType": "uint256",
                    "name": "feeAmount",
                    "type": "uint256"
                },
                {
                    "indexed": true,
                    "internalType": "address",
                    "name": "receiver",
                    "type": "address"
                }
            ],
            "name": "LogFlashLoan",
            "type": "event"
        },
        {
            "anonymous": false,
            "inputs": [
                {
                    "indexed": true,
                    "internalType": "address",
                    "name": "protocol",
                    "type": "address"
                }
            ],
            "name": "LogRegisterProtocol",
            "type": "event"
        },
        {
            "anonymous": false,
            "inputs": [
                {
                    "indexed": true,
                    "internalType": "address",
                    "name": "masterContract",
                    "type": "address"
                },
                {
                    "indexed": true,
                    "internalType": "address",
                    "name": "user",
                    "type": "address"
                },
                {
                    "indexed": false,
                    "internalType": "bool",
                    "name": "approved",
                    "type": "bool"
                }
            ],
            "name": "LogSetMasterContractApproval",
            "type": "event"
        },
        {
            "anonymous": false,
            "inputs": [
                {
                    "indexed": true,
                    "internalType": "contract IERC20",
                    "name": "token",
                    "type": "address"
                },
                {
                    "indexed": false,
                    "internalType": "uint256",
                    "name": "amount",
                    "type": "uint256"
                }
            ],
            "name": "LogStrategyDivest",
            "type": "event"
        },
        {
            "anonymous": false,
            "inputs": [
                {
                    "indexed": true,
                    "internalType": "contract IERC20",
                    "name": "token",
                    "type": "address"
                },
                {
                    "indexed": false,
                    "internalType": "uint256",
                    "name": "amount",
                    "type": "uint256"
                }
            ],
            "name": "LogStrategyInvest",
            "type": "event"
        },
        {
            "anonymous": false,
            "inputs": [
                {
                    "indexed": true,
                    "internalType": "contract IERC20",
                    "name": "token",
                    "type": "address"
                },
                {
                    "indexed": false,
                    "internalType": "uint256",
                    "name": "amount",
                    "type": "uint256"
                }
            ],
            "name": "LogStrategyLoss",
            "type": "event"
        },
        {
            "anonymous": false,
            "inputs": [
                {
                    "indexed": true,
                    "internalType": "contract IERC20",
                    "name": "token",
                    "type": "address"
                },
                {
                    "indexed": false,
                    "internalType": "uint256",
                    "name": "amount",
                    "type": "uint256"
                }
            ],
            "name": "LogStrategyProfit",
            "type": "event"
        },
        {
            "anonymous": false,
            "inputs": [
                {
                    "indexed": true,
                    "internalType": "contract IERC20",
                    "name": "token",
                    "type": "address"
                },
                {
                    "indexed": true,
                    "internalType": "contract IStrategy",
                    "name": "strategy",
                    "type": "address"
                }
            ],
            "name": "LogStrategyQueued",
            "type": "event"
        },
        {
            "anonymous": false,
            "inputs": [
                {
                    "indexed": true,
                    "internalType": "contract IERC20",
                    "name": "token",
                    "type": "address"
                },
                {
                    "indexed": true,
                    "internalType": "contract IStrategy",
                    "name": "strategy",
                    "type": "address"
                }
            ],
            "name": "LogStrategySet",
            "type": "event"
        },
        {
            "anonymous": false,
            "inputs": [
                {
                    "indexed": true,
                    "internalType": "contract IERC20",
                    "name": "token",
                    "type": "address"
                },
                {
                    "indexed": false,
                    "internalType": "uint256",
                    "name": "targetPercentage",
                    "type": "uint256"
                }
            ],
            "name": "LogStrategyTargetPercentage",
            "type": "event"
        },
        {
            "anonymous": false,
            "inputs": [
                {
                    "indexed": true,
                    "internalType": "contract IERC20",
                    "name": "token",
                    "type": "address"
                },
                {
                    "indexed": true,
                    "internalType": "address",
                    "name": "from",
                    "type": "address"
                },
                {
                    "indexed": true,
                    "internalType": "address",
                    "name": "to",
                    "type": "address"
                },
                {
                    "indexed": false,
                    "internalType": "uint256",
                    "name": "share",
                    "type": "uint256"
                }
            ],
            "name": "LogTransfer",
            "type": "event"
        },
        {
            "anonymous": false,
            "inputs": [
                {
                    "indexed": true,
                    "internalType": "address",
                    "name": "masterContract",
                    "type": "address"
                },
                {
                    "indexed": false,
                    "internalType": "bool",
                    "name": "approved",
                    "type": "bool"
                }
            ],
            "name": "LogWhiteListMasterContract",
            "type": "event"
        },
        {
            "anonymous": false,
            "inputs": [
                {
                    "indexed": true,
                    "internalType": "contract IERC20",
                    "name": "token",
                    "type": "address"
                },
                {
                    "indexed": true,
                    "internalType": "address",
                    "name": "from",
                    "type": "address"
                },
                {
                    "indexed": true,
                    "internalType": "address",
                    "name": "to",
                    "type": "address"
                },
                {
                    "indexed": false,
                    "internalType": "uint256",
                    "name": "amount",
                    "type": "uint256"
                },
                {
                    "indexed": false,
                    "internalType": "uint256",
                    "name": "share",
                    "type": "uint256"
                }
            ],
            "name": "LogWithdraw",
            "type": "event"
        },
        {
            "anonymous": false,
            "inputs": [
                {
                    "indexed": true,
                    "internalType": "address",
                    "name": "previousOwner",
                    "type": "address"
                },
                {
                    "indexed": true,
                    "internalType": "address",
                    "name": "newOwner",
                    "type": "address"
                }
            ],
            "name": "OwnershipTransferred",
            "type": "event"
        },
        {
            "inputs": [
                {
                    "internalType": "contract IERC20",
                    "name": "",
                    "type": "address"
                },
                {
                    "internalType": "address",
                    "name": "",
                    "type": "address"
                }
            ],
            "name": "balanceOf",
            "outputs": [
                {
                    "internalType": "uint256",
                    "name": "",
                    "type": "uint256"
                }
            ],
            "stateMutability": "view",
            "type": "function"
        },
        {
            "inputs": [
                {
                    "internalType": "bytes[]",
                    "name": "calls",
                    "type": "bytes[]"
                },
                {
                    "internalType": "bool",
                    "name": "revertOnFail",
                    "type": "bool"
                }
            ],
            "name": "batch",
            "outputs": [
                {
                    "internalType": "bool[]",
                    "name": "successes",
                    "type": "bool[]"
                },
                {
                    "internalType": "bytes[]",
                    "name": "results",
                    "type": "bytes[]"
                }
            ],
            "stateMutability": "payable",
            "type": "function"
        },
        {
            "inputs": [
                {
                    "internalType": "contract IBatchFlashBorrower",
                    "name": "borrower",
                    "type": "address"
                },
                {
                    "internalType": "address[]",
                    "name": "receivers",
                    "type": "address[]"
                },
                {
                    "internalType": "contract IERC20[]",
                    "name": "tokens",
                    "type": "address[]"
                },
                {
                    "internalType": "uint256[]",
                    "name": "amounts",
                    "type": "uint256[]"
                },
                {
                    "internalType": "bytes",
                    "name": "data",
                    "type": "bytes"
                }
            ],
            "name": "batchFlashLoan",
            "outputs": [],
            "stateMutability": "nonpayable",
            "type": "function"
        },
        {
            "inputs": [],
            "name": "claimOwnership",
            "outputs": [],
            "stateMutability": "nonpayable",
            "type": "function"
        },
        {
            "inputs": [
                {
                    "internalType": "address",
                    "name": "masterContract",
                    "type": "address"
                },
                {
                    "internalType": "bytes",
                    "name": "data",
                    "type": "bytes"
                },
                {
                    "internalType": "bool",
                    "name": "useCreate2",
                    "type": "bool"
                }
            ],
            "name": "deploy",
            "outputs": [],
            "stateMutability": "payable",
            "type": "function"
        },
        {
            "inputs": [
                {
                    "internalType": "contract IERC20",
                    "name": "token_",
                    "type": "address"
                },
                {
                    "internalType": "address",
                    "name": "from",
                    "type": "address"
                },
                {
                    "internalType": "address",
                    "name": "to",
                    "type": "address"
                },
                {
                    "internalType": "uint256",
                    "name": "amount",
                    "type": "uint256"
                },
                {
                    "internalType": "uint256",
                    "name": "share",
                    "type": "uint256"
                }
            ],
            "name": "deposit",
            "outputs": [
                {
                    "internalType": "uint256",
                    "name": "amountOut",
                    "type": "uint256"
                },
                {
                    "internalType": "uint256",
                    "name": "shareOut",
                    "type": "uint256"
                }
            ],
            "stateMutability": "payable",
            "type": "function"
        },
        {
            "inputs": [
                {
                    "internalType": "contract IFlashBorrower",
                    "name": "borrower",
                    "type": "address"
                },
                {
                    "internalType": "address",
                    "name": "receiver",
                    "type": "address"
                },
                {
                    "internalType": "contract IERC20",
                    "name": "token",
                    "type": "address"
                },
                {
                    "internalType": "uint256",
                    "name": "amount",
                    "type": "uint256"
                },
                {
                    "internalType": "bytes",
                    "name": "data",
                    "type": "bytes"
                }
            ],
            "name": "flashLoan",
            "outputs": [],
            "stateMutability": "nonpayable",
            "type": "function"
        },
        {
            "inputs": [
                {
                    "internalType": "contract IERC20",
                    "name": "token",
                    "type": "address"
                },
                {
                    "internalType": "bool",
                    "name": "balance",
                    "type": "bool"
                },
                {
                    "internalType": "uint256",
                    "name": "maxChangeAmount",
                    "type": "uint256"
                }
            ],
            "name": "harvest",
            "outputs": [],
            "stateMutability": "nonpayable",
            "type": "function"
        },
        {
            "inputs": [
                {
                    "internalType": "address",
                    "name": "",
                    "type": "address"
                },
                {
                    "internalType": "address",
                    "name": "",
                    "type": "address"
                }
            ],
            "name": "masterContractApproved",
            "outputs": [
                {
                    "internalType": "bool",
                    "name": "",
                    "type": "bool"
                }
            ],
            "stateMutability": "view",
            "type": "function"
        },
        {
            "inputs": [
                {
                    "internalType": "address",
                    "name": "",
                    "type": "address"
                }
            ],
            "name": "masterContractOf",
            "outputs": [
                {
                    "internalType": "address",
                    "name": "",
                    "type": "address"
                }
            ],
            "stateMutability": "view",
            "type": "function"
        },
        {
            "inputs": [
                {
                    "internalType": "address",
                    "name": "",
                    "type": "address"
                }
            ],
            "name": "nonces",
            "outputs": [
                {
                    "internalType": "uint256",
                    "name": "",
                    "type": "uint256"
                }
            ],
            "stateMutability": "view",
            "type": "function"
        },
        {
            "inputs": [],
            "name": "owner",
            "outputs": [
                {
                    "internalType": "address",
                    "name": "",
                    "type": "address"
                }
            ],
            "stateMutability": "view",
            "type": "function"
        },
        {
            "inputs": [],
            "name": "pendingOwner",
            "outputs": [
                {
                    "internalType": "address",
                    "name": "",
                    "type": "address"
                }
            ],
            "stateMutability": "view",
            "type": "function"
        },
        {
            "inputs": [
                {
                    "internalType": "contract IERC20",
                    "name": "",
                    "type": "address"
                }
            ],
            "name": "pendingStrategy",
            "outputs": [
                {
                    "internalType": "contract IStrategy",
                    "name": "",
                    "type": "address"
                }
            ],
            "stateMutability": "view",
            "type": "function"
        },
        {
            "inputs": [
                {
                    "internalType": "contract IERC20",
                    "name": "token",
                    "type": "address"
                },
                {
                    "internalType": "address",
                    "name": "from",
                    "type": "address"
                },
                {
                    "internalType": "address",
                    "name": "to",
                    "type": "address"
                },
                {
                    "internalType": "uint256",
                    "name": "amount",
                    "type": "uint256"
                },
                {
                    "internalType": "uint256",
                    "name": "deadline",
                    "type": "uint256"
                },
                {
                    "internalType": "uint8",
                    "name": "v",
                    "type": "uint8"
                },
                {
                    "internalType": "bytes32",
                    "name": "r",
                    "type": "bytes32"
                },
                {
                    "internalType": "bytes32",
                    "name": "s",
                    "type": "bytes32"
                }
            ],
            "name": "permitToken",
            "outputs": [],
            "stateMutability": "nonpayable",
            "type": "function"
        },
        {
            "inputs": [],
            "name": "registerProtocol",
            "outputs": [],
            "stateMutability": "nonpayable",
            "type": "function"
        },
        {
            "inputs": [
                {
                    "internalType": "address",
                    "name": "user",
                    "type": "address"
                },
                {
                    "internalType": "address",
                    "name": "masterContract",
                    "type": "address"
                },
                {
                    "internalType": "bool",
                    "name": "approved",
                    "type": "bool"
                },
                {
                    "internalType": "uint8",
                    "name": "v",
                    "type": "uint8"
                },
                {
                    "internalType": "bytes32",
                    "name": "r",
                    "type": "bytes32"
                },
                {
                    "internalType": "bytes32",
                    "name": "s",
                    "type": "bytes32"
                }
            ],
            "name": "setMasterContractApproval",
            "outputs": [],
            "stateMutability": "nonpayable",
            "type": "function"
        },
        {
            "inputs": [
                {
                    "internalType": "contract IERC20",
                    "name": "token",
                    "type": "address"
                },
                {
                    "internalType": "contract IStrategy",
                    "name": "newStrategy",
                    "type": "address"
                }
            ],
            "name": "setStrategy",
            "outputs": [],
            "stateMutability": "nonpayable",
            "type": "function"
        },
        {
            "inputs": [
                {
                    "internalType": "contract IERC20",
                    "name": "token",
                    "type": "address"
                },
                {
                    "internalType": "uint64",
                    "name": "targetPercentage_",
                    "type": "uint64"
                }
            ],
            "name": "setStrategyTargetPercentage",
            "outputs": [],
            "stateMutability": "nonpayable",
            "type": "function"
        },
        {
            "inputs": [
                {
                    "internalType": "contract IERC20",
                    "name": "",
                    "type": "address"
                }
            ],
            "name": "strategy",
            "outputs": [
                {
                    "internalType": "contract IStrategy",
                    "name": "",
                    "type": "address"
                }
            ],
            "stateMutability": "view",
            "type": "function"
        },
        {
            "inputs": [
                {
                    "internalType": "contract IERC20",
                    "name": "",
                    "type": "address"
                }
            ],
            "name": "strategyData",
            "outputs": [
                {
                    "internalType": "uint64",
                    "name": "strategyStartDate",
                    "type": "uint64"
                },
                {
                    "internalType": "uint64",
                    "name": "targetPercentage",
                    "type": "uint64"
                },
                {
                    "internalType": "uint128",
                    "name": "balance",
                    "type": "uint128"
                }
            ],
            "stateMutability": "view",
            "type": "function"
        },
        {
            "inputs": [
                {
                    "internalType": "contract IERC20",
                    "name": "token",
                    "type": "address"
                },
                {
                    "internalType": "uint256",
                    "name": "share",
                    "type": "uint256"
                },
                {
                    "internalType": "bool",
                    "name": "roundUp",
                    "type": "bool"
                }
            ],
            "name": "toAmount",
            "outputs": [
                {
                    "internalType": "uint256",
                    "name": "amount",
                    "type": "uint256"
                }
            ],
            "stateMutability": "view",
            "type": "function"
        },
        {
            "inputs": [
                {
                    "internalType": "contract IERC20",
                    "name": "token",
                    "type": "address"
                },
                {
                    "internalType": "uint256",
                    "name": "amount",
                    "type": "uint256"
                },
                {
                    "internalType": "bool",
                    "name": "roundUp",
                    "type": "bool"
                }
            ],
            "name": "toShare",
            "outputs": [
                {
                    "internalType": "uint256",
                    "name": "share",
                    "type": "uint256"
                }
            ],
            "stateMutability": "view",
            "type": "function"
        },
        {
            "inputs": [
                {
                    "internalType": "contract IERC20",
                    "name": "",
                    "type": "address"
                }
            ],
            "name": "totals",
            "outputs": [
                {
                    "internalType": "uint128",
                    "name": "elastic",
                    "type": "uint128"
                },
                {
                    "internalType": "uint128",
                    "name": "base",
                    "type": "uint128"
                }
            ],
            "stateMutability": "view",
            "type": "function"
        },
        {
            "inputs": [
                {
                    "internalType": "contract IERC20",
                    "name": "token",
                    "type": "address"
                },
                {
                    "internalType": "address",
                    "name": "from",
                    "type": "address"
                },
                {
                    "internalType": "address",
                    "name": "to",
                    "type": "address"
                },
                {
                    "internalType": "uint256",
                    "name": "share",
                    "type": "uint256"
                }
            ],
            "name": "transfer",
            "outputs": [],
            "stateMutability": "nonpayable",
            "type": "function"
        },
        {
            "inputs": [
                {
                    "internalType": "contract IERC20",
                    "name": "token",
                    "type": "address"
                },
                {
                    "internalType": "address",
                    "name": "from",
                    "type": "address"
                },
                {
                    "internalType": "address[]",
                    "name": "tos",
                    "type": "address[]"
                },
                {
                    "internalType": "uint256[]",
                    "name": "shares",
                    "type": "uint256[]"
                }
            ],
            "name": "transferMultiple",
            "outputs": [],
            "stateMutability": "nonpayable",
            "type": "function"
        },
        {
            "inputs": [
                {
                    "internalType": "address",
                    "name": "newOwner",
                    "type": "address"
                },
                {
                    "internalType": "bool",
                    "name": "direct",
                    "type": "bool"
                },
                {
                    "internalType": "bool",
                    "name": "renounce",
                    "type": "bool"
                }
            ],
            "name": "transferOwnership",
            "outputs": [],
            "stateMutability": "nonpayable",
            "type": "function"
        },
        {
            "inputs": [
                {
                    "internalType": "address",
                    "name": "masterContract",
                    "type": "address"
                },
                {
                    "internalType": "bool",
                    "name": "approved",
                    "type": "bool"
                }
            ],
            "name": "whitelistMasterContract",
            "outputs": [],
            "stateMutability": "nonpayable",
            "type": "function"
        },
        {
            "inputs": [
                {
                    "internalType": "address",
                    "name": "",
                    "type": "address"
                }
            ],
            "name": "whitelistedMasterContracts",
            "outputs": [
                {
                    "internalType": "bool",
                    "name": "",
                    "type": "bool"
                }
            ],
            "stateMutability": "view",
            "type": "function"
        },
        {
            "inputs": [
                {
                    "internalType": "contract IERC20",
                    "name": "token_",
                    "type": "address"
                },
                {
                    "internalType": "address",
                    "name": "from",
                    "type": "address"
                },
                {
                    "internalType": "address",
                    "name": "to",
                    "type": "address"
                },
                {
                    "internalType": "uint256",
                    "name": "amount",
                    "type": "uint256"
                },
                {
                    "internalType": "uint256",
                    "name": "share",
                    "type": "uint256"
                }
            ],
            "name": "withdraw",
            "outputs": [
                {
                    "internalType": "uint256",
                    "name": "amountOut",
                    "type": "uint256"
                },
                {
                    "internalType": "uint256",
                    "name": "shareOut",
                    "type": "uint256"
                }
            ],
            "stateMutability": "nonpayable",
            "type": "function"
        },
        {
            "stateMutability": "payable",
            "type": "receive"
        }
    ],
    "transactionHash": "0x058de8505cf4d0efb33f7479773277906f2b078a56c5d908edefe42179ba234e",
    "args": [
        "0xc778417E063141139Fce010982780140Aa0cD5Ab"
    ],
    "solcInputHash": "fe6a85cbf014a37ca25118923ee22129",
    "bytecode": "0x60c06040523480156200001157600080fd5b50604051620059ac380380620059ac833981016040819052620000349162000100565b600080546001600160a01b0319163390811782556040519091907f8be0079c531659141344cd1fd0a4f28419497f9722a3daafe3b4186f6b6457e0908290a36040514690620000ce907f8cad95687ba82c2ce50e74f7b754645e5117c3a5bec8151c0726d5857980a866907fd7df266aff736d415a9dc14b4158201d612e70d75b9c7f4e375ccfd20aa5166f908490309060200162000130565b60408051808303601f1901815291905280516020909101206080525060601b6001600160601b03191660a05262000154565b60006020828403121562000112578081fd5b81516001600160a01b038116811462000129578182fd5b9392505050565b938452602084019290925260408301526001600160a01b0316606082015260800190565b60805160a05160601c6158226200018a600039806107415280610b1752806128945280612b5a525080612f8c52506158226000f3fe6080604052600436106101d15760003560e01c80637ecebe00116100f7578063d2423b5111610095578063f1676d3711610064578063f1676d3714610535578063f18d03cc14610555578063f483b3da14610575578063f7888aec14610595576101d8565b8063d2423b51146104b0578063da5139ca146104d1578063df23b45b146104f1578063e30c397814610520576101d8565b806397da6d30116100d157806397da6d301461043b578063aee4d1b21461045b578063bafe4f1414610470578063c0a47c9314610490576101d8565b80637ecebe00146103e65780638da5cb5b1461040657806391e0eab51461041b576101d8565b80634e71e0c81161016f57806366c6bb0b1161013e57806366c6bb0b1461036657806372cb5d9714610386578063733a9d7c146103a65780637c516e94146103c6576101d8565b80634e71e0c8146102d65780634ffe34db146102eb5780635108a558146103195780635662311814610339576101d8565b806312a90c8a116101ab57806312a90c8a146102495780631f54245b14610276578063228bfd9f146102895780633e2a9d4e146102b6576101d8565b806302b9446c146101dd578063078dfbe7146102075780630fca884314610229576101d8565b366101d857005b600080fd5b6101f06101eb366004614844565b6105b5565b6040516101fe9291906156c1565b60405180910390f35b34801561021357600080fd5b506102276102223660046145f8565b610c6c565b005b34801561023557600080fd5b5061022761024436600461491f565b610df7565b34801561025557600080fd5b5061026961026436600461450b565b6111b9565b6040516101fe9190614f7e565b610227610284366004614642565b6111ce565b34801561029557600080fd5b506102a96102a436600461450b565b611436565b6040516101fe9190614ce2565b3480156102c257600080fd5b506102276102d1366004614a27565b61145e565b3480156102e257600080fd5b50610227611592565b3480156102f757600080fd5b5061030b61030636600461450b565b611678565b6040516101fe929190615695565b34801561032557600080fd5b506102a961033436600461450b565b6116b4565b34801561034557600080fd5b506103596103543660046149f1565b6116dc565b6040516101fe91906156b8565b34801561037257600080fd5b506102276103813660046149b1565b611753565b34801561039257600080fd5b506102276103a13660046147e2565b611f08565b3480156103b257600080fd5b506102276103c13660046145cb565b61250c565b3480156103d257600080fd5b506102276103e136600461489e565b612629565b3480156103f257600080fd5b5061035961040136600461450b565b6126c3565b34801561041257600080fd5b506102a96126d5565b34801561042757600080fd5b50610269610436366004614527565b6126f1565b34801561044757600080fd5b506101f0610456366004614844565b612711565b34801561046757600080fd5b50610227612d01565b34801561047c57600080fd5b506102a961048b36600461450b565b612d60565b34801561049c57600080fd5b506102276104ab36600461455f565b612d88565b6104c36104be3660046146a8565b6131ea565b6040516101fe929190614ee4565b3480156104dd57600080fd5b506103596104ec3660046149f1565b613396565b3480156104fd57600080fd5b5061051161050c36600461450b565b613405565b6040516101fe939291906156e4565b34801561052c57600080fd5b506102a961345a565b34801561054157600080fd5b50610227610550366004614a60565b613476565b34801561056157600080fd5b506102276105703660046147f4565b613651565b34801561058157600080fd5b5061022761059036600461470e565b6138ab565b3480156105a157600080fd5b506103596105b03660046147e2565b613bf6565b6000808573ffffffffffffffffffffffffffffffffffffffff811633148015906105f5575073ffffffffffffffffffffffffffffffffffffffff81163014155b156106ce573360009081526002602052604090205473ffffffffffffffffffffffffffffffffffffffff1680610660576040517f08c379a00000000000000000000000000000000000000000000000000000000081526004016106579061548c565b60405180910390fd5b73ffffffffffffffffffffffffffffffffffffffff80821660009081526003602090815260408083209386168352929052205460ff166106cc576040517f08c379a00000000000000000000000000000000000000000000000000000000081526004016106579061530f565b505b73ffffffffffffffffffffffffffffffffffffffff861661071b576040517f08c379a00000000000000000000000000000000000000000000000000000000081526004016106579061526c565b600073ffffffffffffffffffffffffffffffffffffffff89161561073f5788610761565b7f00000000000000000000000000000000000000000000000000000000000000005b905061076b61442f565b5073ffffffffffffffffffffffffffffffffffffffff81166000908152600760209081526040918290208251808401909352546fffffffffffffffffffffffffffffffff808216808552700100000000000000000000000000000000909204169183019190915215158061085c575060008273ffffffffffffffffffffffffffffffffffffffff166318160ddd6040518163ffffffff1660e01b815260040160206040518083038186803b15801561082257600080fd5b505afa158015610836573d6000803e3d6000fd5b505050506040513d601f19601f8201168201806040525081019061085a9190614ad1565b115b610892576040517f08c379a000000000000000000000000000000000000000000000000000000000815260040161065790615190565b856108fc576108a381886000613c13565b95506103e86108d16108b488613cd1565b60208401516fffffffffffffffffffffffffffffffff1690613d21565b6fffffffffffffffffffffffffffffffff1610156108f757600080945094505050610c61565b61090b565b61090881876001613d79565b96505b73ffffffffffffffffffffffffffffffffffffffff891630141580610944575073ffffffffffffffffffffffffffffffffffffffff8a16155b8061097557508051610971906fffffffffffffffffffffffffffffffff1661096b84613e1c565b90613f00565b8711155b6109ab576040517f08c379a000000000000000000000000000000000000000000000000000000000815260040161065790615046565b73ffffffffffffffffffffffffffffffffffffffff8083166000908152600660209081526040808320938c16835292905220546109e89087613f3d565b73ffffffffffffffffffffffffffffffffffffffff8084166000908152600660209081526040808320938d1683529290522055610a44610a2787613cd1565b60208301516fffffffffffffffffffffffffffffffff1690613d21565b6fffffffffffffffffffffffffffffffff166020820152610a81610a6788613cd1565b82516fffffffffffffffffffffffffffffffff1690613d21565b6fffffffffffffffffffffffffffffffff908116825273ffffffffffffffffffffffffffffffffffffffff808416600090815260076020908152604090912084518154928601518516700100000000000000000000000000000000029085167fffffffffffffffffffffffffffffffff0000000000000000000000000000000090931692909217909316179091558a16610b9b577f000000000000000000000000000000000000000000000000000000000000000073ffffffffffffffffffffffffffffffffffffffff1663d0e30db0886040518263ffffffff1660e01b81526004016000604051808303818588803b158015610b7d57600080fd5b505af1158015610b91573d6000803e3d6000fd5b5050505050610bda565b73ffffffffffffffffffffffffffffffffffffffff89163014610bda57610bda73ffffffffffffffffffffffffffffffffffffffff83168a308a613f7a565b8773ffffffffffffffffffffffffffffffffffffffff168973ffffffffffffffffffffffffffffffffffffffff168373ffffffffffffffffffffffffffffffffffffffff167fb2346165e782564f17f5b7e555c21f4fd96fbc93458572bf0113ea35a958fc558a8a604051610c509291906156c1565b60405180910390a486945085935050505b509550959350505050565b60005473ffffffffffffffffffffffffffffffffffffffff163314610cbd576040517f08c379a0000000000000000000000000000000000000000000000000000000008152600401610657906152da565b8115610db15773ffffffffffffffffffffffffffffffffffffffff8316151580610ce45750805b610d1a576040517f08c379a000000000000000000000000000000000000000000000000000000000815260040161065790615159565b6000805460405173ffffffffffffffffffffffffffffffffffffffff808716939216917f8be0079c531659141344cd1fd0a4f28419497f9722a3daafe3b4186f6b6457e091a36000805473ffffffffffffffffffffffffffffffffffffffff85167fffffffffffffffffffffffff000000000000000000000000000000000000000091821617909155600180549091169055610df2565b600180547fffffffffffffffffffffffff00000000000000000000000000000000000000001673ffffffffffffffffffffffffffffffffffffffff85161790555b505050565b8473ffffffffffffffffffffffffffffffffffffffff81163314801590610e34575073ffffffffffffffffffffffffffffffffffffffff81163014155b15610f04573360009081526002602052604090205473ffffffffffffffffffffffffffffffffffffffff1680610e96576040517f08c379a00000000000000000000000000000000000000000000000000000000081526004016106579061548c565b73ffffffffffffffffffffffffffffffffffffffff80821660009081526003602090815260408083209386168352929052205460ff16610f02576040517f08c379a00000000000000000000000000000000000000000000000000000000081526004016106579061530f565b505b600085858281610f1057fe5b9050602002016020810190610f25919061450b565b73ffffffffffffffffffffffffffffffffffffffff161415610f73576040517f08c379a000000000000000000000000000000000000000000000000000000000815260040161065790615235565b600084815b81811015611137576000888883818110610f8e57fe5b9050602002016020810190610fa3919061450b565b9050611046878784818110610fb457fe5b90506020020135600660008e73ffffffffffffffffffffffffffffffffffffffff1673ffffffffffffffffffffffffffffffffffffffff16815260200190815260200160002060008473ffffffffffffffffffffffffffffffffffffffff1673ffffffffffffffffffffffffffffffffffffffff16815260200190815260200160002054613f3d90919063ffffffff16565b73ffffffffffffffffffffffffffffffffffffffff808d1660009081526006602090815260408083209386168352929052205561109e87878481811061108857fe5b9050602002013585613f3d90919063ffffffff16565b93508073ffffffffffffffffffffffffffffffffffffffff168a73ffffffffffffffffffffffffffffffffffffffff168c73ffffffffffffffffffffffffffffffffffffffff167f6eabe333476233fd382224f233210cb808a7bc4c4de64f9d76628bf63c677b1a8a8a8781811061111257fe5b9050602002013560405161112691906156b8565b60405180910390a450600101610f78565b5073ffffffffffffffffffffffffffffffffffffffff808a166000908152600660209081526040808320938c16835292905220546111759083613f00565b73ffffffffffffffffffffffffffffffffffffffff998a1660009081526006602090815260408083209b909c16825299909952989097209790975550505050505050565b60046020526000908152604090205460ff1681565b73ffffffffffffffffffffffffffffffffffffffff841661121b576040517f08c379a000000000000000000000000000000000000000000000000000000000815260040161065790615420565b606084901b600082156112a6576000858560405161123a929190614c8c565b604051809103902090506040517f3d602d80600a3d3981f3363d3d373d3d3d363d7300000000000000000000000081528360148201527f5af43d82803e903d91602b57fd5bf300000000000000000000000000000000006028820152816037826000f592505050611302565b6040517f3d602d80600a3d3981f3363d3d373d3d3d363d7300000000000000000000000081528260148201527f5af43d82803e903d91602b57fd5bf3000000000000000000000000000000000060288201526037816000f09150505b73ffffffffffffffffffffffffffffffffffffffff8181166000818152600260205260409081902080547fffffffffffffffffffffffff000000000000000000000000000000000000000016938a169390931790925590517f4ddf47d4000000000000000000000000000000000000000000000000000000008152634ddf47d49034906113959089908990600401614fe8565b6000604051808303818588803b1580156113ae57600080fd5b505af11580156113c2573d6000803e3d6000fd5b50505050508073ffffffffffffffffffffffffffffffffffffffff168673ffffffffffffffffffffffffffffffffffffffff167fd62166f3c2149208e51788b1401cc356bf5da1fc6c7886a32e18570f57d88b3b8787604051611426929190614fe8565b60405180910390a3505050505050565b60086020526000908152604090205473ffffffffffffffffffffffffffffffffffffffff1681565b60005473ffffffffffffffffffffffffffffffffffffffff1633146114af576040517f08c379a0000000000000000000000000000000000000000000000000000000008152600401610657906152da565b605f8167ffffffffffffffff1611156114f4576040517f08c379a00000000000000000000000000000000000000000000000000000000081526004016106579061560b565b73ffffffffffffffffffffffffffffffffffffffff82166000818152600a60205260409081902080547fffffffffffffffffffffffffffffffff0000000000000000ffffffffffffffff166801000000000000000067ffffffffffffffff861602179055517f7543af99b5602c06e62da0631b5308489a5ff859150105a623b6eb15e8deae0b906115869084906156cf565b60405180910390a25050565b60015473ffffffffffffffffffffffffffffffffffffffff163381146115e4576040517f08c379a000000000000000000000000000000000000000000000000000000000815260040161065790615346565b6000805460405173ffffffffffffffffffffffffffffffffffffffff808516939216917f8be0079c531659141344cd1fd0a4f28419497f9722a3daafe3b4186f6b6457e091a36000805473ffffffffffffffffffffffffffffffffffffffff9092167fffffffffffffffffffffffff0000000000000000000000000000000000000000928316179055600180549091169055565b6007602052600090815260409020546fffffffffffffffffffffffffffffffff8082169170010000000000000000000000000000000090041682565b60096020526000908152604090205473ffffffffffffffffffffffffffffffffffffffff1681565b73ffffffffffffffffffffffffffffffffffffffff831660009081526007602090815260408083208151808301909252546fffffffffffffffffffffffffffffffff8082168352700100000000000000000000000000000000909104169181019190915261174b908484613d79565b949350505050565b61175b614446565b5073ffffffffffffffffffffffffffffffffffffffff8381166000818152600a602090815260408083208151606081018352905467ffffffffffffffff8082168352680100000000000000008204168285015270010000000000000000000000000000000090046fffffffffffffffffffffffffffffffff16818301908152948452600890925280832054935190517f18fccc760000000000000000000000000000000000000000000000000000000081529194939093169283916318fccc769161182a91339060040161565d565b602060405180830381600087803b15801561184457600080fd5b505af1158015611858573d6000803e3d6000fd5b505050506040513d601f19601f8201168201806040525081019061187c9190614ad1565b90508015801561188a575084155b1561189757505050610df2565b73ffffffffffffffffffffffffffffffffffffffff86166000908152600760205260408120546fffffffffffffffffffffffffffffffff169082131561199157816118e28282613f3d565b91506118ed82613cd1565b73ffffffffffffffffffffffffffffffffffffffff89166000818152600760205260409081902080547fffffffffffffffffffffffffffffffff00000000000000000000000000000000166fffffffffffffffffffffffffffffffff949094169390931790925590517f911c9f20a03edabcbcbd18dca1174cce47a91b234ced7a5a3c60ba0d5b56c5d2906119839084906156b8565b60405180910390a250611aac565b6000821215611aac5760008290036119a98282613f00565b91506119b482613cd1565b73ffffffffffffffffffffffffffffffffffffffff8916600090815260076020526040902080547fffffffffffffffffffffffffffffffff00000000000000000000000000000000166fffffffffffffffffffffffffffffffff92909216919091179055611a41611a2482613cd1565b60408701516fffffffffffffffffffffffffffffffff16906140e5565b6fffffffffffffffffffffffffffffffff166040808701919091525173ffffffffffffffffffffffffffffffffffffffff8916907f8f1f26eb9b6aa8689dbdd519ead1999d9c8819d4738e403b2003b18197d9cf9790611aa29084906156b8565b60405180910390a2505b8515611e305760006064611ad7866020015167ffffffffffffffff168461413790919063ffffffff16565b81611ade57fe5b0490508085604001516fffffffffffffffffffffffffffffffff161015611c7d576000611b2a86604001516fffffffffffffffffffffffffffffffff1683613f0090919063ffffffff16565b90508615801590611b3a57508681115b15611b425750855b611b6373ffffffffffffffffffffffffffffffffffffffff8a168683614188565b611b8c611b6f82613cd1565b60408801516fffffffffffffffffffffffffffffffff1690613d21565b6fffffffffffffffffffffffffffffffff16604080880191909152517f6939aaf500000000000000000000000000000000000000000000000000000000815273ffffffffffffffffffffffffffffffffffffffff861690636939aaf590611bf79084906004016156b8565b600060405180830381600087803b158015611c1157600080fd5b505af1158015611c25573d6000803e3d6000fd5b505050508873ffffffffffffffffffffffffffffffffffffffff167fb18e7e4f6eac147a63a3bb6beb2d9039c88698623aff3efc4febbc20b0164ee582604051611c6f91906156b8565b60405180910390a250611e2e565b8085604001516fffffffffffffffffffffffffffffffff161115611e2e576000611cc6611ca983613cd1565b60408801516fffffffffffffffffffffffffffffffff16906140e5565b6fffffffffffffffffffffffffffffffff1690508615801590611ce857508681115b15611cf05750855b6040517f2e1a7d4d00000000000000000000000000000000000000000000000000000000815260009073ffffffffffffffffffffffffffffffffffffffff871690632e1a7d4d90611d459085906004016156b8565b602060405180830381600087803b158015611d5f57600080fd5b505af1158015611d73573d6000803e3d6000fd5b505050506040513d601f19601f82011682018060405250810190611d979190614ad1565b9050611dc2611da582613cd1565b60408901516fffffffffffffffffffffffffffffffff16906140e5565b6fffffffffffffffffffffffffffffffff166040808901919091525173ffffffffffffffffffffffffffffffffffffffff8b16907f39aa22060f8dd4d291720311feedf3b72fef47c06c66ccf5c22b502c62e7550a90611e239084906156b8565b60405180910390a250505b505b50505073ffffffffffffffffffffffffffffffffffffffff84166000908152600a6020908152604091829020835181549285015193909401516fffffffffffffffffffffffffffffffff9081167001000000000000000000000000000000000267ffffffffffffffff94851668010000000000000000027fffffffffffffffffffffffffffffffff0000000000000000ffffffffffffffff959096167fffffffffffffffffffffffffffffffffffffffffffffffff000000000000000090941693909317939093169390931791909116179055505050565b60005473ffffffffffffffffffffffffffffffffffffffff163314611f59576040517f08c379a0000000000000000000000000000000000000000000000000000000008152600401610657906152da565b611f61614446565b5073ffffffffffffffffffffffffffffffffffffffff8281166000818152600a602090815260408083208151606081018352905467ffffffffffffffff80821683526801000000000000000082048116838601527001000000000000000000000000000000009091046fffffffffffffffffffffffffffffffff168284015294845260099092529091205481519193169116158061202b57508273ffffffffffffffffffffffffffffffffffffffff168173ffffffffffffffffffffffffffffffffffffffff1614155b156120e85773ffffffffffffffffffffffffffffffffffffffff848116600090815260096020526040902080547fffffffffffffffffffffffff0000000000000000000000000000000000000000169185169190911790556120916212750042016142f0565b67ffffffffffffffff16825260405173ffffffffffffffffffffffffffffffffffffffff80851691908616907f6f7ccdf3f86039e5a1dcf6028bf7b4773cbf7a234716ba2e5392b12bb0f8558f90600090a3612438565b815167ffffffffffffffff161580159061210d5750815167ffffffffffffffff164210155b612143576040517f08c379a0000000000000000000000000000000000000000000000000000000008152600401610657906152a3565b73ffffffffffffffffffffffffffffffffffffffff848116600090815260086020526040902054161561239c5773ffffffffffffffffffffffffffffffffffffffff808516600090815260086020526040808220548582015191517f7f8661a100000000000000000000000000000000000000000000000000000000815292931691637f8661a1916121d791600401615640565b602060405180830381600087803b1580156121f157600080fd5b505af1158015612205573d6000803e3d6000fd5b505050506040513d601f19601f820116820180604052508101906122299190614ad1565b905060008113156122ba5773ffffffffffffffffffffffffffffffffffffffff8516600090815260076020526040902081906122659082614334565b508573ffffffffffffffffffffffffffffffffffffffff167f911c9f20a03edabcbcbd18dca1174cce47a91b234ced7a5a3c60ba0d5b56c5d2826040516122ac91906156b8565b60405180910390a250612348565b60008112156123485773ffffffffffffffffffffffffffffffffffffffff8516600090815260076020526040812090829003906122f790826143a2565b508573ffffffffffffffffffffffffffffffffffffffff167f8f1f26eb9b6aa8689dbdd519ead1999d9c8819d4738e403b2003b18197d9cf978260405161233e91906156b8565b60405180910390a2505b8473ffffffffffffffffffffffffffffffffffffffff167f39aa22060f8dd4d291720311feedf3b72fef47c06c66ccf5c22b502c62e7550a84604001516040516123929190615640565b60405180910390a2505b73ffffffffffffffffffffffffffffffffffffffff808516600081815260086020908152604080832080548688167fffffffffffffffffffffffff0000000000000000000000000000000000000000918216179091558388528782018490528484526009909252808320805490921690915551928616927f03e6352a885adc4cc54767592939c3b1bbd65685658c3beaaba66a888120e2179190a35b5073ffffffffffffffffffffffffffffffffffffffff929092166000908152600a6020908152604091829020845181549286015193909501517fffffffffffffffffffffffffffffffffffffffffffffffff000000000000000090921667ffffffffffffffff958616177fffffffffffffffffffffffffffffffff0000000000000000ffffffffffffffff16680100000000000000009590931694909402919091176fffffffffffffffffffffffffffffffff90811670010000000000000000000000000000000091909216021790915550565b60005473ffffffffffffffffffffffffffffffffffffffff16331461255d576040517f08c379a0000000000000000000000000000000000000000000000000000000008152600401610657906152da565b73ffffffffffffffffffffffffffffffffffffffff82166125aa576040517f08c379a00000000000000000000000000000000000000000000000000000000081526004016106579061507d565b73ffffffffffffffffffffffffffffffffffffffff82166000818152600460205260409081902080547fffffffffffffffffffffffffffffffffffffffffffffffffffffffffffffff0016841515179055517f31a1e0eac44b54ac6c2a2efa87e92c83405ffcf33fceef02a7bca695130e260090611586908490614f7e565b6040517fd505accf00000000000000000000000000000000000000000000000000000000815273ffffffffffffffffffffffffffffffffffffffff89169063d505accf90612687908a908a908a908a908a908a908a90600401614e70565b600060405180830381600087803b1580156126a157600080fd5b505af11580156126b5573d6000803e3d6000fd5b505050505050505050505050565b60056020526000908152604090205481565b60005473ffffffffffffffffffffffffffffffffffffffff1681565b600360209081526000928352604080842090915290825290205460ff1681565b6000808573ffffffffffffffffffffffffffffffffffffffff81163314801590612751575073ffffffffffffffffffffffffffffffffffffffff81163014155b15612821573360009081526002602052604090205473ffffffffffffffffffffffffffffffffffffffff16806127b3576040517f08c379a00000000000000000000000000000000000000000000000000000000081526004016106579061548c565b73ffffffffffffffffffffffffffffffffffffffff80821660009081526003602090815260408083209386168352929052205460ff1661281f576040517f08c379a00000000000000000000000000000000000000000000000000000000081526004016106579061530f565b505b73ffffffffffffffffffffffffffffffffffffffff861661286e576040517f08c379a00000000000000000000000000000000000000000000000000000000081526004016106579061526c565b600073ffffffffffffffffffffffffffffffffffffffff89161561289257886128b4565b7f00000000000000000000000000000000000000000000000000000000000000005b90506128be61442f565b5073ffffffffffffffffffffffffffffffffffffffff81166000908152600760209081526040918290208251808401909352546fffffffffffffffffffffffffffffffff80821684527001000000000000000000000000000000009091041690820152856129395761293281886001613c13565b9550612948565b61294581876000613d79565b96505b73ffffffffffffffffffffffffffffffffffffffff8083166000908152600660209081526040808320938d16835292905220546129859087613f00565b73ffffffffffffffffffffffffffffffffffffffff8084166000908152600660209081526040808320938e16835292905220556129de6129c488613cd1565b82516fffffffffffffffffffffffffffffffff16906140e5565b6fffffffffffffffffffffffffffffffff168152612a1b6129fe87613cd1565b60208301516fffffffffffffffffffffffffffffffff16906140e5565b6fffffffffffffffffffffffffffffffff16602082018190526103e8111580612a58575060208101516fffffffffffffffffffffffffffffffff16155b612a8e576040517f08c379a000000000000000000000000000000000000000000000000000000000815260040161065790615122565b73ffffffffffffffffffffffffffffffffffffffff828116600090815260076020908152604090912083518154928501517fffffffffffffffffffffffffffffffff000000000000000000000000000000009093166fffffffffffffffffffffffffffffffff91821617811670010000000000000000000000000000000091909316029190911790558a16612c6a576040517f2e1a7d4d00000000000000000000000000000000000000000000000000000000815273ffffffffffffffffffffffffffffffffffffffff7f00000000000000000000000000000000000000000000000000000000000000001690632e1a7d4d90612b8f908a906004016156b8565b600060405180830381600087803b158015612ba957600080fd5b505af1158015612bbd573d6000803e3d6000fd5b5050505060008873ffffffffffffffffffffffffffffffffffffffff1688604051612be790614cdf565b60006040518083038185875af1925050503d8060008114612c24576040519150601f19603f3d011682016040523d82523d6000602084013e612c29565b606091505b5050905080612c64576040517f08c379a00000000000000000000000000000000000000000000000000000000081526004016106579061559d565b50612c8b565b612c8b73ffffffffffffffffffffffffffffffffffffffff83168989614188565b8773ffffffffffffffffffffffffffffffffffffffff168973ffffffffffffffffffffffffffffffffffffffff168373ffffffffffffffffffffffffffffffffffffffff167fad9ab9ee6953d4d177f4a03b3a3ac3178ffcb9816319f348060194aa76b144868a8a604051610c509291906156c1565b3360008181526002602052604080822080547fffffffffffffffffffffffff00000000000000000000000000000000000000001684179055517fdfb44ffabf0d3a8f650d3ce43eff98f6d050e7ea1a396d5794f014e7dadabacb9190a2565b60026020526000908152604090205473ffffffffffffffffffffffffffffffffffffffff1681565b73ffffffffffffffffffffffffffffffffffffffff8516612dd5576040517f08c379a000000000000000000000000000000000000000000000000000000000815260040161065790615455565b81158015612de1575080155b8015612dee575060ff8316155b15612f055773ffffffffffffffffffffffffffffffffffffffff86163314612e42576040517f08c379a0000000000000000000000000000000000000000000000000000000008152600401610657906150b4565b73ffffffffffffffffffffffffffffffffffffffff8681166000908152600260205260409020541615612ea1576040517f08c379a0000000000000000000000000000000000000000000000000000000008152600401610657906153b2565b73ffffffffffffffffffffffffffffffffffffffff851660009081526004602052604090205460ff16612f00576040517f08c379a000000000000000000000000000000000000000000000000000000000815260040161065790615566565b61315b565b73ffffffffffffffffffffffffffffffffffffffff8616612f52576040517f08c379a0000000000000000000000000000000000000000000000000000000008152600401610657906154f8565b60006040518060400160405280600281526020017f19010000000000000000000000000000000000000000000000000000000000008152507f00000000000000000000000000000000000000000000000000000000000000007f1962bc9f5484cb7a998701b81090e966ee1fce5771af884cceee7c081b14ade287612ff7577fb426802f1f7dc850a7b6b38805edea2442f3992878a9ab985abfe8091d95d0b1613019565b7f422ac5323fe049241dee67716229a1cc1bc7b313b23dfe3ef6d42ab177a3b2845b73ffffffffffffffffffffffffffffffffffffffff8b1660009081526005602090815260409182902080546001810190915591516130609493928e928e928e929101614f89565b6040516020818303038152906040528051906020012060405160200161308893929190614cb8565b6040516020818303038152906040528051906020012090506000600182868686604051600081526020016040526040516130c59493929190614fca565b6020604051602081039080840390855afa1580156130e7573d6000803e3d6000fd5b5050506020604051035190508773ffffffffffffffffffffffffffffffffffffffff168173ffffffffffffffffffffffffffffffffffffffff1614613158576040517f08c379a0000000000000000000000000000000000000000000000000000000008152600401610657906153e9565b50505b73ffffffffffffffffffffffffffffffffffffffff8581166000818152600360209081526040808320948b16808452949091529081902080547fffffffffffffffffffffffffffffffffffffffffffffffffffffffffffffff0016881515179055517f5f6ebb64ba012a851c6f014e6cad458ddf213d1512049b31cd06365c2b05925790611426908890614f7e565b6060808367ffffffffffffffff8111801561320457600080fd5b5060405190808252806020026020018201604052801561322e578160200160208202803683370190505b5091508367ffffffffffffffff8111801561324857600080fd5b5060405190808252806020026020018201604052801561327c57816020015b60608152602001906001900390816132675790505b50905060005b8481101561338d57600060603088888581811061329b57fe5b90506020028101906132ad919061571a565b6040516132bb929190614c8c565b600060405180830381855af49150503d80600081146132f6576040519150601f19603f3d011682016040523d82523d6000602084013e6132fb565b606091505b5091509150818061330a575085155b613313826143ca565b9061334b576040517f08c379a00000000000000000000000000000000000000000000000000000000081526004016106579190614ffc565b508185848151811061335957fe5b6020026020010190151590811515815250508084848151811061337857fe5b60209081029190910101525050600101613282565b50935093915050565b73ffffffffffffffffffffffffffffffffffffffff831660009081526007602090815260408083208151808301909252546fffffffffffffffffffffffffffffffff8082168352700100000000000000000000000000000000909104169181019190915261174b908484613c13565b600a6020526000908152604090205467ffffffffffffffff808216916801000000000000000081049091169070010000000000000000000000000000000090046fffffffffffffffffffffffffffffffff1683565b60015473ffffffffffffffffffffffffffffffffffffffff1681565b6000620186a0613487856032614137565b8161348e57fe5b0490506134b273ffffffffffffffffffffffffffffffffffffffff86168786614188565b6040517f23e30c8b00000000000000000000000000000000000000000000000000000000815273ffffffffffffffffffffffffffffffffffffffff8816906323e30c8b9061350e9033908990899087908a908a90600401614ded565b600060405180830381600087803b15801561352857600080fd5b505af115801561353c573d6000803e3d6000fd5b5050505061358961354c82613cd1565b73ffffffffffffffffffffffffffffffffffffffff87166000908152600760205260409020906fffffffffffffffffffffffffffffffff16614334565b61359286613e1c565b10156135ca576040517f08c379a00000000000000000000000000000000000000000000000000000000081526004016106579061552f565b8573ffffffffffffffffffffffffffffffffffffffff168573ffffffffffffffffffffffffffffffffffffffff168873ffffffffffffffffffffffffffffffffffffffff167f3be9b85936d5d30a1655ea116a17ee3d827b2cd428cc026ce5bf2ac46a22320487856040516136409291906156c1565b60405180910390a450505050505050565b8273ffffffffffffffffffffffffffffffffffffffff8116331480159061368e575073ffffffffffffffffffffffffffffffffffffffff81163014155b1561375e573360009081526002602052604090205473ffffffffffffffffffffffffffffffffffffffff16806136f0576040517f08c379a00000000000000000000000000000000000000000000000000000000081526004016106579061548c565b73ffffffffffffffffffffffffffffffffffffffff80821660009081526003602090815260408083209386168352929052205460ff1661375c576040517f08c379a00000000000000000000000000000000000000000000000000000000081526004016106579061530f565b505b73ffffffffffffffffffffffffffffffffffffffff83166137ab576040517f08c379a00000000000000000000000000000000000000000000000000000000081526004016106579061526c565b73ffffffffffffffffffffffffffffffffffffffff8086166000908152600660209081526040808320938816835292905220546137e89083613f00565b73ffffffffffffffffffffffffffffffffffffffff8681166000908152600660209081526040808320898516845290915280822093909355908516815220546138319083613f3d565b73ffffffffffffffffffffffffffffffffffffffff80871660008181526006602090815260408083208986168085529252918290209490945551918716917f6eabe333476233fd382224f233210cb808a7bc4c4de64f9d76628bf63c677b1a9061389c9087906156b8565b60405180910390a45050505050565b60608567ffffffffffffffff811180156138c457600080fd5b506040519080825280602002602001820160405280156138ee578160200160208202803683370190505b5090508560005b818110156139ca57600087878381811061390b57fe5b905060200201359050620186a061392c60328361413790919063ffffffff16565b8161393357fe5b0484838151811061394057fe5b6020026020010181815250506139c18c8c8481811061395b57fe5b9050602002016020810190613970919061450b565b89898581811061397c57fe5b905060200201358c8c8681811061398f57fe5b90506020020160208101906139a4919061450b565b73ffffffffffffffffffffffffffffffffffffffff169190614188565b506001016138f5565b506040517fd9d1762300000000000000000000000000000000000000000000000000000000815273ffffffffffffffffffffffffffffffffffffffff8c169063d9d1762390613a2b9033908c908c908c908c908a908d908d90600401614d03565b600060405180830381600087803b158015613a4557600080fd5b505af1158015613a59573d6000803e3d6000fd5b5050505060005b818110156126b5576000898983818110613a7657fe5b9050602002016020810190613a8b919061450b565b9050613ae9613aac858481518110613a9f57fe5b6020026020010151613cd1565b73ffffffffffffffffffffffffffffffffffffffff83166000908152600760205260409020906fffffffffffffffffffffffffffffffff16614334565b613af282613e1c565b1015613b2a576040517f08c379a00000000000000000000000000000000000000000000000000000000081526004016106579061552f565b8b8b83818110613b3657fe5b9050602002016020810190613b4b919061450b565b73ffffffffffffffffffffffffffffffffffffffff168173ffffffffffffffffffffffffffffffffffffffff168e73ffffffffffffffffffffffffffffffffffffffff167f3be9b85936d5d30a1655ea116a17ee3d827b2cd428cc026ce5bf2ac46a2232048b8b87818110613bbc57fe5b90506020020135888781518110613bcf57fe5b6020026020010151604051613be59291906156c1565b60405180910390a450600101613a60565b600660209081526000928352604080842090915290825290205481565b82516000906fffffffffffffffffffffffffffffffff16613c35575081613cca565b835160208501516fffffffffffffffffffffffffffffffff91821691613c5d91869116614137565b81613c6457fe5b049050818015613cba57508284602001516fffffffffffffffffffffffffffffffff16613cb086600001516fffffffffffffffffffffffffffffffff168461413790919063ffffffff16565b81613cb757fe5b04105b15613cca5761174b816001613f3d565b9392505050565b60006fffffffffffffffffffffffffffffffff821115613d1d576040517f08c379a0000000000000000000000000000000000000000000000000000000008152600401610657906151c7565b5090565b8181016fffffffffffffffffffffffffffffffff8083169082161015613d73576040517f08c379a0000000000000000000000000000000000000000000000000000000008152600401610657906151fe565b92915050565b600083602001516fffffffffffffffffffffffffffffffff1660001415613da1575081613cca565b602084015184516fffffffffffffffffffffffffffffffff91821691613dc991869116614137565b81613dd057fe5b049050818015613cba57508284600001516fffffffffffffffffffffffffffffffff16613cb086602001516fffffffffffffffffffffffffffffffff168461413790919063ffffffff16565b73ffffffffffffffffffffffffffffffffffffffff81166000818152600a60205260408082205490517f70a082310000000000000000000000000000000000000000000000000000000081529192613d73927001000000000000000000000000000000009092046fffffffffffffffffffffffffffffffff16916370a0823190613eaa903090600401614ce2565b60206040518083038186803b158015613ec257600080fd5b505afa158015613ed6573d6000803e3d6000fd5b505050506040513d601f19601f82011682018060405250810190613efa9190614ad1565b90613f3d565b80820382811115613d73576040517f08c379a00000000000000000000000000000000000000000000000000000000081526004016106579061500f565b81810181811015613d73576040517f08c379a0000000000000000000000000000000000000000000000000000000008152600401610657906151fe565b600060608573ffffffffffffffffffffffffffffffffffffffff166323b872dd60e01b868686604051602401613fb293929190614e3f565b604080517fffffffffffffffffffffffffffffffffffffffffffffffffffffffffffffffe08184030181529181526020820180517bffffffffffffffffffffffffffffffffffffffffffffffffffffffff167fffffffff0000000000000000000000000000000000000000000000000000000090941693909317909252905161403b9190614c9c565b6000604051808303816000865af19150503d8060008114614078576040519150601f19603f3d011682016040523d82523d6000602084013e61407d565b606091505b50915091508180156140a75750805115806140a75750808060200190518101906140a791906146f2565b6140dd576040517f08c379a0000000000000000000000000000000000000000000000000000000008152600401610657906154c3565b505050505050565b8082036fffffffffffffffffffffffffffffffff8084169082161115613d73576040517f08c379a00000000000000000000000000000000000000000000000000000000081526004016106579061500f565b60008115806141525750508082028282828161414f57fe5b04145b613d73576040517f08c379a0000000000000000000000000000000000000000000000000000000008152600401610657906155d4565b600060608473ffffffffffffffffffffffffffffffffffffffff1663a9059cbb60e01b85856040516024016141be929190614ebe565b604080517fffffffffffffffffffffffffffffffffffffffffffffffffffffffffffffffe08184030181529181526020820180517bffffffffffffffffffffffffffffffffffffffffffffffffffffffff167fffffffff000000000000000000000000000000000000000000000000000000009094169390931790925290516142479190614c9c565b6000604051808303816000865af19150503d8060008114614284576040519150601f19603f3d011682016040523d82523d6000602084013e614289565b606091505b50915091508180156142b35750805115806142b35750808060200190518101906142b391906146f2565b6142e9576040517f08c379a0000000000000000000000000000000000000000000000000000000008152600401610657906150eb565b5050505050565b600067ffffffffffffffff821115613d1d576040517f08c379a00000000000000000000000000000000000000000000000000000000081526004016106579061537b565b600061435c61434283613cd1565b84546fffffffffffffffffffffffffffffffff1690613d21565b83547fffffffffffffffffffffffffffffffff00000000000000000000000000000000166fffffffffffffffffffffffffffffffff919091169081179093555090919050565b600061435c6143b083613cd1565b84546fffffffffffffffffffffffffffffffff16906140e5565b6060604482511015614410575060408051808201909152601d81527f5472616e73616374696f6e2072657665727465642073696c656e746c79000000602082015261442a565b60048201915081806020019051810190613d739190614ae9565b919050565b604080518082019091526000808252602082015290565b604080516060810182526000808252602082018190529181019190915290565b60008083601f840112614477578182fd5b50813567ffffffffffffffff81111561448e578182fd5b60208301915083602080830285010111156144a857600080fd5b9250929050565b60008083601f8401126144c0578182fd5b50813567ffffffffffffffff8111156144d7578182fd5b6020830191508360208285010111156144a857600080fd5b8035613d73816157b9565b803560ff81168114613d7357600080fd5b60006020828403121561451c578081fd5b8135613cca816157b9565b60008060408385031215614539578081fd5b8235614544816157b9565b91506020830135614554816157b9565b809150509250929050565b60008060008060008060c08789031215614577578182fd5b8635614582816157b9565b95506020870135614592816157b9565b945060408701356145a2816157de565b93506145b188606089016144fa565b92506080870135915060a087013590509295509295509295565b600080604083850312156145dd578182fd5b82356145e8816157b9565b91506020830135614554816157de565b60008060006060848603121561460c578283fd5b8335614617816157b9565b92506020840135614627816157de565b91506040840135614637816157de565b809150509250925092565b60008060008060608587031215614657578384fd5b8435614662816157b9565b9350602085013567ffffffffffffffff81111561467d578384fd5b614689878288016144af565b909450925050604085013561469d816157de565b939692955090935050565b6000806000604084860312156146bc578081fd5b833567ffffffffffffffff8111156146d2578182fd5b6146de86828701614466565b9094509250506020840135614637816157de565b600060208284031215614703578081fd5b8151613cca816157de565b600080600080600080600080600060a08a8c03121561472b578687fd5b8935614736816157b9565b985060208a013567ffffffffffffffff80821115614752578889fd5b61475e8d838e01614466565b909a50985060408c0135915080821115614776578485fd5b6147828d838e01614466565b909850965060608c013591508082111561479a578485fd5b6147a68d838e01614466565b909650945060808c01359150808211156147be578384fd5b506147cb8c828d016144af565b915080935050809150509295985092959850929598565b60008060408385031215614539578182fd5b60008060008060808587031215614809578182fd5b8435614814816157b9565b93506020850135614824816157b9565b92506040850135614834816157b9565b9396929550929360600135925050565b600080600080600060a0868803121561485b578283fd5b8535614866816157b9565b94506020860135614876816157b9565b93506040860135614886816157b9565b94979396509394606081013594506080013592915050565b600080600080600080600080610100898b0312156148ba578182fd5b88356148c5816157b9565b975060208901356148d5816157b9565b965060408901356148e5816157b9565b955060608901359450608089013593506149028a60a08b016144fa565b925060c0890135915060e089013590509295985092959890939650565b60008060008060008060808789031215614937578384fd5b8635614942816157b9565b95506020870135614952816157b9565b9450604087013567ffffffffffffffff8082111561496e578586fd5b61497a8a838b01614466565b90965094506060890135915080821115614992578384fd5b5061499f89828a01614466565b979a9699509497509295939492505050565b6000806000606084860312156149c5578081fd5b83356149d0816157b9565b925060208401356149e0816157de565b929592945050506040919091013590565b600080600060608486031215614a05578081fd5b8335614a10816157b9565b9250602084013591506040840135614637816157de565b60008060408385031215614a39578182fd5b8235614a44816157b9565b9150602083013567ffffffffffffffff81168114614554578182fd5b60008060008060008060a08789031215614a78578384fd5b8635614a83816157b9565b95506020870135614a93816157b9565b94506040870135614aa3816157b9565b935060608701359250608087013567ffffffffffffffff811115614ac5578283fd5b61499f89828a016144af565b600060208284031215614ae2578081fd5b5051919050565b600060208284031215614afa578081fd5b815167ffffffffffffffff80821115614b11578283fd5b818401915084601f830112614b24578283fd5b815181811115614b32578384fd5b60405160207fffffffffffffffffffffffffffffffffffffffffffffffffffffffffffffffe0601f8401168201018181108482111715614b70578586fd5b604052818152838201602001871015614b87578485fd5b614b98826020830160208701615789565b9695505050505050565b73ffffffffffffffffffffffffffffffffffffffff16815260200190565b6000815180845260208085019450808401835b83811015614bef57815187529582019590820190600101614bd3565b509495945050505050565b600082845282826020860137806020848601015260207fffffffffffffffffffffffffffffffffffffffffffffffffffffffffffffffe0601f85011685010190509392505050565b60008151808452614c5a816020860160208601615789565b601f017fffffffffffffffffffffffffffffffffffffffffffffffffffffffffffffffe0169290920160200192915050565b6000828483379101908152919050565b60008251614cae818460208701615789565b9190910192915050565b60008451614cca818460208901615789565b91909101928352506020820152604001919050565b90565b73ffffffffffffffffffffffffffffffffffffffff91909116815260200190565b600060a0820173ffffffffffffffffffffffffffffffffffffffff8b168352602060a08185015281614d358b846156b8565b90508b9250835b8b811015614d6757828401614d5a83614d5583886144ef565b614ba2565b9094509150600101614d3c565b508481036040860152614d7a89826156b8565b9250507f07ffffffffffffffffffffffffffffffffffffffffffffffffffffffffffffff881115614da9578283fd5b8702614db681838b61577d565b018281036060840152614dc98187614bc0565b90508281036080840152614dde818587614bfa565b9b9a5050505050505050505050565b600073ffffffffffffffffffffffffffffffffffffffff808916835280881660208401525085604083015284606083015260a06080830152614e3360a083018486614bfa565b98975050505050505050565b73ffffffffffffffffffffffffffffffffffffffff9384168152919092166020820152604081019190915260600190565b73ffffffffffffffffffffffffffffffffffffffff97881681529590961660208601526040850193909352606084019190915260ff16608083015260a082015260c081019190915260e00190565b73ffffffffffffffffffffffffffffffffffffffff929092168252602082015260400190565b604080825283519082018190526000906020906060840190828701845b82811015614f1f578151151584529284019290840190600101614f01565b50505083810382850152808551614f3681846156b8565b91508192508381028201848801865b83811015614f6f578583038552614f5d838351614c42565b94870194925090860190600101614f45565b50909998505050505050505050565b901515815260200190565b958652602086019490945273ffffffffffffffffffffffffffffffffffffffff9283166040860152911660608401521515608083015260a082015260c00190565b93845260ff9290921660208401526040830152606082015260800190565b60006020825261174b602083018486614bfa565b600060208252613cca6020830184614c42565b60208082526015908201527f426f72696e674d6174683a20556e646572666c6f770000000000000000000000604082015260600190565b60208082526017908201527f42656e746f426f783a20536b696d20746f6f206d756368000000000000000000604082015260600190565b6020808252601c908201527f4d6173746572434d67723a2043616e6e6f7420617070726f7665203000000000604082015260600190565b6020808252601b908201527f4d6173746572434d67723a2075736572206e6f742073656e6465720000000000604082015260600190565b6020808252601c908201527f426f72696e6745524332303a205472616e73666572206661696c656400000000604082015260600190565b60208082526016908201527f42656e746f426f783a2063616e6e6f7420656d70747900000000000000000000604082015260600190565b60208082526015908201527f4f776e61626c653a207a65726f20616464726573730000000000000000000000604082015260600190565b60208082526013908201527f42656e746f426f783a204e6f20746f6b656e7300000000000000000000000000604082015260600190565b6020808252601c908201527f426f72696e674d6174683a2075696e74313238204f766572666c6f7700000000604082015260600190565b60208082526018908201527f426f72696e674d6174683a20416464204f766572666c6f770000000000000000604082015260600190565b60208082526017908201527f42656e746f426f783a20746f5b305d206e6f7420736574000000000000000000604082015260600190565b60208082526014908201527f42656e746f426f783a20746f206e6f7420736574000000000000000000000000604082015260600190565b6020808252601a908201527f53747261746567794d616e616765723a20546f6f206561726c79000000000000604082015260600190565b6020808252818101527f4f776e61626c653a2063616c6c6572206973206e6f7420746865206f776e6572604082015260600190565b6020808252601f908201527f42656e746f426f783a205472616e73666572206e6f7420617070726f76656400604082015260600190565b6020808252818101527f4f776e61626c653a2063616c6c657220213d2070656e64696e67206f776e6572604082015260600190565b6020808252601b908201527f426f72696e674d6174683a2075696e743634204f766572666c6f770000000000604082015260600190565b60208082526019908201527f4d6173746572434d67723a207573657220697320636c6f6e6500000000000000604082015260600190565b6020808252601d908201527f4d6173746572434d67723a20496e76616c6964205369676e6174757265000000604082015260600190565b6020808252818101527f426f72696e67466163746f72793a204e6f206d6173746572436f6e7472616374604082015260600190565b6020808252601b908201527f4d6173746572434d67723a206d617374657243206e6f74207365740000000000604082015260600190565b6020808252601b908201527f42656e746f426f783a206e6f206d6173746572436f6e74726163740000000000604082015260600190565b6020808252818101527f426f72696e6745524332303a205472616e7366657246726f6d206661696c6564604082015260600190565b6020808252601c908201527f4d6173746572434d67723a20557365722063616e6e6f74206265203000000000604082015260600190565b60208082526016908201527f42656e746f426f783a2057726f6e6720616d6f756e7400000000000000000000604082015260600190565b6020808252601b908201527f4d6173746572434d67723a206e6f742077686974656c69737465640000000000604082015260600190565b6020808252601d908201527f42656e746f426f783a20455448207472616e73666572206661696c6564000000604082015260600190565b60208082526018908201527f426f72696e674d6174683a204d756c204f766572666c6f770000000000000000604082015260600190565b6020808252818101527f53747261746567794d616e616765723a2054617267657420746f6f2068696768604082015260600190565b6fffffffffffffffffffffffffffffffff91909116815260200190565b6fffffffffffffffffffffffffffffffff92909216825273ffffffffffffffffffffffffffffffffffffffff16602082015260400190565b6fffffffffffffffffffffffffffffffff92831681529116602082015260400190565b90815260200190565b918252602082015260400190565b67ffffffffffffffff91909116815260200190565b67ffffffffffffffff93841681529190921660208201526fffffffffffffffffffffffffffffffff909116604082015260600190565b60008083357fffffffffffffffffffffffffffffffffffffffffffffffffffffffffffffffe184360301811261574e578283fd5b83018035915067ffffffffffffffff821115615768578283fd5b6020019150368190038213156144a857600080fd5b82818337506000910152565b60005b838110156157a457818101518382015260200161578c565b838111156157b3576000848401525b50505050565b73ffffffffffffffffffffffffffffffffffffffff811681146157db57600080fd5b50565b80151581146157db57600080fdfea26469706673582212209bdb2509320e7d76d4a4b20ebafe32c3fb1017826ea30c03872c62e006a9f01a64736f6c634300060c0033"
}