{
    "address": "0x48DE196D933CB1dE6AE37b0911b65FC80033D95C",
    "abi": [
        {
            "inputs": [
                {
                    "internalType": "contract IMasterChef",
                    "name": "chef_",
                    "type": "address"
                },
                {
                    "internalType": "address",
                    "name": "maker_",
                    "type": "address"
                },
                {
                    "internalType": "contract IERC20",
                    "name": "sushi_",
                    "type": "address"
                },
                {
                    "internalType": "contract IERC20",
                    "name": "WETH_",
                    "type": "address"
                },
                {
                    "internalType": "contract IERC20",
                    "name": "WBTC_",
                    "type": "address"
                },
                {
                    "internalType": "contract IFactory",
                    "name": "sushiFactory_",
                    "type": "address"
                },
                {
                    "internalType": "contract IFactory",
                    "name": "uniV2Factory_",
                    "type": "address"
                },
                {
                    "internalType": "contract IERC20",
                    "name": "bar_",
                    "type": "address"
                },
                {
                    "internalType": "contract IBentoBox",
                    "name": "bentoBox_",
                    "type": "address"
                }
            ],
            "stateMutability": "nonpayable",
            "type": "constructor"
        },
        {
            "inputs": [],
            "name": "WBTC",
            "outputs": [
                {
                    "internalType": "contract IERC20",
                    "name": "",
                    "type": "address"
                }
            ],
            "stateMutability": "view",
            "type": "function"
        },
        {
            "inputs": [],
            "name": "WETH",
            "outputs": [
                {
                    "internalType": "contract IERC20",
                    "name": "",
                    "type": "address"
                }
            ],
            "stateMutability": "view",
            "type": "function"
        },
        {
            "inputs": [],
            "name": "bar",
            "outputs": [
                {
                    "internalType": "contract IERC20",
                    "name": "",
                    "type": "address"
                }
            ],
            "stateMutability": "view",
            "type": "function"
        },
        {
            "inputs": [],
            "name": "bentoBox",
            "outputs": [
                {
                    "internalType": "contract IBentoBox",
                    "name": "",
                    "type": "address"
                }
            ],
            "stateMutability": "view",
            "type": "function"
        },
        {
            "inputs": [],
            "name": "chef",
            "outputs": [
                {
                    "internalType": "contract IMasterChef",
                    "name": "",
                    "type": "address"
                }
            ],
            "stateMutability": "view",
            "type": "function"
        },
        {
            "inputs": [
                {
                    "internalType": "address",
                    "name": "who",
                    "type": "address"
                },
                {
                    "internalType": "address[]",
                    "name": "addresses",
                    "type": "address[]"
                }
            ],
            "name": "findBalances",
            "outputs": [
                {
                    "components": [
                        {
                            "internalType": "contract IERC20",
                            "name": "token",
                            "type": "address"
                        },
                        {
                            "internalType": "uint256",
                            "name": "balance",
                            "type": "uint256"
                        },
                        {
                            "internalType": "uint256",
                            "name": "bentoBalance",
                            "type": "uint256"
                        }
                    ],
                    "internalType": "struct BoringHelperV1.Balance[]",
                    "name": "",
                    "type": "tuple[]"
                }
            ],
            "stateMutability": "view",
            "type": "function"
        },
        {
            "inputs": [
                {
                    "internalType": "address",
                    "name": "who",
                    "type": "address"
                },
                {
                    "internalType": "uint256[]",
                    "name": "pids",
                    "type": "uint256[]"
                }
            ],
            "name": "findPools",
            "outputs": [
                {
                    "components": [
                        {
                            "internalType": "uint256",
                            "name": "pid",
                            "type": "uint256"
                        },
                        {
                            "internalType": "uint256",
                            "name": "balance",
                            "type": "uint256"
                        }
                    ],
                    "internalType": "struct BoringHelperV1.PoolFound[]",
                    "name": "",
                    "type": "tuple[]"
                }
            ],
            "stateMutability": "view",
            "type": "function"
        },
        {
            "inputs": [
                {
                    "internalType": "address",
                    "name": "who",
                    "type": "address"
                },
                {
                    "internalType": "contract IERC20[]",
                    "name": "addresses",
                    "type": "address[]"
                }
            ],
            "name": "getBalances",
            "outputs": [
                {
                    "components": [
                        {
                            "internalType": "contract IERC20",
                            "name": "token",
                            "type": "address"
                        },
                        {
                            "internalType": "uint256",
                            "name": "totalSupply",
                            "type": "uint256"
                        },
                        {
                            "internalType": "uint256",
                            "name": "balance",
                            "type": "uint256"
                        },
                        {
                            "internalType": "uint256",
                            "name": "bentoBalance",
                            "type": "uint256"
                        },
                        {
                            "internalType": "uint256",
                            "name": "bentoAllowance",
                            "type": "uint256"
                        },
                        {
                            "internalType": "uint256",
                            "name": "nonce",
                            "type": "uint256"
                        },
                        {
                            "internalType": "uint128",
                            "name": "bentoAmount",
                            "type": "uint128"
                        },
                        {
                            "internalType": "uint128",
                            "name": "bentoShare",
                            "type": "uint128"
                        },
                        {
                            "internalType": "uint256",
                            "name": "rate",
                            "type": "uint256"
                        }
                    ],
                    "internalType": "struct BoringHelperV1.BalanceFull[]",
                    "name": "",
                    "type": "tuple[]"
                }
            ],
            "stateMutability": "view",
            "type": "function"
        },
        {
            "inputs": [
                {
                    "internalType": "contract IERC20",
                    "name": "token",
                    "type": "address"
                }
            ],
            "name": "getETHRate",
            "outputs": [
                {
                    "internalType": "uint256",
                    "name": "",
                    "type": "uint256"
                }
            ],
            "stateMutability": "view",
            "type": "function"
        },
        {
            "inputs": [
                {
                    "internalType": "contract IFactory",
                    "name": "factory",
                    "type": "address"
                },
                {
                    "internalType": "uint256",
                    "name": "fromID",
                    "type": "uint256"
                },
                {
                    "internalType": "uint256",
                    "name": "toID",
                    "type": "uint256"
                }
            ],
            "name": "getPairs",
            "outputs": [
                {
                    "components": [
                        {
                            "internalType": "contract IPair",
                            "name": "token",
                            "type": "address"
                        },
                        {
                            "internalType": "contract IERC20",
                            "name": "token0",
                            "type": "address"
                        },
                        {
                            "internalType": "contract IERC20",
                            "name": "token1",
                            "type": "address"
                        },
                        {
                            "internalType": "uint256",
                            "name": "totalSupply",
                            "type": "uint256"
                        }
                    ],
                    "internalType": "struct BoringHelperV1.PairBase[]",
                    "name": "",
                    "type": "tuple[]"
                }
            ],
            "stateMutability": "view",
            "type": "function"
        },
        {
            "inputs": [
                {
                    "internalType": "uint256[]",
                    "name": "pids",
                    "type": "uint256[]"
                }
            ],
            "name": "getPools",
            "outputs": [
                {
                    "components": [
                        {
                            "internalType": "uint256",
                            "name": "totalAllocPoint",
                            "type": "uint256"
                        },
                        {
                            "internalType": "uint256",
                            "name": "poolLength",
                            "type": "uint256"
                        }
                    ],
                    "internalType": "struct BoringHelperV1.PoolsInfo",
                    "name": "",
                    "type": "tuple"
                },
                {
                    "components": [
                        {
                            "internalType": "uint256",
                            "name": "pid",
                            "type": "uint256"
                        },
                        {
                            "internalType": "contract IPair",
                            "name": "lpToken",
                            "type": "address"
                        },
                        {
                            "internalType": "uint256",
                            "name": "allocPoint",
                            "type": "uint256"
                        },
                        {
                            "internalType": "bool",
                            "name": "isPair",
                            "type": "bool"
                        },
                        {
                            "internalType": "contract IFactory",
                            "name": "factory",
                            "type": "address"
                        },
                        {
                            "internalType": "contract IERC20",
                            "name": "token0",
                            "type": "address"
                        },
                        {
                            "internalType": "contract IERC20",
                            "name": "token1",
                            "type": "address"
                        },
                        {
                            "internalType": "string",
                            "name": "name",
                            "type": "string"
                        },
                        {
                            "internalType": "string",
                            "name": "symbol",
                            "type": "string"
                        },
                        {
                            "internalType": "uint8",
                            "name": "decimals",
                            "type": "uint8"
                        }
                    ],
                    "internalType": "struct BoringHelperV1.PoolInfo[]",
                    "name": "",
                    "type": "tuple[]"
                }
            ],
            "stateMutability": "view",
            "type": "function"
        },
        {
            "inputs": [
                {
                    "internalType": "address[]",
                    "name": "addresses",
                    "type": "address[]"
                }
            ],
            "name": "getTokenInfo",
            "outputs": [
                {
                    "components": [
                        {
                            "internalType": "contract IERC20",
                            "name": "token",
                            "type": "address"
                        },
                        {
                            "internalType": "uint256",
                            "name": "decimals",
                            "type": "uint256"
                        },
                        {
                            "internalType": "string",
                            "name": "name",
                            "type": "string"
                        },
                        {
                            "internalType": "string",
                            "name": "symbol",
                            "type": "string"
                        },
                        {
                            "internalType": "bytes32",
                            "name": "DOMAIN_SEPARATOR",
                            "type": "bytes32"
                        }
                    ],
                    "internalType": "struct BoringHelperV1.TokenInfo[]",
                    "name": "",
                    "type": "tuple[]"
                }
            ],
            "stateMutability": "view",
            "type": "function"
        },
        {
            "inputs": [
                {
                    "internalType": "address",
                    "name": "who",
                    "type": "address"
                },
                {
                    "internalType": "contract IFactory[]",
                    "name": "factoryAddresses",
                    "type": "address[]"
                },
                {
                    "internalType": "contract IERC20",
                    "name": "currency",
                    "type": "address"
                },
                {
                    "internalType": "address[]",
                    "name": "masterContracts",
                    "type": "address[]"
                }
            ],
            "name": "getUIInfo",
            "outputs": [
                {
                    "components": [
                        {
                            "internalType": "uint256",
                            "name": "ethBalance",
                            "type": "uint256"
                        },
                        {
                            "internalType": "uint256",
                            "name": "sushiBalance",
                            "type": "uint256"
                        },
                        {
                            "internalType": "uint256",
                            "name": "sushiBarBalance",
                            "type": "uint256"
                        },
                        {
                            "internalType": "uint256",
                            "name": "xsushiBalance",
                            "type": "uint256"
                        },
                        {
                            "internalType": "uint256",
                            "name": "xsushiSupply",
                            "type": "uint256"
                        },
                        {
                            "internalType": "uint256",
                            "name": "sushiBarAllowance",
                            "type": "uint256"
                        },
                        {
                            "components": [
                                {
                                    "internalType": "contract IFactory",
                                    "name": "factory",
                                    "type": "address"
                                },
                                {
                                    "internalType": "uint256",
                                    "name": "allPairsLength",
                                    "type": "uint256"
                                }
                            ],
                            "internalType": "struct BoringHelperV1.Factory[]",
                            "name": "factories",
                            "type": "tuple[]"
                        },
                        {
                            "internalType": "uint256",
                            "name": "ethRate",
                            "type": "uint256"
                        },
                        {
                            "internalType": "uint256",
                            "name": "sushiRate",
                            "type": "uint256"
                        },
                        {
                            "internalType": "uint256",
                            "name": "btcRate",
                            "type": "uint256"
                        },
                        {
                            "internalType": "uint256",
                            "name": "pendingSushi",
                            "type": "uint256"
                        },
                        {
                            "internalType": "uint256",
                            "name": "blockTimeStamp",
                            "type": "uint256"
                        },
                        {
                            "internalType": "bool[]",
                            "name": "masterContractApproved",
                            "type": "bool[]"
                        }
                    ],
                    "internalType": "struct BoringHelperV1.UIInfo",
                    "name": "",
                    "type": "tuple"
                }
            ],
            "stateMutability": "view",
            "type": "function"
        },
        {
            "inputs": [],
            "name": "maker",
            "outputs": [
                {
                    "internalType": "address",
                    "name": "",
                    "type": "address"
                }
            ],
            "stateMutability": "view",
            "type": "function"
        },
        {
            "inputs": [],
            "name": "owner",
            "outputs": [
                {
                    "internalType": "address",
                    "name": "",
                    "type": "address"
                }
            ],
            "stateMutability": "view",
            "type": "function"
        },
        {
            "inputs": [
                {
                    "internalType": "address",
                    "name": "who",
                    "type": "address"
                },
                {
                    "internalType": "contract IKashiPair[]",
                    "name": "pairsIn",
                    "type": "address[]"
                }
            ],
            "name": "pollKashiPairs",
            "outputs": [
                {
                    "components": [
                        {
                            "internalType": "contract IERC20",
                            "name": "collateral",
                            "type": "address"
                        },
                        {
                            "internalType": "contract IERC20",
                            "name": "asset",
                            "type": "address"
                        },
                        {
                            "internalType": "contract IOracle",
                            "name": "oracle",
                            "type": "address"
                        },
                        {
                            "internalType": "bytes",
                            "name": "oracleData",
                            "type": "bytes"
                        },
                        {
                            "internalType": "uint256",
                            "name": "totalCollateralShare",
                            "type": "uint256"
                        },
                        {
                            "internalType": "uint256",
                            "name": "userCollateralShare",
                            "type": "uint256"
                        },
                        {
                            "components": [
                                {
                                    "internalType": "uint128",
                                    "name": "elastic",
                                    "type": "uint128"
                                },
                                {
                                    "internalType": "uint128",
                                    "name": "base",
                                    "type": "uint128"
                                }
                            ],
                            "internalType": "struct Rebase",
                            "name": "totalAsset",
                            "type": "tuple"
                        },
                        {
                            "internalType": "uint256",
                            "name": "userAssetFraction",
                            "type": "uint256"
                        },
                        {
                            "components": [
                                {
                                    "internalType": "uint128",
                                    "name": "elastic",
                                    "type": "uint128"
                                },
                                {
                                    "internalType": "uint128",
                                    "name": "base",
                                    "type": "uint128"
                                }
                            ],
                            "internalType": "struct Rebase",
                            "name": "totalBorrow",
                            "type": "tuple"
                        },
                        {
                            "internalType": "uint256",
                            "name": "userBorrowPart",
                            "type": "uint256"
                        },
                        {
                            "internalType": "uint256",
                            "name": "currentExchangeRate",
                            "type": "uint256"
                        },
                        {
                            "internalType": "uint256",
                            "name": "spotExchangeRate",
                            "type": "uint256"
                        },
                        {
                            "internalType": "uint256",
                            "name": "oracleExchangeRate",
                            "type": "uint256"
                        },
                        {
                            "components": [
                                {
                                    "internalType": "uint64",
                                    "name": "interestPerSecond",
                                    "type": "uint64"
                                },
                                {
                                    "internalType": "uint64",
                                    "name": "lastAccrued",
                                    "type": "uint64"
                                },
                                {
                                    "internalType": "uint128",
                                    "name": "feesEarnedFraction",
                                    "type": "uint128"
                                }
                            ],
                            "internalType": "struct AccrueInfo",
                            "name": "accrueInfo",
                            "type": "tuple"
                        }
                    ],
                    "internalType": "struct BoringHelperV1.KashiPairPoll[]",
                    "name": "",
                    "type": "tuple[]"
                }
            ],
            "stateMutability": "view",
            "type": "function"
        },
        {
            "inputs": [
                {
                    "internalType": "address",
                    "name": "who",
                    "type": "address"
                },
                {
                    "internalType": "contract IPair[]",
                    "name": "addresses",
                    "type": "address[]"
                }
            ],
            "name": "pollPairs",
            "outputs": [
                {
                    "components": [
                        {
                            "internalType": "contract IPair",
                            "name": "token",
                            "type": "address"
                        },
                        {
                            "internalType": "uint256",
                            "name": "reserve0",
                            "type": "uint256"
                        },
                        {
                            "internalType": "uint256",
                            "name": "reserve1",
                            "type": "uint256"
                        },
                        {
                            "internalType": "uint256",
                            "name": "totalSupply",
                            "type": "uint256"
                        },
                        {
                            "internalType": "uint256",
                            "name": "balance",
                            "type": "uint256"
                        }
                    ],
                    "internalType": "struct BoringHelperV1.PairPoll[]",
                    "name": "",
                    "type": "tuple[]"
                }
            ],
            "stateMutability": "view",
            "type": "function"
        },
        {
            "inputs": [
                {
                    "internalType": "address",
                    "name": "who",
                    "type": "address"
                },
                {
                    "internalType": "uint256[]",
                    "name": "pids",
                    "type": "uint256[]"
                }
            ],
            "name": "pollPools",
            "outputs": [
                {
                    "components": [
                        {
                            "internalType": "uint256",
                            "name": "pid",
                            "type": "uint256"
                        },
                        {
                            "internalType": "uint256",
                            "name": "balance",
                            "type": "uint256"
                        },
                        {
                            "internalType": "uint256",
                            "name": "totalSupply",
                            "type": "uint256"
                        },
                        {
                            "internalType": "uint256",
                            "name": "lpBalance",
                            "type": "uint256"
                        },
                        {
                            "internalType": "uint256",
                            "name": "lpTotalSupply",
                            "type": "uint256"
                        },
                        {
                            "internalType": "uint256",
                            "name": "lpAllowance",
                            "type": "uint256"
                        },
                        {
                            "internalType": "uint256",
                            "name": "reserve0",
                            "type": "uint256"
                        },
                        {
                            "internalType": "uint256",
                            "name": "reserve1",
                            "type": "uint256"
                        },
                        {
                            "internalType": "uint256",
                            "name": "rewardDebt",
                            "type": "uint256"
                        },
                        {
                            "internalType": "uint256",
                            "name": "pending",
                            "type": "uint256"
                        }
                    ],
                    "internalType": "struct BoringHelperV1.UserPoolInfo[]",
                    "name": "",
                    "type": "tuple[]"
                }
            ],
            "stateMutability": "view",
            "type": "function"
        },
        {
            "inputs": [
                {
                    "internalType": "contract IMasterChef",
                    "name": "chef_",
                    "type": "address"
                },
                {
                    "internalType": "address",
                    "name": "maker_",
                    "type": "address"
                },
                {
                    "internalType": "contract IERC20",
                    "name": "sushi_",
                    "type": "address"
                },
                {
                    "internalType": "contract IERC20",
                    "name": "WETH_",
                    "type": "address"
                },
                {
                    "internalType": "contract IERC20",
                    "name": "WBTC_",
                    "type": "address"
                },
                {
                    "internalType": "contract IFactory",
                    "name": "sushiFactory_",
                    "type": "address"
                },
                {
                    "internalType": "contract IFactory",
                    "name": "uniV2Factory_",
                    "type": "address"
                },
                {
                    "internalType": "contract IERC20",
                    "name": "bar_",
                    "type": "address"
                },
                {
                    "internalType": "contract IBentoBox",
                    "name": "bentoBox_",
                    "type": "address"
                }
            ],
            "name": "setContracts",
            "outputs": [],
            "stateMutability": "nonpayable",
            "type": "function"
        },
        {
            "inputs": [],
            "name": "sushi",
            "outputs": [
                {
                    "internalType": "contract IERC20",
                    "name": "",
                    "type": "address"
                }
            ],
            "stateMutability": "view",
            "type": "function"
        },
        {
            "inputs": [],
            "name": "sushiFactory",
            "outputs": [
                {
                    "internalType": "contract IFactory",
                    "name": "",
                    "type": "address"
                }
            ],
            "stateMutability": "view",
            "type": "function"
        },
        {
            "inputs": [],
            "name": "uniV2Factory",
            "outputs": [
                {
                    "internalType": "contract IFactory",
                    "name": "",
                    "type": "address"
                }
            ],
            "stateMutability": "view",
            "type": "function"
        }
    ],
    "transactionHash": "0xa3b6c7b9f2cbf04b77cee3530badc38c773e59433736631730695bcd8a7cfc04",
    "args": [
        "0x80C7DD17B01855a6D2347444a0FCC36136a314de",
        "0x1b9d177CcdeA3c79B6c8F40761fc8Dc9d0500EAa",
        "0x0769fd68dFb93167989C6f7254cd0D766Fb2841F",
        "0xc778417E063141139Fce010982780140Aa0cD5Ab",
        "0xbde8bb00a7ef67007a96945b3a3621177b615c44",
        "0xc35DADB65012eC5796536bD9864eD8773aBc74C4",
        "0x5C69bEe701ef814a2B6a3EDD4B1652CB9cc5aA6f",
        "0x1be211D8DA40BC0ae8719c6663307Bfc987b1d6c",
        "0x41F00fb5bCc6Cd212954a4d8de58B06abc9ef168"
    ],
    "solcInputHash": "febae64eacf3d45bae2b7fb2b45a6ca9",
    "bytecode": "0x60a06040523480156200001157600080fd5b5060405162005abb38038062005abb8339810160408190526200003491620000dc565b3360601b608052600080546001600160a01b03199081166001600160a01b039b8c1617909155600180548216998b1699909917909855600280548916978a16979097179096556003805488169589169590951790945560048054871693881693909317909255600580548616918716919091179055600680548516918616919091179055600780548416918516919091179055600880549092169216919091179055620001cb565b60008060008060008060008060006101208a8c031215620000fb578485fd5b89516200010881620001b2565b60208b01519099506200011b81620001b2565b60408b01519098506200012e81620001b2565b60608b01519097506200014181620001b2565b60808b01519096506200015481620001b2565b60a08b01519095506200016781620001b2565b60c08b01519094506200017a81620001b2565b60e08b01519093506200018d81620001b2565b6101008b0151909250620001a181620001b2565b809150509295985092959850929598565b6001600160a01b0381168114620001c857600080fd5b50565b60805160601c6158cd620001ee6000398061358652806135aa52506158cd6000f3fe608060405234801561001057600080fd5b50600436106101825760003560e01c80635ec54659116100d8578063a88830601161008c578063ad5c464811610066578063ad5c464814610333578063ca0f937c1461033b578063febb0f7e1461035b57610182565b8063a8883060146102de578063a959dd80146102f3578063ac6091f81461031357610182565b80636b2ace87116100bd5780636b2ace87146102ae5780637e3e2596146102b65780638da5cb5b146102d657610182565b80635ec546591461026e5780636a385ae91461028e57610182565b806329a4a88e1161013a5780634a69ac50116101145780634a69ac501461023e5780634dede3de1461025e57806350655d8c1461026657610182565b806329a4a88e146101f65780633009f414146102165780633da04b871461023657610182565b80631fc8bc5d1161016b5780631fc8bc5d146101c557806322984b24146101cd5780632952dde8146101d557610182565b80630a0879031461018757806315243475146101a5575b600080fd5b61018f610363565b60405161019c9190614fe3565b60405180910390f35b6101b86101b3366004614a26565b61037f565b60405161019c91906156bd565b61018f610c25565b61018f610c41565b6101e86101e3366004614af8565b610c5d565b60405161019c92919061557d565b6102096102043660046149ec565b611298565b60405161019c9190615157565b6102296102243660046149ec565b611f05565b60405161019c919061549f565b61018f6125cb565b61025161024c366004614af8565b6125e7565b60405161019c91906153d5565b61018f61278b565b61018f6127a7565b61028161027c366004614976565b6127c3565b60405161019c919061579e565b6102a161029c3660046149ec565b612cf9565b60405161019c919061502b565b61018f6131d9565b6102c96102c4366004614bf0565b6131f5565b60405161019c91906152ac565b61018f613584565b6102f16102ec366004614c24565b6135a8565b005b6103066103013660046149ec565b6136e2565b60405161019c919061531e565b6103266103213660046149ec565b6139dd565b60405161019c9190615395565b61018f613b2b565b61034e610349366004614999565b613b47565b60405161019c91906150f5565b61018f613d80565b60025473ffffffffffffffffffffffffffffffffffffffff1681565b6103876144fc565b61038f6144fc565b73ffffffffffffffffffffffffffffffffffffffff88163181528567ffffffffffffffff811180156103c057600080fd5b506040519080825280602002602001820160405280156103fa57816020015b6103e7614564565b8152602001906001900390816103df5790505b5060c082015260005b8681101561052457600088888381811061041957fe5b905060200201602081019061042e9190614976565b9050808360c00151838151811061044157fe5b60200260200101516000019073ffffffffffffffffffffffffffffffffffffffff16908173ffffffffffffffffffffffffffffffffffffffff16815250508073ffffffffffffffffffffffffffffffffffffffff1663574f2ba36040518163ffffffff1660e01b815260040160206040518083038186803b1580156104c557600080fd5b505afa1580156104d9573d6000803e3d6000fd5b505050506040513d601f19601f820116820180604052508101906104fd9190614b89565b8360c00151838151811061050d57fe5b602090810291909101810151015250600101610403565b508267ffffffffffffffff8111801561053c57600080fd5b50604051908082528060200260200182016040528015610566578160200160208202803683370190505b5061018082015260005b8381101561064e5760085473ffffffffffffffffffffffffffffffffffffffff166391e0eab58686848181106105a257fe5b90506020020160208101906105b79190614976565b8b6040518363ffffffff1660e01b81526004016105d5929190615004565b60206040518083038186803b1580156105ed57600080fd5b505afa158015610601573d6000803e3d6000fd5b505050506040513d601f19601f820116820180604052508101906106259190614b38565b826101800151828151811061063657fe5b91151560209283029190910190910152600101610570565b5073ffffffffffffffffffffffffffffffffffffffff85161561067a57610674856127c3565b60e08201525b60045473ffffffffffffffffffffffffffffffffffffffff16156106c1576004546106ba9073ffffffffffffffffffffffffffffffffffffffff166127c3565b6101208201525b60025473ffffffffffffffffffffffffffffffffffffffff1615610917576002546107019073ffffffffffffffffffffffffffffffffffffffff166127c3565b6101008201526002546040517f70a0823100000000000000000000000000000000000000000000000000000000815273ffffffffffffffffffffffffffffffffffffffff909116906370a082319061075d908b90600401614fe3565b60206040518083038186803b15801561077557600080fd5b505afa158015610789573d6000803e3d6000fd5b505050506040513d601f19601f820116820180604052508101906107ad9190614b89565b60208201526002546007546040517f70a0823100000000000000000000000000000000000000000000000000000000815273ffffffffffffffffffffffffffffffffffffffff928316926370a082319261080c92911690600401614fe3565b60206040518083038186803b15801561082457600080fd5b505afa158015610838573d6000803e3d6000fd5b505050506040513d601f19601f8201168201806040525081019061085c9190614b89565b60408083019190915260025460075491517fdd62ed3e00000000000000000000000000000000000000000000000000000000815273ffffffffffffffffffffffffffffffffffffffff9182169263dd62ed3e926108c1928d9290911690600401615004565b60206040518083038186803b1580156108d957600080fd5b505afa1580156108ed573d6000803e3d6000fd5b505050506040513d601f19601f820116820180604052508101906109119190614b89565b60a08201525b60075473ffffffffffffffffffffffffffffffffffffffff1615610a89576007546040517f70a0823100000000000000000000000000000000000000000000000000000000815273ffffffffffffffffffffffffffffffffffffffff909116906370a082319061098b908b90600401614fe3565b60206040518083038186803b1580156109a357600080fd5b505afa1580156109b7573d6000803e3d6000fd5b505050506040513d601f19601f820116820180604052508101906109db9190614b89565b6060820152600754604080517f18160ddd000000000000000000000000000000000000000000000000000000008152905173ffffffffffffffffffffffffffffffffffffffff909216916318160ddd91600480820192602092909190829003018186803b158015610a4b57600080fd5b505afa158015610a5f573d6000803e3d6000fd5b505050506040513d601f19601f82011682018060405250810190610a839190614b89565b60808201525b60005473ffffffffffffffffffffffffffffffffffffffff1615610c135760008060009054906101000a900473ffffffffffffffffffffffffffffffffffffffff1673ffffffffffffffffffffffffffffffffffffffff1663081e3eda6040518163ffffffff1660e01b815260040160206040518083038186803b158015610b1057600080fd5b505afa158015610b24573d6000803e3d6000fd5b505050506040513d601f19601f82011682018060405250810190610b489190614b89565b90506000805b82811015610c0a576000546040517f195426ec00000000000000000000000000000000000000000000000000000000815273ffffffffffffffffffffffffffffffffffffffff9091169063195426ec90610bae9084908f906004016157a7565b60206040518083038186803b158015610bc657600080fd5b505afa158015610bda573d6000803e3d6000fd5b505050506040513d601f19601f82011682018060405250810190610bfe9190614b89565b90910190600101610b4e565b50610140830152505b42610160820152979650505050505050565b60005473ffffffffffffffffffffffffffffffffffffffff1681565b60055473ffffffffffffffffffffffffffffffffffffffff1681565b610c6561457b565b6060610c6f61457b565b60008054906101000a900473ffffffffffffffffffffffffffffffffffffffff1673ffffffffffffffffffffffffffffffffffffffff166317caf6f16040518163ffffffff1660e01b815260040160206040518083038186803b158015610cd557600080fd5b505afa158015610ce9573d6000803e3d6000fd5b505050506040513d601f19601f82011682018060405250810190610d0d9190614b89565b815260008054604080517f081e3eda000000000000000000000000000000000000000000000000000000008152905173ffffffffffffffffffffffffffffffffffffffff9092169163081e3eda91600480820192602092909190829003018186803b158015610d7b57600080fd5b505afa158015610d8f573d6000803e3d6000fd5b505050506040513d601f19601f82011682018060405250810190610db39190614b89565b60208301819052905060608567ffffffffffffffff81118015610dd557600080fd5b50604051908082528060200260200182016040528015610e0f57816020015b610dfc614595565b815260200190600190039081610df45790505b50905060005b8681101561128857878782818110610e2957fe5b90506020020135828281518110610e3c57fe5b60209081029190910101515260008054819073ffffffffffffffffffffffffffffffffffffffff16631526fe278b8b86818110610e7557fe5b905060200201356040518263ffffffff1660e01b8152600401610e98919061579e565b60806040518083038186803b158015610eb057600080fd5b505afa158015610ec4573d6000803e3d6000fd5b505050506040513d601f19601f82011682018060405250810190610ee89190614aba565b505091509150600082905080858581518110610f0057fe5b60200260200101516020019073ffffffffffffffffffffffffffffffffffffffff16908173ffffffffffffffffffffffffffffffffffffffff168152505081858581518110610f4b57fe5b60200260200101516040018181525050610f7a8173ffffffffffffffffffffffffffffffffffffffff16613d9c565b858581518110610f8657fe5b602002602001015160e00181905250610fb48173ffffffffffffffffffffffffffffffffffffffff16613eb4565b858581518110610fc057fe5b60200260200101516101000181905250610fef8173ffffffffffffffffffffffffffffffffffffffff16613f36565b858581518110610ffb57fe5b6020026020010151610120019060ff16908160ff16815250506110338173ffffffffffffffffffffffffffffffffffffffff1661402a565b85858151811061103f57fe5b60200260200101516080019073ffffffffffffffffffffffffffffffffffffffff16908173ffffffffffffffffffffffffffffffffffffffff1681525050600073ffffffffffffffffffffffffffffffffffffffff168585815181106110a157fe5b60200260200101516080015173ffffffffffffffffffffffffffffffffffffffff161461127d5760018585815181106110d657fe5b602002602001015160600190151590811515815250508073ffffffffffffffffffffffffffffffffffffffff16630dfe16816040518163ffffffff1660e01b815260040160206040518083038186803b15801561113257600080fd5b505afa158015611146573d6000803e3d6000fd5b505050506040513d601f19601f8201168201806040525081019061116a9190614bd4565b85858151811061117657fe5b602002602001015160a0019073ffffffffffffffffffffffffffffffffffffffff16908173ffffffffffffffffffffffffffffffffffffffff16815250508073ffffffffffffffffffffffffffffffffffffffff1663d21220a76040518163ffffffff1660e01b815260040160206040518083038186803b1580156111fa57600080fd5b505afa15801561120e573d6000803e3d6000fd5b505050506040513d601f19601f820116820180604052508101906112329190614bd4565b85858151811061123e57fe5b602002602001015160c0019073ffffffffffffffffffffffffffffffffffffffff16908173ffffffffffffffffffffffffffffffffffffffff16815250505b505050600101610e15565b50919350909150505b9250929050565b606081818167ffffffffffffffff811180156112b357600080fd5b506040519080825280602002602001820160405280156112ed57816020015b6112da6145e8565b8152602001906001900390816112d25790505b50905060005b82811015611efb57600086868381811061130957fe5b905060200201602081019061131e9190614976565b90508073ffffffffffffffffffffffffffffffffffffffff1663d8dfeb456040518163ffffffff1660e01b815260040160206040518083038186803b15801561136657600080fd5b505afa15801561137a573d6000803e3d6000fd5b505050506040513d601f19601f8201168201806040525081019061139e9190614bd4565b8383815181106113aa57fe5b60200260200101516000019073ffffffffffffffffffffffffffffffffffffffff16908173ffffffffffffffffffffffffffffffffffffffff16815250508073ffffffffffffffffffffffffffffffffffffffff166338d52e0f6040518163ffffffff1660e01b815260040160206040518083038186803b15801561142e57600080fd5b505afa158015611442573d6000803e3d6000fd5b505050506040513d601f19601f820116820180604052508101906114669190614bd4565b83838151811061147257fe5b60200260200101516020019073ffffffffffffffffffffffffffffffffffffffff16908173ffffffffffffffffffffffffffffffffffffffff16815250508073ffffffffffffffffffffffffffffffffffffffff16637dc0d1d06040518163ffffffff1660e01b815260040160206040518083038186803b1580156114f657600080fd5b505afa15801561150a573d6000803e3d6000fd5b505050506040513d601f19601f8201168201806040525081019061152e9190614bd4565b83838151811061153a57fe5b60200260200101516040019073ffffffffffffffffffffffffffffffffffffffff16908173ffffffffffffffffffffffffffffffffffffffff16815250508073ffffffffffffffffffffffffffffffffffffffff166374645ff36040518163ffffffff1660e01b815260040160006040518083038186803b1580156115be57600080fd5b505afa1580156115d2573d6000803e3d6000fd5b505050506040513d6000823e601f3d9081017fffffffffffffffffffffffffffffffffffffffffffffffffffffffffffffffe01682016040526116189190810190614ba1565b83838151811061162457fe5b6020026020010151606001819052508073ffffffffffffffffffffffffffffffffffffffff1663473e3ce76040518163ffffffff1660e01b815260040160206040518083038186803b15801561167957600080fd5b505afa15801561168d573d6000803e3d6000fd5b505050506040513d601f19601f820116820180604052508101906116b19190614b89565b8383815181106116bd57fe5b6020908102919091010151608001526040517f1c9e379b00000000000000000000000000000000000000000000000000000000815273ffffffffffffffffffffffffffffffffffffffff821690631c9e379b9061171e908b90600401614fe3565b60206040518083038186803b15801561173657600080fd5b505afa15801561174a573d6000803e3d6000fd5b505050506040513d601f19601f8201168201806040525081019061176e9190614b89565b83838151811061177a57fe5b602002602001015160a00181815250508073ffffffffffffffffffffffffffffffffffffffff1663f9557ccb6040518163ffffffff1660e01b8152600401604080518083038186803b1580156117cf57600080fd5b505afa1580156117e3573d6000803e3d6000fd5b505050506040513d601f19601f820116820180604052508101906118079190614d34565b83838151811061181357fe5b602090810291909101015160c001526040517f70a0823100000000000000000000000000000000000000000000000000000000815273ffffffffffffffffffffffffffffffffffffffff8216906370a0823190611874908b90600401614fe3565b60206040518083038186803b15801561188c57600080fd5b505afa1580156118a0573d6000803e3d6000fd5b505050506040513d601f19601f820116820180604052508101906118c49190614b89565b8383815181106118d057fe5b602002602001015160e00181815250508073ffffffffffffffffffffffffffffffffffffffff16638285ef406040518163ffffffff1660e01b8152600401604080518083038186803b15801561192557600080fd5b505afa158015611939573d6000803e3d6000fd5b505050506040513d601f19601f8201168201806040525081019061195d9190614d34565b83838151811061196957fe5b602090810291909101015161010001526040517f48e4163e00000000000000000000000000000000000000000000000000000000815273ffffffffffffffffffffffffffffffffffffffff8216906348e4163e906119cb908b90600401614fe3565b60206040518083038186803b1580156119e357600080fd5b505afa1580156119f7573d6000803e3d6000fd5b505050506040513d601f19601f82011682018060405250810190611a1b9190614b89565b838381518110611a2757fe5b60200260200101516101200181815250508073ffffffffffffffffffffffffffffffffffffffff16633ba0b9a96040518163ffffffff1660e01b815260040160206040518083038186803b158015611a7e57600080fd5b505afa158015611a92573d6000803e3d6000fd5b505050506040513d601f19601f82011682018060405250810190611ab69190614b89565b838381518110611ac257fe5b60200260200101516101400181815250508073ffffffffffffffffffffffffffffffffffffffff16637dc0d1d06040518163ffffffff1660e01b815260040160206040518083038186803b158015611b1957600080fd5b505afa158015611b2d573d6000803e3d6000fd5b505050506040513d601f19601f82011682018060405250810190611b519190614bd4565b73ffffffffffffffffffffffffffffffffffffffff1663eeb8a8d38273ffffffffffffffffffffffffffffffffffffffff166374645ff36040518163ffffffff1660e01b815260040160006040518083038186803b158015611bb257600080fd5b505afa158015611bc6573d6000803e3d6000fd5b505050506040513d6000823e601f3d9081017fffffffffffffffffffffffffffffffffffffffffffffffffffffffffffffffe0168201604052611c0c9190810190614ba1565b6040518263ffffffff1660e01b8152600401611c289190615535565b604080518083038186803b158015611c3f57600080fd5b505afa158015611c53573d6000803e3d6000fd5b505050506040513d601f19601f82011682018060405250810190611c779190614b58565b9050838381518110611c8557fe5b60200260200101516101800181815250508073ffffffffffffffffffffffffffffffffffffffff16637dc0d1d06040518163ffffffff1660e01b815260040160206040518083038186803b158015611cdc57600080fd5b505afa158015611cf0573d6000803e3d6000fd5b505050506040513d601f19601f82011682018060405250810190611d149190614bd4565b73ffffffffffffffffffffffffffffffffffffffff1663d39bbef08273ffffffffffffffffffffffffffffffffffffffff166374645ff36040518163ffffffff1660e01b815260040160006040518083038186803b158015611d7557600080fd5b505afa158015611d89573d6000803e3d6000fd5b505050506040513d6000823e601f3d9081017fffffffffffffffffffffffffffffffffffffffffffffffffffffffffffffffe0168201604052611dcf9190810190614ba1565b6040518263ffffffff1660e01b8152600401611deb9190615535565b60206040518083038186803b158015611e0357600080fd5b505afa158015611e17573d6000803e3d6000fd5b505050506040513d601f19601f82011682018060405250810190611e3b9190614b89565b838381518110611e4757fe5b60200260200101516101600181815250508073ffffffffffffffffffffffffffffffffffffffff1663b27c0e746040518163ffffffff1660e01b815260040160606040518083038186803b158015611e9e57600080fd5b505afa158015611eb2573d6000803e3d6000fd5b505050506040513d601f19601f82011682018060405250810190611ed69190614cdf565b838381518110611ee257fe5b60209081029190910101516101a00152506001016112f3565b5095945050505050565b6060808267ffffffffffffffff81118015611f1f57600080fd5b50604051908082528060200260200182016040528015611f5957816020015b611f466146aa565b815260200190600190039081611f3e5790505b50905060005b838110156125c2576000805473ffffffffffffffffffffffffffffffffffffffff166393f1a40b878785818110611f9257fe5b90506020020135896040518363ffffffff1660e01b8152600401611fb79291906157a7565b604080518083038186803b158015611fce57600080fd5b505afa158015611fe2573d6000803e3d6000fd5b505050506040513d601f19601f820116820180604052508101906120069190614e01565b5090508083838151811061201657fe5b602090810291909101810151015260005473ffffffffffffffffffffffffffffffffffffffff1663195426ec87878581811061204e57fe5b90506020020135896040518363ffffffff1660e01b81526004016120739291906157a7565b60206040518083038186803b15801561208b57600080fd5b505afa15801561209f573d6000803e3d6000fd5b505050506040513d601f19601f820116820180604052508101906120c39190614b89565b8383815181106120cf57fe5b602090810291909101015161012001526000805473ffffffffffffffffffffffffffffffffffffffff16631526fe2788888681811061210a57fe5b905060200201356040518263ffffffff1660e01b815260040161212d919061579e565b60806040518083038186803b15801561214557600080fd5b505afa158015612159573d6000803e3d6000fd5b505050506040513d601f19601f8201168201806040525081019061217d9190614aba565b505050905086868481811061218e57fe5b905060200201358484815181106121a157fe5b6020908102919091010151528060006121cf73ffffffffffffffffffffffffffffffffffffffff831661402a565b905073ffffffffffffffffffffffffffffffffffffffff8116156125b2576000546040517f70a0823100000000000000000000000000000000000000000000000000000000815273ffffffffffffffffffffffffffffffffffffffff848116926370a08231926122459290911690600401614fe3565b60206040518083038186803b15801561225d57600080fd5b505afa158015612271573d6000803e3d6000fd5b505050506040513d601f19601f820116820180604052508101906122959190614b89565b8686815181106122a157fe5b602090810291909101015160409081019190915260005490517fdd62ed3e00000000000000000000000000000000000000000000000000000000815273ffffffffffffffffffffffffffffffffffffffff8085169263dd62ed3e9261230c928f921690600401615004565b60206040518083038186803b15801561232457600080fd5b505afa158015612338573d6000803e3d6000fd5b505050506040513d601f19601f8201168201806040525081019061235c9190614b89565b86868151811061236857fe5b602090810291909101015160a001526040517f70a0823100000000000000000000000000000000000000000000000000000000815273ffffffffffffffffffffffffffffffffffffffff8316906370a08231906123c9908d90600401614fe3565b60206040518083038186803b1580156123e157600080fd5b505afa1580156123f5573d6000803e3d6000fd5b505050506040513d601f19601f820116820180604052508101906124199190614b89565b86868151811061242557fe5b602002602001015160600181815250508173ffffffffffffffffffffffffffffffffffffffff166318160ddd6040518163ffffffff1660e01b815260040160206040518083038186803b15801561247b57600080fd5b505afa15801561248f573d6000803e3d6000fd5b505050506040513d601f19601f820116820180604052508101906124b39190614b89565b8686815181106124bf57fe5b602002602001015160800181815250506000808373ffffffffffffffffffffffffffffffffffffffff16630902f1ac6040518163ffffffff1660e01b815260040160606040518083038186803b15801561251857600080fd5b505afa15801561252c573d6000803e3d6000fd5b505050506040513d601f19601f820116820180604052508101906125509190614d74565b5091509150816dffffffffffffffffffffffffffff1688888151811061257257fe5b602002602001015160c0018181525050806dffffffffffffffffffffffffffff1688888151811061259f57fe5b602002602001015160e001818152505050505b505060019092019150611f5f9050565b50949350505050565b60065473ffffffffffffffffffffffffffffffffffffffff1681565b6060808267ffffffffffffffff8111801561260157600080fd5b5060405190808252806020026020018201604052801561263b57816020015b6126286146fd565b8152602001906001900390816126205790505b50905060005b8381101561278157600085858381811061265757fe5b905060200201602081019061266c9190614976565b90508083838151811061267b57fe5b602090810291909101015173ffffffffffffffffffffffffffffffffffffffff91821690526126ab908216613d9c565b8383815181106126b757fe5b6020026020010151604001819052506126e58173ffffffffffffffffffffffffffffffffffffffff16613eb4565b8383815181106126f157fe5b60200260200101516060018190525061271f8173ffffffffffffffffffffffffffffffffffffffff16613f36565b60ff1683838151811061272e57fe5b6020026020010151602001818152505061275d8173ffffffffffffffffffffffffffffffffffffffff1661411e565b83838151811061276957fe5b60209081029190910101516080015250600101612641565b5090505b92915050565b60045473ffffffffffffffffffffffffffffffffffffffff1681565b60015473ffffffffffffffffffffffffffffffffffffffff1681565b60035460009073ffffffffffffffffffffffffffffffffffffffff838116911614156127f85750670de0b6b3a7640000612cf4565b600654600090819073ffffffffffffffffffffffffffffffffffffffff16156128cb576006546003546040517fe6a4390500000000000000000000000000000000000000000000000000000000815273ffffffffffffffffffffffffffffffffffffffff9283169263e6a439059261287892899290911690600401615004565b60206040518083038186803b15801561289057600080fd5b505afa1580156128a4573d6000803e3d6000fd5b505050506040513d601f19601f820116820180604052508101906128c89190614bd4565b91505b60055473ffffffffffffffffffffffffffffffffffffffff1615612999576005546003546040517fe6a4390500000000000000000000000000000000000000000000000000000000815273ffffffffffffffffffffffffffffffffffffffff9283169263e6a439059261294692899290911690600401615004565b60206040518083038186803b15801561295e57600080fd5b505afa158015612972573d6000803e3d6000fd5b505050506040513d601f19601f820116820180604052508101906129969190614bd4565b90505b73ffffffffffffffffffffffffffffffffffffffff82161580156129d1575073ffffffffffffffffffffffffffffffffffffffff8116155b156129e157600092505050612cf4565b6000808073ffffffffffffffffffffffffffffffffffffffff851615612b14576000808673ffffffffffffffffffffffffffffffffffffffff16630902f1ac6040518163ffffffff1660e01b815260040160606040518083038186803b158015612a4a57600080fd5b505afa158015612a5e573d6000803e3d6000fd5b505050506040513d601f19601f82011682018060405250810190612a829190614d74565b5091509150818501945080840193508673ffffffffffffffffffffffffffffffffffffffff16630dfe16816040518163ffffffff1660e01b815260040160206040518083038186803b158015612ad757600080fd5b505afa158015612aeb573d6000803e3d6000fd5b505050506040513d601f19601f82011682018060405250810190612b0f9190614bd4565b925050505b73ffffffffffffffffffffffffffffffffffffffff841615612c5e576000808573ffffffffffffffffffffffffffffffffffffffff16630902f1ac6040518163ffffffff1660e01b815260040160606040518083038186803b158015612b7957600080fd5b505afa158015612b8d573d6000803e3d6000fd5b505050506040513d601f19601f82011682018060405250810190612bb19190614d74565b509581019594850194909250905073ffffffffffffffffffffffffffffffffffffffff8316612c5b578573ffffffffffffffffffffffffffffffffffffffff16630dfe16816040518163ffffffff1660e01b815260040160206040518083038186803b158015612c2057600080fd5b505afa158015612c34573d6000803e3d6000fd5b505050506040513d601f19601f82011682018060405250810190612c589190614bd4565b92505b50505b60035473ffffffffffffffffffffffffffffffffffffffff82811691161415612cc157826dffffffffffffffffffffffffffff16826dffffffffffffffffffffffffffff16670de0b6b3a76400000281612cb457fe5b0495505050505050612cf4565b816dffffffffffffffffffffffffffff16836dffffffffffffffffffffffffffff16670de0b6b3a76400000281612cb457fe5b919050565b6060808267ffffffffffffffff81118015612d1357600080fd5b50604051908082528060200260200182016040528015612d4d57816020015b612d3a614745565b815260200190600190039081612d325790505b50905060005b838110156125c2576000858583818110612d6957fe5b9050602002016020810190612d7e9190614976565b90508073ffffffffffffffffffffffffffffffffffffffff166318160ddd6040518163ffffffff1660e01b815260040160206040518083038186803b158015612dc657600080fd5b505afa158015612dda573d6000803e3d6000fd5b505050506040513d601f19601f82011682018060405250810190612dfe9190614b89565b838381518110612e0a57fe5b6020026020010151602001818152505080838381518110612e2757fe5b602090810291909101015173ffffffffffffffffffffffffffffffffffffffff91821690526040517f70a08231000000000000000000000000000000000000000000000000000000008152908216906370a0823190612e8a908a90600401614fe3565b60206040518083038186803b158015612ea257600080fd5b505afa158015612eb6573d6000803e3d6000fd5b505050506040513d601f19601f82011682018060405250810190612eda9190614b89565b838381518110612ee657fe5b602090810291909101015160409081019190915260085490517fdd62ed3e00000000000000000000000000000000000000000000000000000000815273ffffffffffffffffffffffffffffffffffffffff8084169263dd62ed3e92612f51928c921690600401615004565b60206040518083038186803b158015612f6957600080fd5b505afa158015612f7d573d6000803e3d6000fd5b505050506040513d601f19601f82011682018060405250810190612fa19190614b89565b838381518110612fad57fe5b602090810291909101015160800152612fdc73ffffffffffffffffffffffffffffffffffffffff821688614216565b838381518110612fe857fe5b602090810291909101015160a001526008546040517ff7888aec00000000000000000000000000000000000000000000000000000000815273ffffffffffffffffffffffffffffffffffffffff9091169063f7888aec9061304f9084908b90600401615004565b60206040518083038186803b15801561306757600080fd5b505afa15801561307b573d6000803e3d6000fd5b505050506040513d601f19601f8201168201806040525081019061309f9190614b89565b8383815181106130ab57fe5b6020908102919091010151606001526008546040517f4ffe34db00000000000000000000000000000000000000000000000000000000815273ffffffffffffffffffffffffffffffffffffffff90911690634ffe34db90613110908490600401614fe3565b604080518083038186803b15801561312757600080fd5b505afa15801561313b573d6000803e3d6000fd5b505050506040513d601f19601f8201168201806040525081019061315f9190614dc8565b84848151811061316b57fe5b602002602001015160c00185858151811061318257fe5b60209081029190910101516fffffffffffffffffffffffffffffffff92831660e090910152911690526131b4816127c3565b8383815181106131c057fe5b6020908102919091010151610100015250600101612d53565b60085473ffffffffffffffffffffffffffffffffffffffff1681565b60608083830367ffffffffffffffff8111801561321157600080fd5b5060405190808252806020026020018201604052801561324b57816020015b6132386147cb565b8152602001906001900390816132305790505b509050835b838110156125c2576040517f1e3dd18b00000000000000000000000000000000000000000000000000000000815260009073ffffffffffffffffffffffffffffffffffffffff881690631e3dd18b906132ad90859060040161579e565b60206040518083038186803b1580156132c557600080fd5b505afa1580156132d9573d6000803e3d6000fd5b505050506040513d601f19601f820116820180604052508101906132fd9190614bd4565b9050600086830390508184828151811061331357fe5b60200260200101516000019073ffffffffffffffffffffffffffffffffffffffff16908173ffffffffffffffffffffffffffffffffffffffff16815250508173ffffffffffffffffffffffffffffffffffffffff16630dfe16816040518163ffffffff1660e01b815260040160206040518083038186803b15801561339757600080fd5b505afa1580156133ab573d6000803e3d6000fd5b505050506040513d601f19601f820116820180604052508101906133cf9190614bd4565b8482815181106133db57fe5b60200260200101516020019073ffffffffffffffffffffffffffffffffffffffff16908173ffffffffffffffffffffffffffffffffffffffff16815250508173ffffffffffffffffffffffffffffffffffffffff1663d21220a76040518163ffffffff1660e01b815260040160206040518083038186803b15801561345f57600080fd5b505afa158015613473573d6000803e3d6000fd5b505050506040513d601f19601f820116820180604052508101906134979190614bd4565b8482815181106134a357fe5b60200260200101516040019073ffffffffffffffffffffffffffffffffffffffff16908173ffffffffffffffffffffffffffffffffffffffff16815250508173ffffffffffffffffffffffffffffffffffffffff166318160ddd6040518163ffffffff1660e01b815260040160206040518083038186803b15801561352757600080fd5b505afa15801561353b573d6000803e3d6000fd5b505050506040513d601f19601f8201168201806040525081019061355f9190614b89565b84828151811061356b57fe5b6020908102919091010151606001525050600101613250565b7f000000000000000000000000000000000000000000000000000000000000000081565b7f000000000000000000000000000000000000000000000000000000000000000073ffffffffffffffffffffffffffffffffffffffff163314613620576040517f08c379a000000000000000000000000000000000000000000000000000000000815260040161361790615548565b60405180910390fd5b600080547fffffffffffffffffffffffff000000000000000000000000000000000000000090811673ffffffffffffffffffffffffffffffffffffffff9b8c1617909155600180548216998b1699909917909855600280548916978a16979097179096556003805488169589169590951790945560048054871693881693909317909255600580548616918716919091179055600680548516918616919091179055600780548416918516919091179055600880549092169216919091179055565b6060808267ffffffffffffffff811180156136fc57600080fd5b5060405190808252806020026020018201604052801561373657816020015b6137236147f2565b81526020019060019003908161371b5790505b50905060005b838110156125c257600085858381811061375257fe5b90506020020160208101906137679190614976565b90508083838151811061377657fe5b60200260200101516000019073ffffffffffffffffffffffffffffffffffffffff16908173ffffffffffffffffffffffffffffffffffffffff16815250506000808273ffffffffffffffffffffffffffffffffffffffff16630902f1ac6040518163ffffffff1660e01b815260040160606040518083038186803b1580156137fd57600080fd5b505afa158015613811573d6000803e3d6000fd5b505050506040513d601f19601f820116820180604052508101906138359190614d74565b506dffffffffffffffffffffffffffff1691506dffffffffffffffffffffffffffff1691508185858151811061386757fe5b602002602001015160200181815250508085858151811061388457fe5b602002602001015160400181815250508273ffffffffffffffffffffffffffffffffffffffff166370a082318a6040518263ffffffff1660e01b81526004016138cd9190614fe3565b60206040518083038186803b1580156138e557600080fd5b505afa1580156138f9573d6000803e3d6000fd5b505050506040513d601f19601f8201168201806040525081019061391d9190614b89565b85858151811061392957fe5b602002602001015160800181815250508273ffffffffffffffffffffffffffffffffffffffff166318160ddd6040518163ffffffff1660e01b815260040160206040518083038186803b15801561397f57600080fd5b505afa158015613993573d6000803e3d6000fd5b505050506040513d601f19601f820116820180604052508101906139b79190614b89565b8585815181106139c357fe5b60209081029190910101516060015250505060010161373c565b6060808267ffffffffffffffff811180156139f757600080fd5b50604051908082528060200260200182016040528015613a3157816020015b613a1e61457b565b815260200190600190039081613a165790505b50905060005b838110156125c257848482818110613a4b57fe5b90506020020135828281518110613a5e57fe5b60209081029190910101515260005473ffffffffffffffffffffffffffffffffffffffff166393f1a40b868684818110613a9457fe5b90506020020135886040518363ffffffff1660e01b8152600401613ab99291906157a7565b604080518083038186803b158015613ad057600080fd5b505afa158015613ae4573d6000803e3d6000fd5b505050506040513d601f19601f82011682018060405250810190613b089190614e01565b50828281518110613b1557fe5b6020908102919091018101510152600101613a37565b60035473ffffffffffffffffffffffffffffffffffffffff1681565b6060808267ffffffffffffffff81118015613b6157600080fd5b50604051908082528060200260200182016040528015613b9b57816020015b613b88614837565b815260200190600190039081613b805790505b5090508260005b81811015613d75576000868683818110613bb857fe5b9050602002016020810190613bcd9190614976565b905080848381518110613bdc57fe5b602090810291909101015173ffffffffffffffffffffffffffffffffffffffff91821690526040517f70a08231000000000000000000000000000000000000000000000000000000008152908216906370a0823190613c3f908b90600401614fe3565b60206040518083038186803b158015613c5757600080fd5b505afa158015613c6b573d6000803e3d6000fd5b505050506040513d601f19601f82011682018060405250810190613c8f9190614b89565b848381518110613c9b57fe5b60209081029190910181015101526008546040517ff7888aec00000000000000000000000000000000000000000000000000000000815273ffffffffffffffffffffffffffffffffffffffff9091169063f7888aec90613d019084908c90600401615004565b60206040518083038186803b158015613d1957600080fd5b505afa158015613d2d573d6000803e3d6000fd5b505050506040513d601f19601f82011682018060405250810190613d519190614b89565b848381518110613d5d57fe5b60209081029190910101516040015250600101613ba2565b509095945050505050565b60075473ffffffffffffffffffffffffffffffffffffffff1681565b60408051600481526024810182526020810180517bffffffffffffffffffffffffffffffffffffffffffffffffffffffff167f06fdde03000000000000000000000000000000000000000000000000000000001790529051606091600091839173ffffffffffffffffffffffffffffffffffffffff861691613e1e9190614fc7565b600060405180830381855afa9150503d8060008114613e59576040519150601f19603f3d011682016040523d82523d6000602084013e613e5e565b606091505b509150915081613ea3576040518060400160405280600381526020017f3f3f3f0000000000000000000000000000000000000000000000000000000000815250613eac565b613eac81614334565b949350505050565b60408051600481526024810182526020810180517bffffffffffffffffffffffffffffffffffffffffffffffffffffffff167f95d89b41000000000000000000000000000000000000000000000000000000001790529051606091600091839173ffffffffffffffffffffffffffffffffffffffff861691613e1e9190614fc7565b60408051600481526024810182526020810180517bffffffffffffffffffffffffffffffffffffffffffffffffffffffff167f313ce567000000000000000000000000000000000000000000000000000000001790529051600091829160609173ffffffffffffffffffffffffffffffffffffffff861691613fb89190614fc7565b600060405180830381855afa9150503d8060008114613ff3576040519150601f19603f3d011682016040523d82523d6000602084013e613ff8565b606091505b509150915081801561400b575080516020145b614016576012613eac565b80806020019051810190613eac9190614e24565b60408051600481526024810182526020810180517bffffffffffffffffffffffffffffffffffffffffffffffffffffffff167fc45a0155000000000000000000000000000000000000000000000000000000001790529051600091829160609173ffffffffffffffffffffffffffffffffffffffff8616916140ac9190614fc7565b600060405180830381855afa9150503d80600081146140e7576040519150601f19603f3d011682016040523d82523d6000602084013e6140ec565b606091505b50915091508180156140ff575080516020145b61410a576000613eac565b80806020019051810190613eac9190614bd4565b60408051600481526024810182526020810180517bffffffffffffffffffffffffffffffffffffffffffffffffffffffff167f3644e515000000000000000000000000000000000000000000000000000000001790529051600091829160609173ffffffffffffffffffffffffffffffffffffffff861691612710916141a391614fc7565b6000604051808303818686fa925050503d80600081146141df576040519150601f19603f3d011682016040523d82523d6000602084013e6141e4565b606091505b50915091508180156141f7575080516020145b614202576000613eac565b80806020019051810190613eac9190614b89565b60008060608473ffffffffffffffffffffffffffffffffffffffff16611388637ecebe008660405160240161424b9190614fe3565b6040516020818303038152906040529060e01b6020820180517bffffffffffffffffffffffffffffffffffffffffffffffffffffffff83818316178352505050506040516142999190614fc7565b6000604051808303818686fa925050503d80600081146142d5576040519150601f19603f3d011682016040523d82523d6000602084013e6142da565b606091505b50915091508180156142ed575080516020145b614317577fffffffffffffffffffffffffffffffffffffffffffffffffffffffffffffffff61432b565b8080602001905181019061432b9190614b89565b95945050505050565b6060604082511061435a57818060200190518101906143539190614ba1565b9050612cf4565b8151602014156144c25760005b60208160ff161080156143ae5750828160ff168151811061438457fe5b01602001517fff000000000000000000000000000000000000000000000000000000000000001615155b156143bb57600101614367565b60608160ff1667ffffffffffffffff811180156143d757600080fd5b506040519080825280601f01601f191660200182016040528015614402576020820181803683370190505b509050600091505b60208260ff161080156144515750838260ff168151811061442757fe5b01602001517fff000000000000000000000000000000000000000000000000000000000000001615155b156144b957838260ff168151811061446557fe5b602001015160f81c60f81b818360ff168151811061447f57fe5b60200101907effffffffffffffffffffffffffffffffffffffffffffffffffffffffffffff1916908160001a90535060019091019061440a565b9150612cf49050565b5060408051808201909152600381527f3f3f3f00000000000000000000000000000000000000000000000000000000006020820152612cf4565b604051806101a00160405280600081526020016000815260200160008152602001600081526020016000815260200160008152602001606081526020016000815260200160008152602001600081526020016000815260200160008152602001606081525090565b604080518082019091526000808252602082015290565b604051806040016040528060008152602001600081525090565b604080516101408101825260008082526020820181905291810182905260608082018390526080820183905260a0820183905260c0820183905260e0820181905261010082015261012081019190915290565b604051806101c00160405280600073ffffffffffffffffffffffffffffffffffffffff168152602001600073ffffffffffffffffffffffffffffffffffffffff168152602001600073ffffffffffffffffffffffffffffffffffffffff168152602001606081526020016000815260200160008152602001614668614564565b81526020016000815260200161467c614564565b8152602001600081526020016000815260200160008152602001600081526020016146a561486e565b905290565b604051806101400160405280600081526020016000815260200160008152602001600081526020016000815260200160008152602001600081526020016000815260200160008152602001600081525090565b6040518060a00160405280600073ffffffffffffffffffffffffffffffffffffffff168152602001600081526020016060815260200160608152602001600080191681525090565b604051806101200160405280600073ffffffffffffffffffffffffffffffffffffffff168152602001600081526020016000815260200160008152602001600081526020016000815260200160006fffffffffffffffffffffffffffffffff16815260200160006fffffffffffffffffffffffffffffffff168152602001600081525090565b60408051608081018252600080825260208201819052918101829052606081019190915290565b6040518060a00160405280600073ffffffffffffffffffffffffffffffffffffffff168152602001600081526020016000815260200160008152602001600081525090565b6040518060600160405280600073ffffffffffffffffffffffffffffffffffffffff16815260200160008152602001600081525090565b604080516060810182526000808252602082018190529181019190915290565b60008083601f84011261489f578182fd5b50813567ffffffffffffffff8111156148b6578182fd5b602083019150836020808302850101111561129157600080fd5b600082601f8301126148e0578081fd5b815167ffffffffffffffff8111156148f6578182fd5b61492760207fffffffffffffffffffffffffffffffffffffffffffffffffffffffffffffffe0601f840116016157cb565b915080825283602082850101111561493e57600080fd5b61494f8160208401602086016157f2565b5092915050565b80516fffffffffffffffffffffffffffffffff8116811461278557600080fd5b600060208284031215614987578081fd5b813561499281615822565b9392505050565b6000806000604084860312156149ad578182fd5b83356149b881615822565b9250602084013567ffffffffffffffff8111156149d3578283fd5b6149df8682870161488e565b9497909650939450505050565b600080600060408486031215614a00578081fd5b8335614a0b81615822565b9250602084013567ffffffffffffffff8111156149d3578182fd5b60008060008060008060808789031215614a3e578384fd5b8635614a4981615822565b9550602087013567ffffffffffffffff80821115614a65578586fd5b614a718a838b0161488e565b909750955060408901359150614a8682615822565b90935060608801359080821115614a9b578384fd5b50614aa889828a0161488e565b979a9699509497509295939492505050565b60008060008060808587031215614acf578182fd5b8451614ada81615822565b60208601516040870151606090970151919890975090945092505050565b60008060208385031215614b0a578182fd5b823567ffffffffffffffff811115614b20578283fd5b614b2c8582860161488e565b90969095509350505050565b600060208284031215614b49578081fd5b81518015158114614992578182fd5b60008060408385031215614b6a578182fd5b82518015158114614b79578283fd5b6020939093015192949293505050565b600060208284031215614b9a578081fd5b5051919050565b600060208284031215614bb2578081fd5b815167ffffffffffffffff811115614bc8578182fd5b613eac848285016148d0565b600060208284031215614be5578081fd5b815161499281615822565b600080600060608486031215614c04578081fd5b8335614c0f81615822565b95602085013595506040909401359392505050565b60008060008060008060008060006101208a8c031215614c42578687fd5b8935614c4d81615822565b985060208a0135614c5d81615822565b975060408a0135614c6d81615822565b965060608a0135614c7d81615822565b955060808a0135614c8d81615822565b945060a08a0135614c9d81615822565b935060c08a0135614cad81615822565b925060e08a0135614cbd81615822565b91506101008a0135614cce81615822565b809150509295985092959850929598565b600060608284031215614cf0578081fd5b614cfa60606157cb565b8251614d0581615881565b81526020830151614d1581615881565b60208201526040830151614d2881615863565b60408201529392505050565b600060408284031215614d45578081fd5b614d4f60406157cb565b614d598484614956565b8152614d688460208501614956565b60208201529392505050565b600080600060608486031215614d88578081fd5b8351614d9381615847565b6020850151909350614da481615847565b604085015190925063ffffffff81168114614dbd578182fd5b809150509250925092565b60008060408385031215614dda578182fd5b8251614de581615863565b6020840151909250614df681615863565b809150509250929050565b60008060408385031215614e13578182fd5b505080516020909101519092909150565b600060208284031215614e35578081fd5b815160ff81168114614992578182fd5b6000815180845260208085019450808401835b83811015614e76578151151587529582019590820190600101614e58565b509495945050505050565b6000815180845260208085019450808401835b83811015614e76578151805173ffffffffffffffffffffffffffffffffffffffff1688528301518388015260409096019590820190600101614e94565b15159052565b60008151808452614eef8160208601602086016157f2565b601f017fffffffffffffffffffffffffffffffffffffffffffffffffffffffffffffffe0169290920160200192915050565b73ffffffffffffffffffffffffffffffffffffffff169052565b67ffffffffffffffff808251168352806020830151166020840152506fffffffffffffffffffffffffffffffff60408201511660408301525050565b80518252602090810151910152565b80516fffffffffffffffffffffffffffffffff908116835260209182015116910152565b6fffffffffffffffffffffffffffffffff169052565b60ff169052565b60008251614fd98184602087016157f2565b9190910192915050565b73ffffffffffffffffffffffffffffffffffffffff91909116815260200190565b73ffffffffffffffffffffffffffffffffffffffff92831681529116602082015260400190565b602080825282518282018190526000919060409081850190868401855b828110156150e8578151805173ffffffffffffffffffffffffffffffffffffffff16855286810151878601528581015186860152606080820151908601526080808201519086015260a0808201519086015260c0808201516fffffffffffffffffffffffffffffffff169086015260e0808201516150c882880182614faa565b505061010090810151908501526101209093019290850190600101615048565b5091979650505050505050565b602080825282518282018190526000919060409081850190868401855b828110156150e8578151805173ffffffffffffffffffffffffffffffffffffffff16855286810151878601528501518585015260609093019290850190600101615112565b60208082528251828201819052600091906040908185019080840286018301878501865b8381101561529e577fffffffffffffffffffffffffffffffffffffffffffffffffffffffffffffffc089840301855281516102406151ba858351614f21565b888201516151ca8a870182614f21565b50878201516151db89870182614f21565b5060608083015182828801526151f383880182614ed7565b92505050608080830151818701525060a080830151818701525060c08083015161521f82880182614f86565b505060e08201516101008681019190915282015161012061524281880183614f86565b8301516101608781019190915261014084015161018080890191909152908401516101a080890191909152908401516101c088015290920151915061528b6101e0860183614f3b565b958801959350509086019060010161517b565b509098975050505050505050565b602080825282518282018190526000919060409081850190868401855b828110156150e8578151805173ffffffffffffffffffffffffffffffffffffffff90811686528782015181168887015286820151168686015260609081015190850152608090930192908501906001016152c9565b602080825282518282018190526000919060409081850190868401855b828110156150e8578151805173ffffffffffffffffffffffffffffffffffffffff16855286810151878601528581015186860152606080820151908601526080908101519085015260a0909301929085019060010161533b565b602080825282518282018190526000919060409081850190868401855b828110156150e8576153c5848351614f77565b92840192908501906001016153b2565b60208082528251828201819052600091906040908185019080840286018301878501865b8381101561529e577fffffffffffffffffffffffffffffffffffffffffffffffffffffffffffffffc0898403018552815160a073ffffffffffffffffffffffffffffffffffffffff8251168552888201518986015287820151818987015261546382870182614ed7565b9150506060808301518683038288015261547d8382614ed7565b60809485015197909401969096525050948701949250908601906001016153f9565b602080825282518282018190526000919060409081850190868401855b828110156150e85781518051855286810151878601528581015186860152606080820151908601526080808201519086015260a0808201519086015260c0808201519086015260e080820151908601526101008082015190860152610120908101519085015261014090930192908501906001016154bc565b6000602082526149926020830184614ed7565b6020808252818101527f4f776e61626c653a2063616c6c6572206973206e6f7420746865206f776e6572604082015260600190565b6000606080830161558e8487614f77565b604084810183905285519182905260809182860190602080820288018501818a01885b848110156156ac577fffffffffffffffffffffffffffffffffffffffffffffffffffffffffffffff808b8403018652815161014081518552858201516155f987870182614f21565b5088820151898601528a8201516156128c870182614ed1565b50898201516156238b870182614f21565b5060a08083015161563682880182614f21565b505060c08083015161564a82880182614f21565b505060e080830151828288015261566383880182614ed7565b92505050610100808301518683038288015261567f8382614ed7565b9250505061012080830151925061569881870184614fc0565b5096850196935050908301906001016155b1565b50909b9a5050505050505050505050565b60006020825282516020830152602083015160408301526040830151606083015260608301516080830152608083015160a083015260a083015160c083015260c08301516101a08060e08501526157186101c0850183614e81565b60e086015161010086810191909152860151610120808701919091528601516101408087019190915286015161016080870191909152860151610180808701919091528601518582037fffffffffffffffffffffffffffffffffffffffffffffffffffffffffffffffe001838701529092506157948382614e45565b9695505050505050565b90815260200190565b91825273ffffffffffffffffffffffffffffffffffffffff16602082015260400190565b60405181810167ffffffffffffffff811182821017156157ea57600080fd5b604052919050565b60005b8381101561580d5781810151838201526020016157f5565b8381111561581c576000848401525b50505050565b73ffffffffffffffffffffffffffffffffffffffff8116811461584457600080fd5b50565b6dffffffffffffffffffffffffffff8116811461584457600080fd5b6fffffffffffffffffffffffffffffffff8116811461584457600080fd5b67ffffffffffffffff8116811461584457600080fdfea264697066735822122067996f6f00e96b12f113fca308be4e2f7e0cec981194a3f603fe81f806b528b964736f6c634300060c0033"
}