{
    "address": "0xb7d6F94A643fe9e84F17F5F213B3A54aa800F430",
    "abi": [
        {
            "inputs": [
                {
                    "internalType": "address",
                    "name": "multiply",
                    "type": "address"
                },
                {
                    "internalType": "address",
                    "name": "divide",
                    "type": "address"
                },
                {
                    "internalType": "uint256",
                    "name": "decimals",
                    "type": "uint256"
                }
            ],
            "name": "_get",
            "outputs": [
                {
                    "internalType": "uint256",
                    "name": "",
                    "type": "uint256"
                }
            ],
            "stateMutability": "view",
            "type": "function"
        },
        {
            "inputs": [
                {
                    "internalType": "bytes",
                    "name": "data",
                    "type": "bytes"
                }
            ],
            "name": "get",
            "outputs": [
                {
                    "internalType": "bool",
                    "name": "",
                    "type": "bool"
                },
                {
                    "internalType": "uint256",
                    "name": "",
                    "type": "uint256"
                }
            ],
            "stateMutability": "nonpayable",
            "type": "function"
        },
        {
            "inputs": [
                {
                    "internalType": "address",
                    "name": "multiply",
                    "type": "address"
                },
                {
                    "internalType": "address",
                    "name": "divide",
                    "type": "address"
                },
                {
                    "internalType": "uint256",
                    "name": "decimals",
                    "type": "uint256"
                }
            ],
            "name": "getDataParameter",
            "outputs": [
                {
                    "internalType": "bytes",
                    "name": "",
                    "type": "bytes"
                }
            ],
            "stateMutability": "pure",
            "type": "function"
        },
        {
            "inputs": [
                {
                    "internalType": "bytes",
                    "name": "",
                    "type": "bytes"
                }
            ],
            "name": "name",
            "outputs": [
                {
                    "internalType": "string",
                    "name": "",
                    "type": "string"
                }
            ],
            "stateMutability": "view",
            "type": "function"
        },
        {
            "inputs": [
                {
                    "internalType": "bytes",
                    "name": "data",
                    "type": "bytes"
                }
            ],
            "name": "peek",
            "outputs": [
                {
                    "internalType": "bool",
                    "name": "",
                    "type": "bool"
                },
                {
                    "internalType": "uint256",
                    "name": "",
                    "type": "uint256"
                }
            ],
            "stateMutability": "view",
            "type": "function"
        },
        {
            "inputs": [
                {
                    "internalType": "bytes",
                    "name": "data",
                    "type": "bytes"
                }
            ],
            "name": "peekSpot",
            "outputs": [
                {
                    "internalType": "uint256",
                    "name": "rate",
                    "type": "uint256"
                }
            ],
            "stateMutability": "view",
            "type": "function"
        },
        {
            "inputs": [
                {
                    "internalType": "bytes",
                    "name": "",
                    "type": "bytes"
                }
            ],
            "name": "symbol",
            "outputs": [
                {
                    "internalType": "string",
                    "name": "",
                    "type": "string"
                }
            ],
            "stateMutability": "view",
            "type": "function"
        }
    ],
    "transactionHash": "0xec5200b738096861c5c6f81b648434829d0a0be18d43e9d387c915fc28b40ecb",
    "args": [],
    "solcInputHash": "c6c2e1e6aeb59dbf707b204321cc7052",
    "bytecode": "0x608060405234801561001057600080fd5b506106cf806100206000396000f3fe608060405234801561001057600080fd5b506004361061007d5760003560e01c8063d568866c1161005b578063d568866c1461022c578063d6d7d5251461029c578063eeb8a8d31461029c578063fdc28b08146103275761007d565b8063c699c4d614610082578063d0720d6314610167578063d39bbef0146101bc575b600080fd5b6100f26004803603602081101561009857600080fd5b8101906020810181356401000000008111156100b357600080fd5b8201836020820111156100c557600080fd5b803590602001918460018302840111640100000000831117156100e757600080fd5b50909250905061036a565b6040805160208082528351818301528351919283929083019185019080838360005b8381101561012c578181015183820152602001610114565b50505050905090810190601f1680156101595780820380516001836020036101000a031916815260200191505b509250505060405180910390f35b6101aa6004803603606081101561017d57600080fd5b5073ffffffffffffffffffffffffffffffffffffffff8135811691602081013590911690604001356103a5565b60408051918252519081900360200190f35b6101aa600480360360208110156101d257600080fd5b8101906020810181356401000000008111156101ed57600080fd5b8201836020820111156101ff57600080fd5b8035906020019184600183028401116401000000008311171561022157600080fd5b509092509050610522565b6100f26004803603602081101561024257600080fd5b81019060208101813564010000000081111561025d57600080fd5b82018360208201111561026f57600080fd5b8035906020019184600183028401116401000000008311171561029157600080fd5b509092509050610536565b61030c600480360360208110156102b257600080fd5b8101906020810181356401000000008111156102cd57600080fd5b8201836020820111156102df57600080fd5b8035906020019184600183028401116401000000008311171561030157600080fd5b50909250905061056f565b60408051921515835260208301919091528051918290030190f35b6100f26004803603606081101561033d57600080fd5b5073ffffffffffffffffffffffffffffffffffffffff8135811691602081013590911690604001356105cc565b60408051808201909152600481527f4c494e4b0000000000000000000000000000000000000000000000000000000060208201525b92915050565b6000670de0b6b3a764000073ffffffffffffffffffffffffffffffffffffffff8516156104575760008573ffffffffffffffffffffffffffffffffffffffff1663feaf968c6040518163ffffffff1660e01b815260040160a06040518083038186803b15801561041457600080fd5b505afa158015610428573d6000803e3d6000fd5b505050506040513d60a081101561043e57600080fd5b5060200151905061044f8282610613565b91505061046c565b61046981670de0b6b3a7640000610613565b90505b73ffffffffffffffffffffffffffffffffffffffff84161561050f5760008473ffffffffffffffffffffffffffffffffffffffff1663feaf968c6040518163ffffffff1660e01b815260040160a06040518083038186803b1580156104d057600080fd5b505afa1580156104e4573d6000803e3d6000fd5b505050506040513d60a08110156104fa57600080fd5b5060200151905080828161050a57fe5b049150505b82818161051857fe5b0495945050505050565b600061052e838361056f565b949350505050565b505060408051808201909152600981527f436861696e6c696e6b0000000000000000000000000000000000000000000000602082015290565b60008060008060008686606081101561058757600080fd5b5073ffffffffffffffffffffffffffffffffffffffff813581169450602082013516925060400135905060016105be8484846103a5565b945094505050509250929050565b6040805173ffffffffffffffffffffffffffffffffffffffff9485166020820152929093168284015260608083019190915282518083039091018152608090910190915290565b600081158061062e5750508082028282828161062b57fe5b04145b61039f57604080517f08c379a000000000000000000000000000000000000000000000000000000000815260206004820152601860248201527f426f72696e674d6174683a204d756c204f766572666c6f770000000000000000604482015290519081900360640190fdfea26469706673582212200a0d34605809c9582af8cd5c268a33907e583b9d9da02aeec2a45e3a5cbd97ad64736f6c634300060c0033"
}