{
    "address": "0xbff4084D50E2d70649494fd5Fa5B131Dbd119E74",
    "abi": [
        {
            "inputs": [
                {
                    "internalType": "contract IBentoBoxV1",
                    "name": "bentoBox_",
                    "type": "address"
                }
            ],
            "stateMutability": "nonpayable",
            "type": "constructor"
        },
        {
            "anonymous": false,
            "inputs": [
                {
                    "indexed": true,
                    "internalType": "address",
                    "name": "_owner",
                    "type": "address"
                },
                {
                    "indexed": true,
                    "internalType": "address",
                    "name": "_spender",
                    "type": "address"
                },
                {
                    "indexed": false,
                    "internalType": "uint256",
                    "name": "_value",
                    "type": "uint256"
                }
            ],
            "name": "Approval",
            "type": "event"
        },
        {
            "anonymous": false,
            "inputs": [
                {
                    "indexed": false,
                    "internalType": "uint256",
                    "name": "accruedAmount",
                    "type": "uint256"
                },
                {
                    "indexed": false,
                    "internalType": "uint256",
                    "name": "feeFraction",
                    "type": "uint256"
                },
                {
                    "indexed": false,
                    "internalType": "uint64",
                    "name": "rate",
                    "type": "uint64"
                },
                {
                    "indexed": false,
                    "internalType": "uint256",
                    "name": "utilization",
                    "type": "uint256"
                }
            ],
            "name": "LogAccrue",
            "type": "event"
        },
        {
            "anonymous": false,
            "inputs": [
                {
                    "indexed": true,
                    "internalType": "address",
                    "name": "from",
                    "type": "address"
                },
                {
                    "indexed": true,
                    "internalType": "address",
                    "name": "to",
                    "type": "address"
                },
                {
                    "indexed": false,
                    "internalType": "uint256",
                    "name": "share",
                    "type": "uint256"
                },
                {
                    "indexed": false,
                    "internalType": "uint256",
                    "name": "fraction",
                    "type": "uint256"
                }
            ],
            "name": "LogAddAsset",
            "type": "event"
        },
        {
            "anonymous": false,
            "inputs": [
                {
                    "indexed": true,
                    "internalType": "address",
                    "name": "from",
                    "type": "address"
                },
                {
                    "indexed": true,
                    "internalType": "address",
                    "name": "to",
                    "type": "address"
                },
                {
                    "indexed": false,
                    "internalType": "uint256",
                    "name": "share",
                    "type": "uint256"
                }
            ],
            "name": "LogAddCollateral",
            "type": "event"
        },
        {
            "anonymous": false,
            "inputs": [
                {
                    "indexed": true,
                    "internalType": "address",
                    "name": "from",
                    "type": "address"
                },
                {
                    "indexed": true,
                    "internalType": "address",
                    "name": "to",
                    "type": "address"
                },
                {
                    "indexed": false,
                    "internalType": "uint256",
                    "name": "amount",
                    "type": "uint256"
                },
                {
                    "indexed": false,
                    "internalType": "uint256",
                    "name": "feeAmount",
                    "type": "uint256"
                },
                {
                    "indexed": false,
                    "internalType": "uint256",
                    "name": "part",
                    "type": "uint256"
                }
            ],
            "name": "LogBorrow",
            "type": "event"
        },
        {
            "anonymous": false,
            "inputs": [
                {
                    "indexed": false,
                    "internalType": "uint256",
                    "name": "rate",
                    "type": "uint256"
                }
            ],
            "name": "LogExchangeRate",
            "type": "event"
        },
        {
            "anonymous": false,
            "inputs": [
                {
                    "indexed": true,
                    "internalType": "address",
                    "name": "newFeeTo",
                    "type": "address"
                }
            ],
            "name": "LogFeeTo",
            "type": "event"
        },
        {
            "anonymous": false,
            "inputs": [
                {
                    "indexed": true,
                    "internalType": "address",
                    "name": "from",
                    "type": "address"
                },
                {
                    "indexed": true,
                    "internalType": "address",
                    "name": "to",
                    "type": "address"
                },
                {
                    "indexed": false,
                    "internalType": "uint256",
                    "name": "share",
                    "type": "uint256"
                },
                {
                    "indexed": false,
                    "internalType": "uint256",
                    "name": "fraction",
                    "type": "uint256"
                }
            ],
            "name": "LogRemoveAsset",
            "type": "event"
        },
        {
            "anonymous": false,
            "inputs": [
                {
                    "indexed": true,
                    "internalType": "address",
                    "name": "from",
                    "type": "address"
                },
                {
                    "indexed": true,
                    "internalType": "address",
                    "name": "to",
                    "type": "address"
                },
                {
                    "indexed": false,
                    "internalType": "uint256",
                    "name": "share",
                    "type": "uint256"
                }
            ],
            "name": "LogRemoveCollateral",
            "type": "event"
        },
        {
            "anonymous": false,
            "inputs": [
                {
                    "indexed": true,
                    "internalType": "address",
                    "name": "from",
                    "type": "address"
                },
                {
                    "indexed": true,
                    "internalType": "address",
                    "name": "to",
                    "type": "address"
                },
                {
                    "indexed": false,
                    "internalType": "uint256",
                    "name": "amount",
                    "type": "uint256"
                },
                {
                    "indexed": false,
                    "internalType": "uint256",
                    "name": "part",
                    "type": "uint256"
                }
            ],
            "name": "LogRepay",
            "type": "event"
        },
        {
            "anonymous": false,
            "inputs": [
                {
                    "indexed": true,
                    "internalType": "address",
                    "name": "feeTo",
                    "type": "address"
                },
                {
                    "indexed": false,
                    "internalType": "uint256",
                    "name": "feesEarnedFraction",
                    "type": "uint256"
                }
            ],
            "name": "LogWithdrawFees",
            "type": "event"
        },
        {
            "anonymous": false,
            "inputs": [
                {
                    "indexed": true,
                    "internalType": "address",
                    "name": "previousOwner",
                    "type": "address"
                },
                {
                    "indexed": true,
                    "internalType": "address",
                    "name": "newOwner",
                    "type": "address"
                }
            ],
            "name": "OwnershipTransferred",
            "type": "event"
        },
        {
            "anonymous": false,
            "inputs": [
                {
                    "indexed": true,
                    "internalType": "address",
                    "name": "_from",
                    "type": "address"
                },
                {
                    "indexed": true,
                    "internalType": "address",
                    "name": "_to",
                    "type": "address"
                },
                {
                    "indexed": false,
                    "internalType": "uint256",
                    "name": "_value",
                    "type": "uint256"
                }
            ],
            "name": "Transfer",
            "type": "event"
        },
        {
            "inputs": [],
            "name": "DOMAIN_SEPARATOR",
            "outputs": [
                {
                    "internalType": "bytes32",
                    "name": "",
                    "type": "bytes32"
                }
            ],
            "stateMutability": "view",
            "type": "function"
        },
        {
            "inputs": [],
            "name": "accrue",
            "outputs": [],
            "stateMutability": "nonpayable",
            "type": "function"
        },
        {
            "inputs": [],
            "name": "accrueInfo",
            "outputs": [
                {
                    "internalType": "uint64",
                    "name": "interestPerSecond",
                    "type": "uint64"
                },
                {
                    "internalType": "uint64",
                    "name": "lastAccrued",
                    "type": "uint64"
                },
                {
                    "internalType": "uint128",
                    "name": "feesEarnedFraction",
                    "type": "uint128"
                }
            ],
            "stateMutability": "view",
            "type": "function"
        },
        {
            "inputs": [
                {
                    "internalType": "address",
                    "name": "to",
                    "type": "address"
                },
                {
                    "internalType": "bool",
                    "name": "skim",
                    "type": "bool"
                },
                {
                    "internalType": "uint256",
                    "name": "share",
                    "type": "uint256"
                }
            ],
            "name": "addAsset",
            "outputs": [
                {
                    "internalType": "uint256",
                    "name": "fraction",
                    "type": "uint256"
                }
            ],
            "stateMutability": "nonpayable",
            "type": "function"
        },
        {
            "inputs": [
                {
                    "internalType": "address",
                    "name": "to",
                    "type": "address"
                },
                {
                    "internalType": "bool",
                    "name": "skim",
                    "type": "bool"
                },
                {
                    "internalType": "uint256",
                    "name": "share",
                    "type": "uint256"
                }
            ],
            "name": "addCollateral",
            "outputs": [],
            "stateMutability": "nonpayable",
            "type": "function"
        },
        {
            "inputs": [
                {
                    "internalType": "address",
                    "name": "",
                    "type": "address"
                },
                {
                    "internalType": "address",
                    "name": "",
                    "type": "address"
                }
            ],
            "name": "allowance",
            "outputs": [
                {
                    "internalType": "uint256",
                    "name": "",
                    "type": "uint256"
                }
            ],
            "stateMutability": "view",
            "type": "function"
        },
        {
            "inputs": [
                {
                    "internalType": "address",
                    "name": "spender",
                    "type": "address"
                },
                {
                    "internalType": "uint256",
                    "name": "amount",
                    "type": "uint256"
                }
            ],
            "name": "approve",
            "outputs": [
                {
                    "internalType": "bool",
                    "name": "",
                    "type": "bool"
                }
            ],
            "stateMutability": "nonpayable",
            "type": "function"
        },
        {
            "inputs": [],
            "name": "asset",
            "outputs": [
                {
                    "internalType": "contract IERC20",
                    "name": "",
                    "type": "address"
                }
            ],
            "stateMutability": "view",
            "type": "function"
        },
        {
            "inputs": [
                {
                    "internalType": "address",
                    "name": "",
                    "type": "address"
                }
            ],
            "name": "balanceOf",
            "outputs": [
                {
                    "internalType": "uint256",
                    "name": "",
                    "type": "uint256"
                }
            ],
            "stateMutability": "view",
            "type": "function"
        },
        {
            "inputs": [],
            "name": "bentoBox",
            "outputs": [
                {
                    "internalType": "contract IBentoBoxV1",
                    "name": "",
                    "type": "address"
                }
            ],
            "stateMutability": "view",
            "type": "function"
        },
        {
            "inputs": [
                {
                    "internalType": "address",
                    "name": "to",
                    "type": "address"
                },
                {
                    "internalType": "uint256",
                    "name": "amount",
                    "type": "uint256"
                }
            ],
            "name": "borrow",
            "outputs": [
                {
                    "internalType": "uint256",
                    "name": "part",
                    "type": "uint256"
                },
                {
                    "internalType": "uint256",
                    "name": "share",
                    "type": "uint256"
                }
            ],
            "stateMutability": "nonpayable",
            "type": "function"
        },
        {
            "inputs": [],
            "name": "claimOwnership",
            "outputs": [],
            "stateMutability": "nonpayable",
            "type": "function"
        },
        {
            "inputs": [],
            "name": "collateral",
            "outputs": [
                {
                    "internalType": "contract IERC20",
                    "name": "",
                    "type": "address"
                }
            ],
            "stateMutability": "view",
            "type": "function"
        },
        {
            "inputs": [
                {
                    "internalType": "uint8[]",
                    "name": "actions",
                    "type": "uint8[]"
                },
                {
                    "internalType": "uint256[]",
                    "name": "values",
                    "type": "uint256[]"
                },
                {
                    "internalType": "bytes[]",
                    "name": "datas",
                    "type": "bytes[]"
                }
            ],
            "name": "cook",
            "outputs": [
                {
                    "internalType": "uint256",
                    "name": "value1",
                    "type": "uint256"
                },
                {
                    "internalType": "uint256",
                    "name": "value2",
                    "type": "uint256"
                }
            ],
            "stateMutability": "payable",
            "type": "function"
        },
        {
            "inputs": [],
            "name": "decimals",
            "outputs": [
                {
                    "internalType": "uint8",
                    "name": "",
                    "type": "uint8"
                }
            ],
            "stateMutability": "view",
            "type": "function"
        },
        {
            "inputs": [],
            "name": "exchangeRate",
            "outputs": [
                {
                    "internalType": "uint256",
                    "name": "",
                    "type": "uint256"
                }
            ],
            "stateMutability": "view",
            "type": "function"
        },
        {
            "inputs": [],
            "name": "feeTo",
            "outputs": [
                {
                    "internalType": "address",
                    "name": "",
                    "type": "address"
                }
            ],
            "stateMutability": "view",
            "type": "function"
        },
        {
            "inputs": [
                {
                    "internalType": "bytes",
                    "name": "data",
                    "type": "bytes"
                }
            ],
            "name": "init",
            "outputs": [],
            "stateMutability": "payable",
            "type": "function"
        },
        {
            "inputs": [
                {
                    "internalType": "address[]",
                    "name": "users",
                    "type": "address[]"
                },
                {
                    "internalType": "uint256[]",
                    "name": "maxBorrowParts",
                    "type": "uint256[]"
                },
                {
                    "internalType": "address",
                    "name": "to",
                    "type": "address"
                },
                {
                    "internalType": "contract ISwapper",
                    "name": "swapper",
                    "type": "address"
                },
                {
                    "internalType": "bool",
                    "name": "open",
                    "type": "bool"
                }
            ],
            "name": "liquidate",
            "outputs": [],
            "stateMutability": "nonpayable",
            "type": "function"
        },
        {
            "inputs": [],
            "name": "masterContract",
            "outputs": [
                {
                    "internalType": "contract KashiPairMediumRiskV1",
                    "name": "",
                    "type": "address"
                }
            ],
            "stateMutability": "view",
            "type": "function"
        },
        {
            "inputs": [],
            "name": "name",
            "outputs": [
                {
                    "internalType": "string",
                    "name": "",
                    "type": "string"
                }
            ],
            "stateMutability": "view",
            "type": "function"
        },
        {
            "inputs": [
                {
                    "internalType": "address",
                    "name": "",
                    "type": "address"
                }
            ],
            "name": "nonces",
            "outputs": [
                {
                    "internalType": "uint256",
                    "name": "",
                    "type": "uint256"
                }
            ],
            "stateMutability": "view",
            "type": "function"
        },
        {
            "inputs": [],
            "name": "oracle",
            "outputs": [
                {
                    "internalType": "contract IOracle",
                    "name": "",
                    "type": "address"
                }
            ],
            "stateMutability": "view",
            "type": "function"
        },
        {
            "inputs": [],
            "name": "oracleData",
            "outputs": [
                {
                    "internalType": "bytes",
                    "name": "",
                    "type": "bytes"
                }
            ],
            "stateMutability": "view",
            "type": "function"
        },
        {
            "inputs": [],
            "name": "owner",
            "outputs": [
                {
                    "internalType": "address",
                    "name": "",
                    "type": "address"
                }
            ],
            "stateMutability": "view",
            "type": "function"
        },
        {
            "inputs": [],
            "name": "pendingOwner",
            "outputs": [
                {
                    "internalType": "address",
                    "name": "",
                    "type": "address"
                }
            ],
            "stateMutability": "view",
            "type": "function"
        },
        {
            "inputs": [
                {
                    "internalType": "address",
                    "name": "owner_",
                    "type": "address"
                },
                {
                    "internalType": "address",
                    "name": "spender",
                    "type": "address"
                },
                {
                    "internalType": "uint256",
                    "name": "value",
                    "type": "uint256"
                },
                {
                    "internalType": "uint256",
                    "name": "deadline",
                    "type": "uint256"
                },
                {
                    "internalType": "uint8",
                    "name": "v",
                    "type": "uint8"
                },
                {
                    "internalType": "bytes32",
                    "name": "r",
                    "type": "bytes32"
                },
                {
                    "internalType": "bytes32",
                    "name": "s",
                    "type": "bytes32"
                }
            ],
            "name": "permit",
            "outputs": [],
            "stateMutability": "nonpayable",
            "type": "function"
        },
        {
            "inputs": [
                {
                    "internalType": "address",
                    "name": "to",
                    "type": "address"
                },
                {
                    "internalType": "uint256",
                    "name": "fraction",
                    "type": "uint256"
                }
            ],
            "name": "removeAsset",
            "outputs": [
                {
                    "internalType": "uint256",
                    "name": "share",
                    "type": "uint256"
                }
            ],
            "stateMutability": "nonpayable",
            "type": "function"
        },
        {
            "inputs": [
                {
                    "internalType": "address",
                    "name": "to",
                    "type": "address"
                },
                {
                    "internalType": "uint256",
                    "name": "share",
                    "type": "uint256"
                }
            ],
            "name": "removeCollateral",
            "outputs": [],
            "stateMutability": "nonpayable",
            "type": "function"
        },
        {
            "inputs": [
                {
                    "internalType": "address",
                    "name": "to",
                    "type": "address"
                },
                {
                    "internalType": "bool",
                    "name": "skim",
                    "type": "bool"
                },
                {
                    "internalType": "uint256",
                    "name": "part",
                    "type": "uint256"
                }
            ],
            "name": "repay",
            "outputs": [
                {
                    "internalType": "uint256",
                    "name": "amount",
                    "type": "uint256"
                }
            ],
            "stateMutability": "nonpayable",
            "type": "function"
        },
        {
            "inputs": [
                {
                    "internalType": "address",
                    "name": "newFeeTo",
                    "type": "address"
                }
            ],
            "name": "setFeeTo",
            "outputs": [],
            "stateMutability": "nonpayable",
            "type": "function"
        },
        {
            "inputs": [
                {
                    "internalType": "contract ISwapper",
                    "name": "swapper",
                    "type": "address"
                },
                {
                    "internalType": "bool",
                    "name": "enable",
                    "type": "bool"
                }
            ],
            "name": "setSwapper",
            "outputs": [],
            "stateMutability": "nonpayable",
            "type": "function"
        },
        {
            "inputs": [
                {
                    "internalType": "contract ISwapper",
                    "name": "",
                    "type": "address"
                }
            ],
            "name": "swappers",
            "outputs": [
                {
                    "internalType": "bool",
                    "name": "",
                    "type": "bool"
                }
            ],
            "stateMutability": "view",
            "type": "function"
        },
        {
            "inputs": [],
            "name": "symbol",
            "outputs": [
                {
                    "internalType": "string",
                    "name": "",
                    "type": "string"
                }
            ],
            "stateMutability": "view",
            "type": "function"
        },
        {
            "inputs": [],
            "name": "totalAsset",
            "outputs": [
                {
                    "internalType": "uint128",
                    "name": "elastic",
                    "type": "uint128"
                },
                {
                    "internalType": "uint128",
                    "name": "base",
                    "type": "uint128"
                }
            ],
            "stateMutability": "view",
            "type": "function"
        },
        {
            "inputs": [],
            "name": "totalBorrow",
            "outputs": [
                {
                    "internalType": "uint128",
                    "name": "elastic",
                    "type": "uint128"
                },
                {
                    "internalType": "uint128",
                    "name": "base",
                    "type": "uint128"
                }
            ],
            "stateMutability": "view",
            "type": "function"
        },
        {
            "inputs": [],
            "name": "totalCollateralShare",
            "outputs": [
                {
                    "internalType": "uint256",
                    "name": "",
                    "type": "uint256"
                }
            ],
            "stateMutability": "view",
            "type": "function"
        },
        {
            "inputs": [],
            "name": "totalSupply",
            "outputs": [
                {
                    "internalType": "uint256",
                    "name": "",
                    "type": "uint256"
                }
            ],
            "stateMutability": "view",
            "type": "function"
        },
        {
            "inputs": [
                {
                    "internalType": "address",
                    "name": "to",
                    "type": "address"
                },
                {
                    "internalType": "uint256",
                    "name": "amount",
                    "type": "uint256"
                }
            ],
            "name": "transfer",
            "outputs": [
                {
                    "internalType": "bool",
                    "name": "",
                    "type": "bool"
                }
            ],
            "stateMutability": "nonpayable",
            "type": "function"
        },
        {
            "inputs": [
                {
                    "internalType": "address",
                    "name": "from",
                    "type": "address"
                },
                {
                    "internalType": "address",
                    "name": "to",
                    "type": "address"
                },
                {
                    "internalType": "uint256",
                    "name": "amount",
                    "type": "uint256"
                }
            ],
            "name": "transferFrom",
            "outputs": [
                {
                    "internalType": "bool",
                    "name": "",
                    "type": "bool"
                }
            ],
            "stateMutability": "nonpayable",
            "type": "function"
        },
        {
            "inputs": [
                {
                    "internalType": "address",
                    "name": "newOwner",
                    "type": "address"
                },
                {
                    "internalType": "bool",
                    "name": "direct",
                    "type": "bool"
                },
                {
                    "internalType": "bool",
                    "name": "renounce",
                    "type": "bool"
                }
            ],
            "name": "transferOwnership",
            "outputs": [],
            "stateMutability": "nonpayable",
            "type": "function"
        },
        {
            "inputs": [],
            "name": "updateExchangeRate",
            "outputs": [
                {
                    "internalType": "bool",
                    "name": "updated",
                    "type": "bool"
                },
                {
                    "internalType": "uint256",
                    "name": "rate",
                    "type": "uint256"
                }
            ],
            "stateMutability": "nonpayable",
            "type": "function"
        },
        {
            "inputs": [
                {
                    "internalType": "address",
                    "name": "",
                    "type": "address"
                }
            ],
            "name": "userBorrowPart",
            "outputs": [
                {
                    "internalType": "uint256",
                    "name": "",
                    "type": "uint256"
                }
            ],
            "stateMutability": "view",
            "type": "function"
        },
        {
            "inputs": [
                {
                    "internalType": "address",
                    "name": "",
                    "type": "address"
                }
            ],
            "name": "userCollateralShare",
            "outputs": [
                {
                    "internalType": "uint256",
                    "name": "",
                    "type": "uint256"
                }
            ],
            "stateMutability": "view",
            "type": "function"
        },
        {
            "inputs": [],
            "name": "withdrawFees",
            "outputs": [],
            "stateMutability": "nonpayable",
            "type": "function"
        }
    ],
    "transactionHash": "0x1c99aee13718bd5893fd3254f636bde42157adb4fa5242c8b13212a7e121a1c9",
    "args": [
        "0x41F00fb5bCc6Cd212954a4d8de58B06abc9ef168"
    ],
    "solcInputHash": "8086332c48afeba9a63689565b9f5ce9",
    "bytecode": "0x6101006040523480156200001257600080fd5b506040516200621c3803806200621c833981016040819052620000359162000110565b4660a08190526200004681620000ba565b60805250600380546001600160a01b031916339081179091556040516000907f8be0079c531659141344cd1fd0a4f28419497f9722a3daafe3b4186f6b6457e0908290a36001600160601b0319606091821b1660c05230901b60e052600580546001600160a01b031916331790556200015f565b60007f47e79534a245952e8b16893a336b85a3d9ea9fa8c573f3d803afb92a794692188230604051602001620000f39392919062000140565b604051602081830303815290604052805190602001209050919050565b60006020828403121562000122578081fd5b81516001600160a01b038116811462000139578182fd5b9392505050565b92835260208301919091526001600160a01b0316604082015260600190565b60805160a05160c05160601c60e05160601c615fe66200023660003980610e0c5280611f9f528061228f5280612970525080611496528061165e528061173652806118a95280611a4e5280611b7d5280611ef6528061205a528061218a52806122495280612423528061256c52806126d05280612e0d528061336c5280613474528061353652806136ee52806137ae528061397f5280613c4d5280613d9c5280613ec55280614052528061410852806141e45280614369528061466452806146eb525080610d35525080610d6a5250615fe66000f3fe6080604052600436106102f25760003560e01c8063656f3d641161018f5780638da5cb5b116100e1578063d8dfeb451161008a578063f46901ed11610064578063f46901ed146107bb578063f8ba4cff146107db578063f9557ccb146107f0576102f2565b8063d8dfeb4514610771578063dd62ed3e14610786578063e30c3978146107a6576102f2565b8063b27c0e74116100bb578063b27c0e7414610718578063cd446e221461073c578063d505accf14610751576102f2565b80638da5cb5b146106ce57806395d89b41146106e3578063a9059cbb146106f8576102f2565b80637dc0d1d011610143578063860ffea11161011d578063860ffea11461066e578063876467f81461068e5780638cad7fbe146106ae576102f2565b80637dc0d1d0146106165780637ecebe001461062b5780638285ef401461064b576102f2565b806370a082311161017457806370a08231146105c157806374645ff3146105e157806376ee101b146105f6576102f2565b8063656f3d64146105995780636b2ace87146105ac576102f2565b8063313ce56711610248578063473e3ce7116101fc5780634b8a3529116101d65780634b8a3529146105435780634ddf47d4146105715780634e71e0c814610584576102f2565b8063473e3ce7146104f9578063476343ee1461050e57806348e4163e14610523576102f2565b806338d52e0f1161022d57806338d52e0f146104af5780633ba0b9a9146104c45780633f2617cb146104d9576102f2565b8063313ce567146104785780633644e5151461049a576102f2565b806315294c40116102aa5780631c9e379b116102845780631c9e379b146104185780632317ef671461043857806323b872dd14610458576102f2565b806315294c40146103b657806318160ddd146103e35780631b51e940146103f8576102f2565b806306fdde03116102db57806306fdde0314610345578063078dfbe714610367578063095ea7b314610389576102f2565b8063017e7e58146102f757806302ce728f14610322575b600080fd5b34801561030357600080fd5b5061030c610805565b6040516103199190615613565b60405180910390f35b34801561032e57600080fd5b50610337610814565b60405161031992919061566b565b34801561035157600080fd5b5061035a6108f1565b60405161031991906156f5565b34801561037357600080fd5b50610387610382366004614e87565b6109c9565b005b34801561039557600080fd5b506103a96103a4366004614f00565b610ab9565b6040516103199190615660565b3480156103c257600080fd5b506103d66103d1366004614ed1565b610b24565b604051610319919061567b565b3480156103ef57600080fd5b506103d6610b41565b34801561040457600080fd5b506103d6610413366004614ed1565b610b57565b34801561042457600080fd5b506103d6610433366004614c6f565b610b6c565b34801561044457600080fd5b506103d6610453366004614f00565b610b7e565b34801561046457600080fd5b506103a9610473366004614dd7565b610b99565b34801561048457600080fd5b5061048d610d13565b6040516103199190615e70565b3480156104a657600080fd5b506103d6610d30565b3480156104bb57600080fd5b5061030c610d90565b3480156104d057600080fd5b506103d6610d9f565b3480156104e557600080fd5b506103876104f4366004615316565b610da5565b34801561050557600080fd5b506103d6610dfa565b34801561051a57600080fd5b50610387610e00565b34801561052f57600080fd5b506103d661053e366004614c6f565b610f3d565b34801561054f57600080fd5b5061056361055e366004614f00565b610f4f565b604051610319929190615e1f565b61038761057f3660046150e4565b610f9d565b34801561059057600080fd5b50610387611080565b6105636105a7366004614fd1565b61110e565b3480156105b857600080fd5b5061030c611a4c565b3480156105cd57600080fd5b506103d66105dc366004614c6f565b611a70565b3480156105ed57600080fd5b5061035a611a82565b34801561060257600080fd5b50610387610611366004614f2b565b611b10565b34801561062257600080fd5b5061030c61261a565b34801561063757600080fd5b506103d6610646366004614c6f565b612629565b34801561065757600080fd5b5061066061263b565b604051610319929190615e05565b34801561067a57600080fd5b50610387610689366004614ed1565b612655565b34801561069a57600080fd5b506103876106a9366004614f00565b612736565b3480156106ba57600080fd5b506103a96106c9366004614c6f565b612776565b3480156106da57600080fd5b5061030c61278b565b3480156106ef57600080fd5b5061035a61279a565b34801561070457600080fd5b506103a9610713366004614f00565b61285e565b34801561072457600080fd5b5061072d61293b565b60405161031993929190615e43565b34801561074857600080fd5b5061030c61296e565b34801561075d57600080fd5b5061038761076c366004614e17565b612992565b34801561077d57600080fd5b5061030c612b33565b34801561079257600080fd5b506103d66107a1366004614d9f565b612b42565b3480156107b257600080fd5b5061030c612b5f565b3480156107c757600080fd5b506103876107d6366004614c6f565b612b6e565b3480156107e757600080fd5b50610387612be2565b3480156107fc57600080fd5b506106606131c7565b6005546001600160a01b031681565b60095460405163d6d7d52560e01b815260009182916001600160a01b039091169063d6d7d5259061084a90600a90600401615708565b6040805180830381600087803b15801561086357600080fd5b505af1158015610877573d6000803e3d6000fd5b505050506040513d601f19601f8201168201806040525081019061089b9190615083565b909250905081156108e85760108190556040517f9f9192b5edb17356c524e08d9e025c8e2f6307e6ea52fb7968faa3081f51c3c8906108db90839061567b565b60405180910390a16108ed565b506010545b9091565b600754606090610909906001600160a01b03166131e1565b60085461091e906001600160a01b03166131e1565b60095460405163355a219b60e21b81526001600160a01b039091169063d568866c9061094f90600a90600401615708565b60006040518083038186803b15801561096757600080fd5b505afa15801561097b573d6000803e3d6000fd5b505050506040513d6000823e601f3d908101601f191682016040526109a391908101906153a5565b6040516020016109b59392919061551e565b604051602081830303815290604052905090565b6003546001600160a01b031633146109fc5760405162461bcd60e51b81526004016109f390615be3565b60405180910390fd5b8115610a98576001600160a01b038316151580610a165750805b610a325760405162461bcd60e51b81526004016109f3906159f4565b6003546040516001600160a01b038086169216907f8be0079c531659141344cd1fd0a4f28419497f9722a3daafe3b4186f6b6457e090600090a3600380546001600160a01b0385166001600160a01b031991821617909155600480549091169055610ab4565b600480546001600160a01b0319166001600160a01b0385161790555b505050565b3360008181526001602090815260408083206001600160a01b038716808552925280832085905551919290917f8c5be1e5ebec7d5bd14f71427d1e84f3dd0314c0f7b2291e5b200ac8c7c3b92590610b1290869061567b565b60405180910390a35060015b92915050565b6000610b2e612be2565b610b398484846132a6565b949350505050565b600c54600160801b90046001600160801b031690565b6000610b61612be2565b610b398484846134df565b600e6020526000908152604090205481565b6000610b88612be2565b610b92838361375a565b9392505050565b60008115610cbe576001600160a01b03841660009081526020819052604090205482811015610bda5760405162461bcd60e51b81526004016109f390615cbb565b836001600160a01b0316856001600160a01b031614610cbc576001600160a01b03851660009081526001602090815260408083203384529091529020546000198114610c695783811015610c405760405162461bcd60e51b81526004016109f390615b07565b6001600160a01b0386166000908152600160209081526040808320338452909152902084820390555b6001600160a01b038516610c8f5760405162461bcd60e51b81526004016109f390615986565b506001600160a01b0380861660009081526020819052604080822086850390559186168152208054840190555b505b826001600160a01b0316846001600160a01b03167fddf252ad1be2c89b69c2b068fc378daa952ba7f163c4a11628f55a4df523b3ef84604051610d01919061567b565b60405180910390a35060019392505050565b600854600090610d2b906001600160a01b03166139f8565b905090565b6000467f00000000000000000000000000000000000000000000000000000000000000008114610d6857610d6381613ab1565b610d8a565b7f00000000000000000000000000000000000000000000000000000000000000005b91505090565b6008546001600160a01b031681565b60105481565b6003546001600160a01b03163314610dcf5760405162461bcd60e51b81526004016109f390615be3565b6001600160a01b03919091166000908152600660205260409020805460ff1916911515919091179055565b600b5481565b610e08612be2565b60007f00000000000000000000000000000000000000000000000000000000000000006001600160a01b031663017e7e586040518163ffffffff1660e01b815260040160206040518083038186803b158015610e6357600080fd5b505afa158015610e77573d6000803e3d6000fd5b505050506040513d601f19601f82011682018060405250810190610e9b9190614c8b565b6011546001600160a01b038216600090815260208190526040902054919250600160801b90046001600160801b031690610ed59082613b05565b6001600160a01b0383166000818152602081905260409081902092909255601180546001600160801b0316905590517fbe641c3ffc44b2d6c184f023fa4ed7bda4b6ffa71e03b3c98ae0c776da1f17e790610f3190849061567b565b60405180910390a25050565b600f6020526000908152604090205481565b600080610f5a612be2565b610f648484613b28565b8092508193505050610f7a336000601054613e16565b610f965760405162461bcd60e51b81526004016109f390615bac565b9250929050565b6007546001600160a01b031615610fc65760405162461bcd60e51b81526004016109f39061594f565b610fd28183018361526b565b805160079060009060089082906009908290610ff590600a9060208a0190614aa1565b5081546001600160a01b0398891661010092830a908102908a021990911617909155825497871691810a918202918702199097161790558154958416940a938402938302199094169290921790925550600754166110655760405162461bcd60e51b81526004016109f390615ad0565b50506011805467ffffffffffffffff19166312e687c0179055565b6004546001600160a01b03163381146110ab5760405162461bcd60e51b81526004016109f390615c18565b6003546040516001600160a01b038084169216907f8be0079c531659141344cd1fd0a4f28419497f9722a3daafe3b4186f6b6457e090600090a3600380546001600160a01b039092166001600160a01b0319928316179055600480549091169055565b600080611119614b1b565b60005b88811015611a0e5760008a8a8381811061113257fe5b90506020020160208101906111479190615455565b9050826020015115801561115e5750600a8160ff16105b156111735761116b612be2565b600160208401525b60ff8116600a14156111cd57600080600089898681811061119057fe5b90506020028101906111a29190615e7e565b8101906111af919061537f565b9250925092506111c58282610689868c8c613f91565b505050611a05565b60ff81166001141561122e5760008060008989868181106111ea57fe5b90506020028101906111fc9190615e7e565b810190611209919061537f565b925092509250611224828261121f868c8c613f91565b6134df565b9750505050611a05565b60ff81166002141561128e57600080600089898681811061124b57fe5b905060200281019061125d9190615e7e565b81019061126a919061537f565b9250925092506112858282611280868c8c613f91565b6132a6565b50505050611a05565b60ff8116600314156112e9576000808888858181106112a957fe5b90506020028101906112bb9190615e7e565b8101906112c8919061535b565b915091506112e0816112db848a8a613f91565b61375a565b96505050611a05565b60ff8116600414156113465760008088888581811061130457fe5b90506020028101906113169190615e7e565b810190611323919061535b565b9150915061133b81611336848a8a613f91565b613fb9565b505060018352611a05565b60ff8116600514156113a95760008088888581811061136157fe5b90506020028101906113739190615e7e565b810190611380919061535b565b9150915061139881611393848a8a613f91565b613b28565b600187529097509550611a05915050565b60ff8116600b14156114485760008060008989868181106113c657fe5b90506020028101906113d89190615e7e565b8101906113e591906150b0565b9250925092506000806113f6610814565b915091508415806114045750815b801561140f57508381115b8015611422575082158061142257508281115b61143e5760405162461bcd60e51b81526004016109f390615d97565b5050505050611a05565b60ff811660181415611527576000806000806000808c8c8981811061146957fe5b905060200281019061147b9190615e7e565b8101906114889190614ca7565b9550955095509550955095507f00000000000000000000000000000000000000000000000000000000000000006001600160a01b031663c0a47c938787878787876040518763ffffffff1660e01b81526004016114ea96959493929190615627565b600060405180830381600087803b15801561150457600080fd5b505af1158015611518573d6000803e3d6000fd5b50505050505050505050611a05565b60ff8116601414156115af576115a587878481811061154257fe5b90506020028101906115549190615e7e565b8080601f0160208091040260200160405190810160405280939291908181526020018383808284376000920191909152508d92508c915086905081811061159757fe5b9050602002013587876140c7565b9095509350611a05565b60ff81166015141561161a576115a58787848181106115ca57fe5b90506020028101906115dc9190615e7e565b8080601f0160208091040260200160405190810160405280939291908181526020018383808284376000920191909152508992508891506141bd9050565b60ff8116601614156116f257600080600089898681811061163757fe5b90506020028101906116499190615e7e565b8101906116569190614dd7565b9250925092507f00000000000000000000000000000000000000000000000000000000000000006001600160a01b031663f18d03cc843385611699868e8e613f91565b6040518563ffffffff1660e01b81526004016116b894939291906157ac565b600060405180830381600087803b1580156116d257600080fd5b505af11580156116e6573d6000803e3d6000fd5b50505050505050611a05565b60ff81166017141561178657600060608089898681811061170f57fe5b90506020028101906117219190615e7e565b81019061172e9190615198565b9250925092507f00000000000000000000000000000000000000000000000000000000000000006001600160a01b0316630fca8843843385856040518563ffffffff1660e01b81526004016116b8949392919061580a565b60ff8116601e141561186057606060006118088b8b868181106117a557fe5b905060200201358a8a878181106117b857fe5b90506020028101906117ca9190615e7e565b8080601f0160208091040260200160405190810160405280939291908181526020018383808284376000920191909152508c92508b91506142ab9050565b915091508060ff1660011415611833578180602001905181019061182c919061541a565b9650611859565b8060ff166002141561185957818060200190518101906118539190615432565b90975095505b5050611a05565b60ff81166006141561198857600087878481811061187a57fe5b905060200281019061188c9190615e7e565b8101906118999190615343565b6008549091506001600160a01b037f000000000000000000000000000000000000000000000000000000000000000081169163da5139ca91166119106118e0858b8b613f91565b60408051808201909152600d546001600160801b038082168352600160801b909104166020820152906001614461565b60016040518463ffffffff1660e01b8152600401611930939291906158d0565b60206040518083038186803b15801561194857600080fd5b505afa15801561195c573d6000803e3d6000fd5b505050506040513d601f19601f82011682018060405250810190611980919061541a565b955050611a05565b60ff811660071415611a055760008787848181106119a257fe5b90506020028101906119b49190615e7e565b8101906119c19190615343565b9050611a016119d1828888613f91565b60408051808201909152600d546001600160801b038082168352600160801b9091041660208201529060006144fa565b9550505b5060010161111c565b50805115611a4057611a24336000601054613e16565b611a405760405162461bcd60e51b81526004016109f390615bac565b50965096945050505050565b7f000000000000000000000000000000000000000000000000000000000000000081565b60006020819052908152604090205481565b600a805460408051602060026001851615610100026000190190941693909304601f81018490048402820184019092528181529291830182828015611b085780601f10611add57610100808354040283529160200191611b08565b820191906000526020600020905b815481529060010190602001808311611aeb57829003601f168201915b505050505081565b6000611b1a610814565b915050611b25612be2565b6000806000611b32614b1b565b5060408051808201909152600d546001600160801b038082168352600160801b909104166020820152611b63614b1b565b600754604051634ffe34db60e01b81526001600160a01b037f0000000000000000000000000000000000000000000000000000000000000000811692634ffe34db92611bb6929190911690600401615613565b604080518083038186803b158015611bcd57600080fd5b505afa158015611be1573d6000803e3d6000fd5b505050506040513d601f19601f82011682018060405250810190611c0591906153d8565b905060005b8c811015611e2c5760008e8e83818110611c2057fe5b9050602002016020810190611c359190614c6f565b9050611c42818a8a613e16565b611e23576001600160a01b0381166000908152600f6020526040812054808f8f86818110611c6c57fe5b9050602002013511611c90578e8e85818110611c8457fe5b90506020020135611c92565b805b9150611c9e8183614573565b6001600160a01b0384166000908152600f60205260408120919091559050611cc7868383614461565b90506000611d0269152d02c7e14af6800000611cf08d611cea866201b580614596565b90614596565b81611cf757fe5b8891900460006144fa565b6001600160a01b0385166000908152600e6020526040902054909150611d289082614573565b6001600160a01b038086166000908152600e60205260409020919091558d1615611d52578c611d54565b8d5b6001600160a01b0316846001600160a01b03167f8ad4d3ff00da092c7ad9a573ea4f5f6a3dffc6712dc06d3f78f49b862297c40283604051611d96919061567b565b60405180910390a36001600160a01b03808516908e1615611db7578d611db9565b335b6001600160a01b03167fc8e512d8f188ca059984b5853d2bf653da902696b8512785b182b2c813789a6e8486604051611df3929190615e1f565b60405180910390a3611e058a82613b05565b9950611e118983613b05565b9850611e1d8884613b05565b97505050505b50600101611c0a565b5083611e4a5760405162461bcd60e51b81526004016109f3906159bd565b611e67611e56856145cd565b83516001600160801b0316906145fa565b6001600160801b03168252611e92611e7e846145cd565b60208401516001600160801b0316906145fa565b6001600160801b03908116602084018190528351600d80546001600160801b03191691841691909117909216600160801b909102179055600b54611ed69086614573565b600b55600854604051636d289ce560e11b81526000916001600160a01b037f000000000000000000000000000000000000000000000000000000000000000081169263da5139ca92611f3192169089906001906004016158d0565b60206040518083038186803b158015611f4957600080fd5b505afa158015611f5d573d6000803e3d6000fd5b505050506040513d601f19601f82011682018060405250810190611f81919061541a565b90508761241657604051634656bfdf60e11b81526001600160a01b037f00000000000000000000000000000000000000000000000000000000000000001690638cad7fbe90611fd4908c90600401615613565b60206040518083038186803b158015611fec57600080fd5b505afa158015612000573d6000803e3d6000fd5b505050506040513d601f19601f820116820180604052508101906120249190615067565b6120405760405162461bcd60e51b81526004016109f390615d29565b600754604051633c6340f360e21b81526001600160a01b037f000000000000000000000000000000000000000000000000000000000000000081169263f18d03cc9261209992919091169030908e908c906004016157ac565b600060405180830381600087803b1580156120b357600080fd5b505af11580156120c7573d6000803e3d6000fd5b50506007546008546040516371a1ff0960e11b81526001600160a01b03808f16955063e343fe129450612107938116921690309087908d906004016157d6565b6040805180830381600087803b15801561212057600080fd5b505af1158015612134573d6000803e3d6000fd5b505050506040513d601f19601f820116820180604052508101906121589190615432565b5050600c54600854604051633de222bb60e21b815260009261221b926001600160801b03909116916001600160a01b037f000000000000000000000000000000000000000000000000000000000000000081169263f7888aec926121c59291909116903090600401615792565b60206040518083038186803b1580156121dd57600080fd5b505afa1580156121f1573d6000803e3d6000fd5b505050506040513d601f19601f82011682018060405250810190612215919061541a565b90614573565b905060006122298284614573565b90506000620186a061223d83612710614596565b8161224457fe5b0490507f00000000000000000000000000000000000000000000000000000000000000006001600160a01b031663f18d03cc600860009054906101000a90046001600160a01b0316307f00000000000000000000000000000000000000000000000000000000000000006001600160a01b031663017e7e586040518163ffffffff1660e01b815260040160206040518083038186803b1580156122e657600080fd5b505afa1580156122fa573d6000803e3d6000fd5b505050506040513d601f19601f8201168201806040525081019061231e9190614c8b565b856040518563ffffffff1660e01b815260040161233e94939291906157ac565b600060405180830381600087803b15801561235857600080fd5b505af115801561236c573d6000803e3d6000fd5b505050506123a061238e612389838661457390919063ffffffff16565b6145cd565b600c546001600160801b031690614629565b600c80546001600160801b0319166001600160801b0392909216919091179055306001600160a01b038d167f30a8c4f9ab5af7e1309ca87c32377d1a83366c5990472dbf9d262450eae14e386123f68585614573565b6000604051612406929190615e1f565b60405180910390a350505061260a565b6007546001600160a01b037f000000000000000000000000000000000000000000000000000000000000000081169163f18d03cc919081169030908d161561245e578c612460565b8d5b8a6040518563ffffffff1660e01b815260040161248094939291906157ac565b600060405180830381600087803b15801561249a57600080fd5b505af11580156124ae573d6000803e3d6000fd5b505050506001600160a01b03891615612552576007546008546040516371a1ff0960e11b81526001600160a01b03808d169363e343fe12936124fe93918316921690339087908d906004016157d6565b6040805180830381600087803b15801561251757600080fd5b505af115801561252b573d6000803e3d6000fd5b505050506040513d601f19601f8201168201806040525081019061254f9190615432565b50505b600854604051633c6340f360e21b81526001600160a01b037f000000000000000000000000000000000000000000000000000000000000000081169263f18d03cc926125ab9291909116903390309087906004016157ac565b600060405180830381600087803b1580156125c557600080fd5b505af11580156125d9573d6000803e3d6000fd5b505050506125e961238e826145cd565b600c80546001600160801b0319166001600160801b03929092169190911790555b5050505050505050505050505050565b6009546001600160a01b031681565b60026020526000908152604090205481565b600d546001600160801b0380821691600160801b90041682565b6001600160a01b0383166000908152600e60205260409020546126789082613b05565b6001600160a01b0384166000908152600e6020526040902055600b5461269e8183613b05565b600b556007546126b9906001600160a01b0316838386614658565b836001600160a01b0316836126ce57336126f0565b7f00000000000000000000000000000000000000000000000000000000000000005b6001600160a01b03167f9ed03113de523cebfe5e49d5f8e12894b1c0d42ce805990461726444c90eab8784604051612728919061567b565b60405180910390a350505050565b61273e612be2565b6127488282613fb9565b612756336000601054613e16565b6127725760405162461bcd60e51b81526004016109f390615bac565b5050565b60066020526000908152604090205460ff1681565b6003546001600160a01b031681565b6007546060906127b2906001600160a01b031661475f565b6008546127c7906001600160a01b031661475f565b60095460405163634ce26b60e11b81526001600160a01b039091169063c699c4d6906127f890600a90600401615708565b60006040518083038186803b15801561281057600080fd5b505afa158015612824573d6000803e3d6000fd5b505050506040513d6000823e601f3d908101601f1916820160405261284c91908101906153a5565b6040516020016109b5939291906155a6565b600081156128f85733600090815260208190526040902054828110156128965760405162461bcd60e51b81526004016109f390615cbb565b336001600160a01b038516146128f6576001600160a01b0384166128cc5760405162461bcd60e51b81526004016109f390615986565b3360009081526020819052604080822085840390556001600160a01b038616825290208054840190555b505b826001600160a01b0316336001600160a01b03167fddf252ad1be2c89b69c2b068fc378daa952ba7f163c4a11628f55a4df523b3ef84604051610b12919061567b565b60115467ffffffffffffffff8082169168010000000000000000810490911690600160801b90046001600160801b031683565b7f000000000000000000000000000000000000000000000000000000000000000081565b6001600160a01b0387166129b85760405162461bcd60e51b81526004016109f390615c4d565b8342106129d75760405162461bcd60e51b81526004016109f390615b75565b6001600160a01b0387166000818152600260209081526040918290208054600181810190925592519092612a5592612a3a927f6e71edae12b1b97f4d1f60370fef10105fa2faae0126114a169c64845d6126c9928e928e928e92918e9101615684565b604051602081830303815290604052805190602001206147a6565b85858560405160008152602001604052604051612a7594939291906156d7565b6020604051602081039080840390855afa158015612a97573d6000803e3d6000fd5b505050602060405103516001600160a01b031614612ac75760405162461bcd60e51b81526004016109f390615dce565b6001600160a01b038088166000818152600160209081526040808320948b168084529490915290819020889055517f8c5be1e5ebec7d5bd14f71427d1e84f3dd0314c0f7b2291e5b200ac8c7c3b92590612b2290899061567b565b60405180910390a350505050505050565b6007546001600160a01b031681565b600160209081526000928352604080842090915290825290205481565b6004546001600160a01b031681565b6003546001600160a01b03163314612b985760405162461bcd60e51b81526004016109f390615be3565b600580546001600160a01b0319166001600160a01b0383169081179091556040517fcf1d3f17e521c635e0d20b8acba94ba170afc041d0546d46dafa09d3c9c19eb390600090a250565b612bea614b32565b506040805160608101825260115467ffffffffffffffff80821683526801000000000000000082041660208301819052600160801b9091046001600160801b03169282019290925290420380612c415750506131c5565b67ffffffffffffffff42166020830152612c59614b1b565b5060408051808201909152600d546001600160801b038082168352600160801b9091041660208201819052612d5757825167ffffffffffffffff166312e687c014612ce4576312e687c08084526040517f33af5ce86e8438eff54589f85332916444457dfa8685493fbd579b809097026b91612cdb91600091829182906158f3565b60405180910390a15b5050805160118054602084015160409094015167ffffffffffffffff1990911667ffffffffffffffff938416176fffffffffffffffff00000000000000001916680100000000000000009390941692909202929092176001600160801b03908116600160801b91909216021790556131c5565b600080612d62614b1b565b5060408051808201909152600c546001600160801b038082168352600160801b9091048116602083015286518551670de0b6b3a764000092612db5928992611cea92169067ffffffffffffffff16614596565b81612dbc57fe5b049250612ddc612dcb846145cd565b85516001600160801b031690614629565b6001600160801b03168085526008548251604051630acc462360e31b8152600093612e9d9390926001600160a01b037f0000000000000000000000000000000000000000000000000000000000000000811693635662311893612e47939216919088906004016158a4565b60206040518083038186803b158015612e5f57600080fd5b505afa158015612e73573d6000803e3d6000fd5b505050506040513d601f19601f82011682018060405250810190612e97919061541a565b90613b05565b90506000620186a0612eb186612710614596565b81612eb857fe5b04905081612edc84602001516001600160801b03168361459690919063ffffffff16565b81612ee357fe5b049350612f06612ef2856145cd565b60408a01516001600160801b031690614629565b6001600160801b03166040890152612f34612f20856145cd565b60208501516001600160801b031690614629565b600c80546001600160801b03908116600160801b9382168402179091558751600d805460208b01516001600160801b031990911692841692831784169316909302919091179091556000908390612f9390670de0b6b3a7640000614596565b81612f9a57fe5b0490506709b6e64a8ec6000081101561305e5760006709b6e64a8ec60000612fce670de0b6b3a7640000611cea8386614573565b81612fd557fe5b0490506000613003612feb8b611cea8580614596565b7054a2b63d65d79d094abb6688000000000090613b05565b8b51909150819061302f9067ffffffffffffffff167054a2b63d65d79d094abb66880000000000614596565b8161303657fe5b0467ffffffffffffffff16808c526304b9a1f01115613057576304b9a1f08b525b5050613111565b670b1a2bc2ec5000008111156131115760006702c68af0bb140000613097670de0b6b3a7640000611cea85670b1a2bc2ec500000614573565b8161309e57fe5b04905060006130b4612feb8b611cea8580614596565b8b519091506000907054a2b63d65d79d094abb66880000000000906130e39067ffffffffffffffff1684614596565b816130ea57fe5b0490506449d482460081111561310257506449d48246005b67ffffffffffffffff168b5250505b88516040517f33af5ce86e8438eff54589f85332916444457dfa8685493fbd579b809097026b91613147918991899186906158f3565b60405180910390a1505086516011805460208a01516040909a015167ffffffffffffffff1990911667ffffffffffffffff938416176fffffffffffffffff000000000000000019166801000000000000000093909a1692909202989098176001600160801b03908116600160801b9190921602179096555050505050505b565b600c546001600160801b0380821691600160801b90041682565b60408051600481526024810182526020810180516001600160e01b03166306fdde0360e01b179052905160609160009183916001600160a01b0386169161322891906154b9565b600060405180830381855afa9150503d8060008114613263576040519150601f19603f3d011682016040523d82523d6000602084013e613268565b606091505b50915091508161329357604051806040016040528060038152602001623f3f3f60e81b81525061329c565b61329c816147de565b925050505b919050565b60408051808201909152600d546001600160801b038082168352600160801b9091041660208201526000906132dd9083600161498c565b8151600d80546020948501516001600160801b03908116600160801b029381166001600160801b031990921691909117169190911790556001600160a01b0386166000908152600f90925260409091205490915061333b9083614573565b6001600160a01b038086166000908152600f6020526040808220939093556008549251636d289ce560e11b815290927f000000000000000000000000000000000000000000000000000000000000000083169263da5139ca926133a9929091169086906001906004016158d0565b60206040518083038186803b1580156133c157600080fd5b505afa1580156133d5573d6000803e3d6000fd5b505050506040513d601f19601f820116820180604052508101906133f9919061541a565b600c546008549192506001600160801b031690613421906001600160a01b0316838388614658565b61343d61342d836145cd565b6001600160801b03831690614629565b600c80546001600160801b0319166001600160801b03929092169190911790556001600160a01b038616856134725733613494565b7f00000000000000000000000000000000000000000000000000000000000000005b6001600160a01b03167fc8e512d8f188ca059984b5853d2bf653da902696b8512785b182b2c813789a6e85876040516134ce929190615e1f565b60405180910390a350509392505050565b60006134e9614b1b565b50604080518082018252600c546001600160801b03808216808452600160801b90920481166020840152600854600d549451636d289ce560e11b8152939492936000936001600160a01b037f000000000000000000000000000000000000000000000000000000000000000081169463da5139ca946135729492169216906001906004016158a4565b60206040518083038186803b15801561358a57600080fd5b505afa15801561359e573d6000803e3d6000fd5b505050506040513d601f19601f820116820180604052508101906135c2919061541a565b83516001600160801b0316019050801561360457806135f784602001516001600160801b03168761459690919063ffffffff16565b816135fe57fe5b04613606565b845b93506103e861362b613617866145cd565b60208601516001600160801b031690614629565b6001600160801b031610156136465760009350505050610b92565b613651838686614a01565b8051600c80546020938401516001600160801b03908116600160801b029381166001600160801b031990921691909117169190911790556001600160a01b03881660009081529081905260409020546136aa9085613b05565b6001600160a01b038089166000908152602081905260409020919091556008546136d79116868489614658565b866001600160a01b0316866136ec573361370e565b7f00000000000000000000000000000000000000000000000000000000000000005b6001600160a01b03167f30a8c4f9ab5af7e1309ca87c32377d1a83366c5990472dbf9d262450eae14e388787604051613748929190615e1f565b60405180910390a35050509392505050565b6000613764614b1b565b50604080518082018252600c546001600160801b038082168352600160801b90910481166020830152600854600d549351636d289ce560e11b815292936000936001600160a01b037f000000000000000000000000000000000000000000000000000000000000000081169463da5139ca946137eb949216929116906001906004016158a4565b60206040518083038186803b15801561380357600080fd5b505afa158015613817573d6000803e3d6000fd5b505050506040513d601f19601f8201168201806040525081019061383b919061541a565b825160208401516001600160801b039182169290920192501661385e8583614596565b8161386557fe5b3360009081526020819052604090205491900493506138849085614573565b336000908152602081905260409020556138a0611e56846145cd565b6001600160801b031682526138b7611e7e856145cd565b6001600160801b0316602083018190526103e811156138e85760405162461bcd60e51b81526004016109f390615c84565b8151600c805460208501516001600160801b03908116600160801b029381166001600160801b031990921691909117169190911790556040516001600160a01b0386169033907f6e853a5fd6b51d773691f542ebac8513c9992a51380d4c342031056a641142289061395d9087908990615e1f565b60405180910390a3600854604051633c6340f360e21b81526001600160a01b037f000000000000000000000000000000000000000000000000000000000000000081169263f18d03cc926139be92919091169030908a9089906004016157ac565b600060405180830381600087803b1580156139d857600080fd5b505af11580156139ec573d6000803e3d6000fd5b50505050505092915050565b60408051600481526024810182526020810180516001600160e01b031663313ce56760e01b179052905160009182916060916001600160a01b03861691613a3f91906154b9565b600060405180830381855afa9150503d8060008114613a7a576040519150601f19603f3d011682016040523d82523d6000602084013e613a7f565b606091505b5091509150818015613a92575080516020145b613a9d57601261329c565b8080602001905181019061329c9190615471565b60007f47e79534a245952e8b16893a336b85a3d9ea9fa8c573f3d803afb92a794692188230604051602001613ae8939291906156b8565b604051602081830303815290604052805190602001209050919050565b81810181811015610b1e5760405162461bcd60e51b81526004016109f390615a99565b60008080620186a0613b3b856032614596565b81613b4257fe5b049050613b82613b528583613b05565b60408051808201909152600d546001600160801b038082168352600160801b909104166020820152906001614a42565b8151600d80546020948501516001600160801b03908116600160801b029381166001600160801b03199092169190911716919091179055336000908152600f909252604090912054909350613bd79084613b05565b336000818152600f6020526040908190209290925590516001600160a01b03871691907f3a5151e57d3bc9798e7853034ac52293d1a0e12a2b44725e75b03b21f86477a690613c2b90889086908990615e2d565b60405180910390a3600854604051636d289ce560e11b81526001600160a01b037f000000000000000000000000000000000000000000000000000000000000000081169263da5139ca92613c8b92919091169088906000906004016158d0565b60206040518083038186803b158015613ca357600080fd5b505afa158015613cb7573d6000803e3d6000fd5b505050506040513d601f19601f82011682018060405250810190613cdb919061541a565b9150613ce5614b1b565b5060408051808201909152600c546001600160801b038082168352600160801b90910416602082018190526103e81115613d315760405162461bcd60e51b81526004016109f390615c84565b613d4e613d3d846145cd565b82516001600160801b0316906145fa565b6001600160801b03908116808352600c805460208501518416600160801b026001600160801b0319909116909217909216179055600854604051633c6340f360e21b81526001600160a01b037f000000000000000000000000000000000000000000000000000000000000000081169263f18d03cc92613ddb92919091169030908b9089906004016157ac565b600060405180830381600087803b158015613df557600080fd5b505af1158015613e09573d6000803e3d6000fd5b5050505050509250929050565b6001600160a01b0383166000908152600f602052604081205480613e3e576001915050610b92565b6001600160a01b0385166000908152600e602052604090205480613e6757600092505050610b92565b613e6f614b1b565b5060408051808201909152600d546001600160801b03808216808452600160801b909204166020830181905290613ead908790611cea908790614596565b81613eb457fe5b600754919004906001600160a01b037f000000000000000000000000000000000000000000000000000000000000000081169163566231189116613f148a613eff57620124f8613f04565b62012cc85b611cea886509184e72a000614596565b60006040518463ffffffff1660e01b8152600401613f34939291906158d0565b60206040518083038186803b158015613f4c57600080fd5b505afa158015613f60573d6000803e3d6000fd5b505050506040513d601f19601f82011682018060405250810190613f84919061541a565b1015979650505050505050565b600080841215613fb1576000198414613faa5781613fac565b825b610b39565b509192915050565b336000908152600e6020526040902054613fd39082614573565b336000908152600e6020526040902055600b54613ff09082614573565b600b556040516001600160a01b0383169033907f8ad4d3ff00da092c7ad9a573ea4f5f6a3dffc6712dc06d3f78f49b862297c4029061403090859061567b565b60405180910390a3600754604051633c6340f360e21b81526001600160a01b037f000000000000000000000000000000000000000000000000000000000000000081169263f18d03cc926140919291909116903090879087906004016157ac565b600060405180830381600087803b1580156140ab57600080fd5b505af11580156140bf573d6000803e3d6000fd5b505050505050565b600080600080600080898060200190518101906140e49190615151565b93509350935093506140f7828989613f91565b9150614104818989613f91565b90507f00000000000000000000000000000000000000000000000000000000000000006001600160a01b03166302b9446c8a86338787876040518763ffffffff1660e01b815260040161415b9594939291906157d6565b60408051808303818588803b15801561417357600080fd5b505af1158015614187573d6000803e3d6000fd5b50505050506040513d601f19601f820116820180604052508101906141ac9190615432565b955095505050505094509492505050565b600080600080600080888060200190518101906141da9190615151565b93509350935093507f00000000000000000000000000000000000000000000000000000000000000006001600160a01b03166397da6d3085338661421f878e8e613f91565b61422a878f8f613f91565b6040518663ffffffff1660e01b815260040161424a9594939291906157d6565b6040805180830381600087803b15801561426357600080fd5b505af1158015614277573d6000803e3d6000fd5b505050506040513d601f19601f8201168201806040525081019061429b9190615432565b9550955050505050935093915050565b606060008060606000806000898060200190518101906142cb9190614d14565b945094509450945094508280156142e0575081155b1561430e5783896040516020016142f89291906154d5565b6040516020818303038152906040529350614367565b821580156143195750815b156143315783886040516020016142f89291906154d5565b82801561433b5750815b1561436757838989604051602001614355939291906154f7565b60405160208183030381529060405293505b7f00000000000000000000000000000000000000000000000000000000000000006001600160a01b0316856001600160a01b0316141580156143b257506001600160a01b0385163014155b6143ce5760405162461bcd60e51b81526004016109f390615b3e565b60006060866001600160a01b03168d876040516143eb91906154b9565b60006040518083038185875af1925050503d8060008114614428576040519150601f19603f3d011682016040523d82523d6000602084013e61442d565b606091505b50915091508161444f5760405162461bcd60e51b81526004016109f390615a2b565b9c919b50909950505050505050505050565b600083602001516001600160801b031660001415614480575081610b92565b602084015184516001600160801b039182169161449f91869116614596565b816144a657fe5b0490508180156144ea57508284600001516001600160801b03166144e086602001516001600160801b03168461459690919063ffffffff16565b816144e757fe5b04105b15610b9257610b39816001613b05565b82516000906001600160801b0316614513575081610b92565b835160208501516001600160801b039182169161453291869116614596565b8161453957fe5b0490508180156144ea57508284602001516001600160801b03166144e086600001516001600160801b03168461459690919063ffffffff16565b80820382811115610b1e5760405162461bcd60e51b81526004016109f390615918565b60008115806145b1575050808202828282816145ae57fe5b04145b610b1e5760405162461bcd60e51b81526004016109f390615d60565b60006001600160801b038211156145f65760405162461bcd60e51b81526004016109f390615a62565b5090565b8082036001600160801b038084169082161115610b1e5760405162461bcd60e51b81526004016109f390615918565b8181016001600160801b038083169082161015610b1e5760405162461bcd60e51b81526004016109f390615a99565b80156146d4576146b0827f00000000000000000000000000000000000000000000000000000000000000006001600160a01b031663f7888aec87306040518363ffffffff1660e01b81526004016121c5929190615792565b8311156146cf5760405162461bcd60e51b81526004016109f390615cf2565b614759565b604051633c6340f360e21b81526001600160a01b037f0000000000000000000000000000000000000000000000000000000000000000169063f18d03cc906147269087903390309089906004016157ac565b600060405180830381600087803b15801561474057600080fd5b505af1158015614754573d6000803e3d6000fd5b505050505b50505050565b60408051600481526024810182526020810180516001600160e01b03166395d89b4160e01b179052905160609160009183916001600160a01b0386169161322891906154b9565b600060405180604001604052806002815260200161190160f01b8152506147cb610d30565b83604051602001613ae8939291906154f7565b6060604082511061480457818060200190518101906147fd91906153a5565b90506132a1565b81516020141561496c5760005b60208160ff161080156148585750828160ff168151811061482e57fe5b01602001517fff000000000000000000000000000000000000000000000000000000000000001615155b1561486557600101614811565b60608160ff1667ffffffffffffffff8111801561488157600080fd5b506040519080825280601f01601f1916602001820160405280156148ac576020820181803683370190505b509050600091505b60208260ff161080156148fb5750838260ff16815181106148d157fe5b01602001517fff000000000000000000000000000000000000000000000000000000000000001615155b1561496357838260ff168151811061490f57fe5b602001015160f81c60f81b818360ff168151811061492957fe5b60200101907effffffffffffffffffffffffffffffffffffffffffffffffffffffffffffff1916908160001a9053506001909101906148b4565b91506132a19050565b506040805180820190915260038152623f3f3f60e81b60208201526132a1565b614994614b1b565b60006149a1858585614461565b90506149c06149af826145cd565b86516001600160801b0316906145fa565b6001600160801b031685526149eb6149d7856145cd565b60208701516001600160801b0316906145fa565b6001600160801b03166020860152939492505050565b614a09614b1b565b614a15612dcb846145cd565b6001600160801b03168452614a2c613617836145cd565b6001600160801b03166020850152509192915050565b614a4a614b1b565b6000614a578585856144fa565b9050614a76614a65856145cd565b86516001600160801b031690614629565b6001600160801b031685526149eb614a8d826145cd565b60208701516001600160801b031690614629565b828054600181600116156101000203166002900490600052602060002090601f016020900481019282601f10614ae257805160ff1916838001178555614b0f565b82800160010185558215614b0f579182015b82811115614b0f578251825591602001919060010190614af4565b506145f6929150614b52565b604080518082019091526000808252602082015290565b604080516060810182526000808252602082018190529181019190915290565b5b808211156145f65760008155600101614b53565b8035610b1e81615f66565b60008083601f840112614b83578182fd5b50813567ffffffffffffffff811115614b9a578182fd5b6020830191508360208083028501011115610f9657600080fd5b600082601f830112614bc4578081fd5b8135614bd7614bd282615eea565b615ec3565b818152915060208083019084810181840286018201871015614bf857600080fd5b60005b84811015614c1757813584529282019290820190600101614bfb565b505050505092915050565b600082601f830112614c32578081fd5b8151614c40614bd282615f0a565b9150808252836020828501011115614c5757600080fd5b614c68816020840160208601615f3a565b5092915050565b600060208284031215614c80578081fd5b8135610b9281615f66565b600060208284031215614c9c578081fd5b8151610b9281615f66565b60008060008060008060c08789031215614cbf578182fd5b8635614cca81615f66565b95506020870135614cda81615f66565b94506040870135614cea81615f7e565b93506060870135614cfa81615fa1565b9598949750929560808101359460a0909101359350915050565b600080600080600060a08688031215614d2b578283fd5b8551614d3681615f66565b602087015190955067ffffffffffffffff811115614d52578384fd5b614d5e88828901614c22565b9450506040860151614d6f81615f7e565b6060870151909350614d8081615f7e565b6080870151909250614d9181615fa1565b809150509295509295909350565b60008060408385031215614db1578182fd5b8235614dbc81615f66565b91506020830135614dcc81615f66565b809150509250929050565b600080600060608486031215614deb578081fd5b8335614df681615f66565b92506020840135614e0681615f66565b929592945050506040919091013590565b600080600080600080600060e0888a031215614e31578485fd5b8735614e3c81615f66565b96506020880135614e4c81615f66565b955060408801359450606088013593506080880135614e6a81615fa1565b9699959850939692959460a0840135945060c09093013592915050565b600080600060608486031215614e9b578081fd5b8335614ea681615f66565b92506020840135614eb681615f7e565b91506040840135614ec681615f7e565b809150509250925092565b600080600060608486031215614ee5578081fd5b8335614ef081615f66565b92506020840135614e0681615f7e565b60008060408385031215614f12578182fd5b8235614f1d81615f66565b946020939093013593505050565b600080600080600080600060a0888a031215614f45578081fd5b873567ffffffffffffffff80821115614f5c578283fd5b614f688b838c01614b72565b909950975060208a0135915080821115614f80578283fd5b50614f8d8a828b01614b72565b9096509450506040880135614fa181615f66565b92506060880135614fb181615f66565b91506080880135614fc181615f7e565b8091505092959891949750929550565b60008060008060008060608789031215614fe9578384fd5b863567ffffffffffffffff80821115615000578586fd5b61500c8a838b01614b72565b90985096506020890135915080821115615024578586fd5b6150308a838b01614b72565b90965094506040890135915080821115615048578384fd5b5061505589828a01614b72565b979a9699509497509295939492505050565b600060208284031215615078578081fd5b8151610b9281615f7e565b60008060408385031215615095578182fd5b82516150a081615f7e565b6020939093015192949293505050565b6000806000606084860312156150c4578081fd5b83356150cf81615f7e565b95602085013595506040909401359392505050565b600080602083850312156150f6578182fd5b823567ffffffffffffffff8082111561510d578384fd5b818501915085601f830112615120578384fd5b81358181111561512e578485fd5b86602082850101111561513f578485fd5b60209290920196919550909350505050565b60008060008060808587031215615166578182fd5b845161517181615f66565b602086015190945061518281615f66565b6040860151606090960151949790965092505050565b6000806000606084860312156151ac578081fd5b83356151b781615f66565b925060208481013567ffffffffffffffff808211156151d4578384fd5b818701915087601f8301126151e7578384fd5b81356151f5614bd282615eea565b81815284810190848601868402860187018c1015615211578788fd5b8795505b8386101561523b576152278c82614b67565b835260019590950194918601918601615215565b50965050506040870135925080831115615253578384fd5b505061526186828701614bb4565b9150509250925092565b60008060008060808587031215615280578182fd5b843561528b81615f66565b9350602085013561529b81615f66565b925060408501356152ab81615f66565b9150606085013567ffffffffffffffff8111156152c6578182fd5b8501601f810187136152d6578182fd5b80356152e4614bd282615f0a565b8181528860208385010111156152f8578384fd5b81602084016020830137908101602001929092525092959194509250565b60008060408385031215615328578182fd5b823561533381615f66565b91506020830135614dcc81615f7e565b600060208284031215615354578081fd5b5035919050565b6000806040838503121561536d578182fd5b823591506020830135614dcc81615f66565b600080600060608486031215615393578081fd5b833592506020840135614eb681615f66565b6000602082840312156153b6578081fd5b815167ffffffffffffffff8111156153cc578182fd5b610b3984828501614c22565b6000604082840312156153e9578081fd5b6153f36040615ec3565b82516153fe81615f8c565b8152602083015161540e81615f8c565b60208201529392505050565b60006020828403121561542b578081fd5b5051919050565b60008060408385031215615444578182fd5b505080516020909101519092909150565b600060208284031215615466578081fd5b8135610b9281615fa1565b600060208284031215615482578081fd5b8151610b9281615fa1565b600081518084526154a5816020860160208601615f3a565b601f01601f19169290920160200192915050565b600082516154cb818460208701615f3a565b9190910192915050565b600083516154e7818460208801615f3a565b9190910191825250602001919050565b60008451615509818460208901615f3a565b91909101928352506020820152604001919050565b60007f4b61736869204d656469756d205269736b20000000000000000000000000000082528451615556816012850160208901615f3a565b602f60f81b6012918401918201528451615577816013840160208901615f3a565b602d60f81b601392909101918201528351615599816014840160208801615f3a565b0160140195945050505050565b600061626d60f01b825284516155c3816002850160208901615f3a565b602f60f81b60029184019182015284516155e4816003840160208901615f3a565b602d60f81b600392909101918201528351615606816004840160208801615f3a565b0160040195945050505050565b6001600160a01b0391909116815260200190565b6001600160a01b039687168152949095166020850152911515604084015260ff166060830152608082015260a081019190915260c00190565b901515815260200190565b9115158252602082015260400190565b90815260200190565b9586526001600160a01b0394851660208701529290931660408501526060840152608083019190915260a082015260c00190565b92835260208301919091526001600160a01b0316604082015260600190565b93845260ff9290921660208401526040830152606082015260800190565b600060208252610b92602083018461548d565b6000602080830181845282855460018082166000811461572f576001811461574d57615785565b60028304607f16855260ff1983166040890152606088019350615785565b6002830480865261575d8a615f2e565b885b8281101561577b5781548b82016040015290840190880161575f565b8a01604001955050505b5091979650505050505050565b6001600160a01b0392831681529116602082015260400190565b6001600160a01b039485168152928416602084015292166040820152606081019190915260800190565b6001600160a01b03958616815293851660208501529190931660408301526060820192909252608081019190915260a00190565b6000608082016001600160a01b0380881684526020818816818601526080604086015282875180855260a0870191508289019450855b8181101561585e578551851683529483019491830191600101615840565b50508581036060870152865180825290820193509150808601845b8381101561589557815185529382019390820190600101615879565b50929998505050505050505050565b6001600160a01b039390931683526001600160801b039190911660208301521515604082015260600190565b6001600160a01b0393909316835260208301919091521515604082015260600190565b938452602084019290925267ffffffffffffffff166040830152606082015260800190565b60208082526015908201527f426f72696e674d6174683a20556e646572666c6f770000000000000000000000604082015260600190565b6020808252601e908201527f4b61736869506169723a20616c726561647920696e697469616c697a65640000604082015260600190565b60208082526016908201527f45524332303a206e6f207a65726f206164647265737300000000000000000000604082015260600190565b6020808252601a908201527f4b61736869506169723a20616c6c2061726520736f6c76656e74000000000000604082015260600190565b60208082526015908201527f4f776e61626c653a207a65726f20616464726573730000000000000000000000604082015260600190565b60208082526016908201527f4b61736869506169723a2063616c6c206661696c656400000000000000000000604082015260600190565b6020808252601c908201527f426f72696e674d6174683a2075696e74313238204f766572666c6f7700000000604082015260600190565b60208082526018908201527f426f72696e674d6174683a20416464204f766572666c6f770000000000000000604082015260600190565b60208082526013908201527f4b61736869506169723a20626164207061697200000000000000000000000000604082015260600190565b60208082526018908201527f45524332303a20616c6c6f77616e636520746f6f206c6f770000000000000000604082015260600190565b60208082526015908201527f4b61736869506169723a2063616e27742063616c6c0000000000000000000000604082015260600190565b6020808252600e908201527f45524332303a2045787069726564000000000000000000000000000000000000604082015260600190565b60208082526019908201527f4b61736869506169723a207573657220696e736f6c76656e7400000000000000604082015260600190565b6020808252818101527f4f776e61626c653a2063616c6c6572206973206e6f7420746865206f776e6572604082015260600190565b6020808252818101527f4f776e61626c653a2063616c6c657220213d2070656e64696e67206f776e6572604082015260600190565b60208082526018908201527f45524332303a204f776e65722063616e6e6f7420626520300000000000000000604082015260600190565b60208082526014908201527f4b617368693a2062656c6f77206d696e696d756d000000000000000000000000604082015260600190565b60208082526016908201527f45524332303a2062616c616e636520746f6f206c6f7700000000000000000000604082015260600190565b60208082526018908201527f4b61736869506169723a20536b696d20746f6f206d7563680000000000000000604082015260600190565b6020808252601a908201527f4b61736869506169723a20496e76616c69642073776170706572000000000000604082015260600190565b60208082526018908201527f426f72696e674d6174683a204d756c204f766572666c6f770000000000000000604082015260600190565b60208082526016908201527f4b61736869506169723a2072617465206e6f74206f6b00000000000000000000604082015260600190565b60208082526018908201527f45524332303a20496e76616c6964205369676e61747572650000000000000000604082015260600190565b6001600160801b0392831681529116602082015260400190565b918252602082015260400190565b9283526020830191909152604082015260600190565b67ffffffffffffffff93841681529190921660208201526001600160801b03909116604082015260600190565b60ff91909116815260200190565b6000808335601e19843603018112615e94578283fd5b83018035915067ffffffffffffffff821115615eae578283fd5b602001915036819003821315610f9657600080fd5b60405181810167ffffffffffffffff81118282101715615ee257600080fd5b604052919050565b600067ffffffffffffffff821115615f00578081fd5b5060209081020190565b600067ffffffffffffffff821115615f20578081fd5b50601f01601f191660200190565b60009081526020902090565b60005b83811015615f55578181015183820152602001615f3d565b838111156147595750506000910152565b6001600160a01b0381168114615f7b57600080fd5b50565b8015158114615f7b57600080fd5b6001600160801b0381168114615f7b57600080fd5b60ff81168114615f7b57600080fdfea26469706673582212207439e0e86dcbdeb46994220a07a4080621171a5ebce8403923b070918c0525ab64736f6c634300060c0033"
}