{
    "address": "0x26a1097a7D3e2D9cc3ad463400917919a3054D74",
    "abi": [
        {
            "inputs": [
                {
                    "internalType": "bytes",
                    "name": "data",
                    "type": "bytes"
                }
            ],
            "name": "get",
            "outputs": [
                {
                    "internalType": "bool",
                    "name": "",
                    "type": "bool"
                },
                {
                    "internalType": "uint256",
                    "name": "",
                    "type": "uint256"
                }
            ],
            "stateMutability": "nonpayable",
            "type": "function"
        },
        {
            "inputs": [
                {
                    "internalType": "uint256",
                    "name": "rate",
                    "type": "uint256"
                }
            ],
            "name": "getDataParameter",
            "outputs": [
                {
                    "internalType": "bytes",
                    "name": "",
                    "type": "bytes"
                }
            ],
            "stateMutability": "pure",
            "type": "function"
        },
        {
            "inputs": [
                {
                    "internalType": "bytes",
                    "name": "",
                    "type": "bytes"
                }
            ],
            "name": "name",
            "outputs": [
                {
                    "internalType": "string",
                    "name": "",
                    "type": "string"
                }
            ],
            "stateMutability": "view",
            "type": "function"
        },
        {
            "inputs": [
                {
                    "internalType": "bytes",
                    "name": "data",
                    "type": "bytes"
                }
            ],
            "name": "peek",
            "outputs": [
                {
                    "internalType": "bool",
                    "name": "",
                    "type": "bool"
                },
                {
                    "internalType": "uint256",
                    "name": "",
                    "type": "uint256"
                }
            ],
            "stateMutability": "view",
            "type": "function"
        },
        {
            "inputs": [
                {
                    "internalType": "bytes",
                    "name": "data",
                    "type": "bytes"
                }
            ],
            "name": "peekSpot",
            "outputs": [
                {
                    "internalType": "uint256",
                    "name": "rate",
                    "type": "uint256"
                }
            ],
            "stateMutability": "view",
            "type": "function"
        },
        {
            "inputs": [
                {
                    "internalType": "bytes",
                    "name": "",
                    "type": "bytes"
                }
            ],
            "name": "symbol",
            "outputs": [
                {
                    "internalType": "string",
                    "name": "",
                    "type": "string"
                }
            ],
            "stateMutability": "view",
            "type": "function"
        }
    ],
    "transactionHash": "0x288c095d7731ab709836e879d950edf5c4c7b26e278f53cd0f3b8a5db43689f8",
    "args": [],
    "solcInputHash": "224aee32343918fe039bf38c1bf1a7db",
    "bytecode": "0x608060405234801561001057600080fd5b506103f5806100206000396000f3fe608060405234801561001057600080fd5b50600436106100725760003560e01c8063d6d7d52511610050578063d6d7d5251461024e578063ea887d08146102d9578063eeb8a8d31461024e57610072565b8063c699c4d614610077578063d39bbef01461015c578063d568866c146101de575b600080fd5b6100e76004803603602081101561008d57600080fd5b8101906020810181356401000000008111156100a857600080fd5b8201836020820111156100ba57600080fd5b803590602001918460018302840111640100000000831117156100dc57600080fd5b5090925090506102f6565b6040805160208082528351818301528351919283929083019185019080838360005b83811015610121578181015183820152602001610109565b50505050905090810190601f16801561014e5780820380516001836020036101000a031916815260200191505b509250505060405180910390f35b6101cc6004803603602081101561017257600080fd5b81019060208101813564010000000081111561018d57600080fd5b82018360208201111561019f57600080fd5b803590602001918460018302840111640100000000831117156101c157600080fd5b50909250905061032f565b60408051918252519081900360200190f35b6100e7600480360360208110156101f457600080fd5b81019060208101813564010000000081111561020f57600080fd5b82018360208201111561022157600080fd5b8035906020019184600183028401116401000000008311171561024357600080fd5b509092509050610343565b6102be6004803603602081101561026457600080fd5b81019060208101813564010000000081111561027f57600080fd5b82018360208201111561029157600080fd5b803590602001918460018302840111640100000000831117156102b357600080fd5b50909250905061037c565b60408051921515835260208301919091528051918290030190f35b6100e7600480360360208110156102ef57600080fd5b50356103a1565b505060408051808201909152600381527f5045470000000000000000000000000000000000000000000000000000000000602082015290565b600061033b838361037c565b949350505050565b505060408051808201909152600681527f5065676765640000000000000000000000000000000000000000000000000000602082015290565b60008060008484602081101561039157600080fd5b5035801515969095509350505050565b6040805160208082019390935281518082039093018352810190529056fea2646970667358221220da6d7894a749f9cb7c941810a53dae70741f90ff37433cb77200e9c6e965312364736f6c634300060c0033"
}