{
    "address": "0x3D992573bc041B85D47851F037DcA980E56198ed",
    "abi": [
        {
            "inputs": [],
            "name": "PERIOD",
            "outputs": [
                {
                    "internalType": "uint256",
                    "name": "",
                    "type": "uint256"
                }
            ],
            "stateMutability": "view",
            "type": "function"
        },
        {
            "inputs": [
                {
                    "internalType": "contract IUniswapV2Pair",
                    "name": "pair",
                    "type": "address"
                },
                {
                    "internalType": "uint32",
                    "name": "blockTimestamp",
                    "type": "uint32"
                }
            ],
            "name": "_get",
            "outputs": [
                {
                    "internalType": "uint256",
                    "name": "",
                    "type": "uint256"
                }
            ],
            "stateMutability": "view",
            "type": "function"
        },
        {
            "inputs": [
                {
                    "internalType": "address",
                    "name": "",
                    "type": "address"
                }
            ],
            "name": "callerInfo",
            "outputs": [
                {
                    "internalType": "contract IUniswapV2Pair",
                    "name": "",
                    "type": "address"
                }
            ],
            "stateMutability": "view",
            "type": "function"
        },
        {
            "inputs": [
                {
                    "internalType": "bytes",
                    "name": "data",
                    "type": "bytes"
                }
            ],
            "name": "get",
            "outputs": [
                {
                    "internalType": "bool",
                    "name": "",
                    "type": "bool"
                },
                {
                    "internalType": "uint256",
                    "name": "",
                    "type": "uint256"
                }
            ],
            "stateMutability": "nonpayable",
            "type": "function"
        },
        {
            "inputs": [
                {
                    "internalType": "contract IUniswapV2Pair",
                    "name": "pair",
                    "type": "address"
                }
            ],
            "name": "getDataParameter",
            "outputs": [
                {
                    "internalType": "bytes",
                    "name": "",
                    "type": "bytes"
                }
            ],
            "stateMutability": "pure",
            "type": "function"
        },
        {
            "inputs": [
                {
                    "internalType": "bytes",
                    "name": "",
                    "type": "bytes"
                }
            ],
            "name": "name",
            "outputs": [
                {
                    "internalType": "string",
                    "name": "",
                    "type": "string"
                }
            ],
            "stateMutability": "view",
            "type": "function"
        },
        {
            "inputs": [
                {
                    "internalType": "contract IUniswapV2Pair",
                    "name": "",
                    "type": "address"
                }
            ],
            "name": "pairs",
            "outputs": [
                {
                    "internalType": "uint256",
                    "name": "priceCumulativeLast",
                    "type": "uint256"
                },
                {
                    "internalType": "uint32",
                    "name": "blockTimestampLast",
                    "type": "uint32"
                },
                {
                    "internalType": "uint144",
                    "name": "priceAverage",
                    "type": "uint144"
                }
            ],
            "stateMutability": "view",
            "type": "function"
        },
        {
            "inputs": [
                {
                    "internalType": "bytes",
                    "name": "data",
                    "type": "bytes"
                }
            ],
            "name": "peek",
            "outputs": [
                {
                    "internalType": "bool",
                    "name": "",
                    "type": "bool"
                },
                {
                    "internalType": "uint256",
                    "name": "",
                    "type": "uint256"
                }
            ],
            "stateMutability": "view",
            "type": "function"
        },
        {
            "inputs": [
                {
                    "internalType": "bytes",
                    "name": "data",
                    "type": "bytes"
                }
            ],
            "name": "peekSpot",
            "outputs": [
                {
                    "internalType": "uint256",
                    "name": "rate",
                    "type": "uint256"
                }
            ],
            "stateMutability": "view",
            "type": "function"
        },
        {
            "inputs": [
                {
                    "internalType": "bytes",
                    "name": "",
                    "type": "bytes"
                }
            ],
            "name": "symbol",
            "outputs": [
                {
                    "internalType": "string",
                    "name": "",
                    "type": "string"
                }
            ],
            "stateMutability": "view",
            "type": "function"
        }
    ],
    "transactionHash": "0xe708536bdf92c6f5c1ac22b75a57ac0c304930fe3019f22140f50f376d30ab02",
    "args": [],
    "solcInputHash": "bf2097a9dd76a73ac56d076eb851c34a",
    "bytecode": "0x608060405234801561001057600080fd5b506110e9806100206000396000f3fe608060405234801561001057600080fd5b50600436106100be5760003560e01c8063d39bbef011610076578063d6d7d5251161005b578063d6d7d5251461016d578063eeb8a8d31461018e578063fe33b302146101a1576100be565b8063d39bbef014610147578063d568866c1461015a576100be565b80637046db52116100a75780637046db521461010c578063b4d1d7951461012c578063c699c4d614610134576100be565b80634709904d146100c357806354fd9238146100ec575b600080fd5b6100d66100d1366004610d3b565b6101c3565b6040516100e39190610ef3565b60405180910390f35b6100ff6100fa366004610dcb565b6101eb565b6040516100e39190611027565b61011f61011a366004610d3b565b61035a565b6040516100e39190610ee0565b6100ff610383565b61011f610142366004610d5e565b610389565b6100ff610155366004610d5e565b6103c2565b61011f610168366004610d5e565b610491565b61018061017b366004610d5e565b6104ca565b6040516100e3929190610ed0565b61018061019c366004610d5e565b61079a565b6101b46101af366004610d3b565b610924565b6040516100e393929190611030565b60016020526000908152604090205473ffffffffffffffffffffffffffffffffffffffff1681565b6000808373ffffffffffffffffffffffffffffffffffffffff16635909c0d56040518163ffffffff1660e01b815260040160206040518083038186803b15801561023457600080fd5b505afa158015610248573d6000803e3d6000fd5b505050506040513d601f19601f8201168201806040525081019061026c9190610e4f565b905060008060008673ffffffffffffffffffffffffffffffffffffffff16630902f1ac6040518163ffffffff1660e01b815260040160606040518083038186803b1580156102b957600080fd5b505afa1580156102cd573d6000803e3d6000fd5b505050506040513d601f19601f820116820180604052508101906102f19190610e03565b92509250925080860363ffffffff1661032a836dffffffffffffffffffffffffffff16856dffffffffffffffffffffffffffff16610961565b517bffffffffffffffffffffffffffffffffffffffffffffffffffffffff16029390930193505050505b92915050565b60608160405160200161036d9190610ef3565b6040516020818303038152906040529050919050565b61012c81565b505060408051808201909152600481527f5457415000000000000000000000000000000000000000000000000000000000602082015290565b6000806103d183850185610d3b565b90506000808273ffffffffffffffffffffffffffffffffffffffff16630902f1ac6040518163ffffffff1660e01b815260040160606040518083038186803b15801561041c57600080fd5b505afa158015610430573d6000803e3d6000fd5b505050506040513d601f19601f820116820180604052508101906104549190610e03565b506dffffffffffffffffffffffffffff91821693501690508161047f82670de0b6b3a7640000610af0565b8161048657fe5b049695505050505050565b505060408051808201909152600e81527f5375736869537761702054574150000000000000000000000000000000000000602082015290565b600080806104da84860186610d3b565b73ffffffffffffffffffffffffffffffffffffffff8116600090815260208190526040902060010154909150429063ffffffff166105a75773ffffffffffffffffffffffffffffffffffffffff8216600090815260208190526040902060010180547fffffffffffffffffffffffffffffffffffffffffffffffffffffffff000000001663ffffffff831617905561057282826101eb565b73ffffffffffffffffffffffffffffffffffffffff909216600090815260208190526040812092909255509150819050610793565b73ffffffffffffffffffffffffffffffffffffffff821660009081526020819052604090206001015463ffffffff90811682039061012c908216101561063957505073ffffffffffffffffffffffffffffffffffffffff166000908152602081905260409020600190810154909250640100000000900471ffffffffffffffffffffffffffffffffffff169050610793565b600061064584846101eb565b90506106df6106da670de0b6b3a764000060405180602001604052808663ffffffff166000808b73ffffffffffffffffffffffffffffffffffffffff1673ffffffffffffffffffffffffffffffffffffffff168152602001908152602001600020600001548703816106b357fe5b047bffffffffffffffffffffffffffffffffffffffffffffffffffffffff16905290610b41565b610bcf565b73ffffffffffffffffffffffffffffffffffffffff90941660009081526020819052604090206001808201805463ffffffff9096167fffffffffffffffffffffffffffffffffffffffffffffffffffffffff0000000071ffffffffffffffffffffffffffffffffffff9889166401000000009081027fffffffffffffffffffff000000000000000000000000000000000000ffffffff90991698909817161790819055929091559550919091049091169150505b9250929050565b600080806107aa84860186610d3b565b73ffffffffffffffffffffffffffffffffffffffff8116600090815260208190526040902060010154909150429063ffffffff166107f057600080935093505050610793565b73ffffffffffffffffffffffffffffffffffffffff821660009081526020819052604090206001015463ffffffff90811682039061012c908216101561088257505073ffffffffffffffffffffffffffffffffffffffff166000908152602081905260409020600190810154909250640100000000900471ffffffffffffffffffffffffffffffffffff169050610793565b600061088e84846101eb565b905060006108fe6106da670de0b6b3a764000060405180602001604052808763ffffffff166000808c73ffffffffffffffffffffffffffffffffffffffff1673ffffffffffffffffffffffffffffffffffffffff168152602001908152602001600020600001548803816106b357fe5b6001975071ffffffffffffffffffffffffffffffffffff16955050505050509250929050565b6000602081905290815260409020805460019091015463ffffffff811690640100000000900471ffffffffffffffffffffffffffffffffffff1683565b610969610d16565b600082116109ac576040517f08c379a00000000000000000000000000000000000000000000000000000000081526004016109a390610fb9565b60405180910390fd5b826109c65750604080516020810190915260008152610354565b71ffffffffffffffffffffffffffffffffffff8311610a7c57600082607085901b816109ee57fe5b0490507bffffffffffffffffffffffffffffffffffffffffffffffffffffffff811115610a47576040517f08c379a00000000000000000000000000000000000000000000000000000000081526004016109a390610f82565b6040518060200160405280827bffffffffffffffffffffffffffffffffffffffffffffffffffffffff16815250915050610354565b6000610a98846e01000000000000000000000000000085610bd6565b90507bffffffffffffffffffffffffffffffffffffffffffffffffffffffff811115610a47576040517f08c379a00000000000000000000000000000000000000000000000000000000081526004016109a390610f82565b6000811580610b0b57505080820282828281610b0857fe5b04145b610354576040517f08c379a00000000000000000000000000000000000000000000000000000000081526004016109a390610ff0565b610b49610d28565b6000821580610b8457505082517bffffffffffffffffffffffffffffffffffffffffffffffffffffffff1682810290838281610b8157fe5b04145b610bba576040517f08c379a00000000000000000000000000000000000000000000000000000000081526004016109a390610f14565b60408051602081019091529081529392505050565b5160701c90565b6000806000610be58686610c5b565b9150915060008480610bf357fe5b868809905082811115610c07576001820391505b8083039250848210610c45576040517f08c379a00000000000000000000000000000000000000000000000000000000081526004016109a390610f4b565b610c50838387610ca6565b979650505050505050565b600080807fffffffffffffffffffffffffffffffffffffffffffffffffffffffffffffffff84860990508385029250828103915082811015610c9e576001820391505b509250929050565b60008181038216808381610cb657fe5b049250808581610cc257fe5b049450808160000381610cd157fe5b60028581038087028203028087028203028087028203028087028203028087028203028087028203029586029003909402930460010193909302939093010292915050565b60408051602081019091526000815290565b6040518060200160405280600081525090565b600060208284031215610d4c578081fd5b8135610d5781611060565b9392505050565b60008060208385031215610d70578081fd5b823567ffffffffffffffff80821115610d87578283fd5b818501915085601f830112610d9a578283fd5b813581811115610da8578384fd5b866020828501011115610db9578384fd5b60209290920196919550909350505050565b60008060408385031215610ddd578182fd5b8235610de881611060565b91506020830135610df8816110a1565b809150509250929050565b600080600060608486031215610e17578081fd5b8351610e2281611085565b6020850151909350610e3381611085565b6040850151909250610e44816110a1565b809150509250925092565b600060208284031215610e60578081fd5b5051919050565b60008151808452815b81811015610e8c57602081850181015186830182015201610e70565b81811115610e9d5782602083870101525b50601f017fffffffffffffffffffffffffffffffffffffffffffffffffffffffffffffffe0169290920160200192915050565b9115158252602082015260400190565b600060208252610d576020830184610e67565b73ffffffffffffffffffffffffffffffffffffffff91909116815260200190565b60208082526019908201527f4669786564506f696e743a3a6d756c3a206f766572666c6f7700000000000000604082015260600190565b6020808252601a908201527f46756c6c4d6174683a3a6d756c4469763a206f766572666c6f77000000000000604082015260600190565b6020808252601e908201527f4669786564506f696e743a3a6672616374696f6e3a206f766572666c6f770000604082015260600190565b6020808252601e908201527f4669786564506f696e743a3a6672616374696f6e3a2064697620627920300000604082015260600190565b60208082526018908201527f426f72696e674d6174683a204d756c204f766572666c6f770000000000000000604082015260600190565b90815260200190565b92835263ffffffff91909116602083015271ffffffffffffffffffffffffffffffffffff16604082015260600190565b73ffffffffffffffffffffffffffffffffffffffff8116811461108257600080fd5b50565b6dffffffffffffffffffffffffffff8116811461108257600080fd5b63ffffffff8116811461108257600080fdfea26469706673582212209b4826b261fc0124abc3e5d676d71b6b2b9f435b1883481b03ae9a0561d64ae964736f6c634300060c0033"
}