{
    "address": "0x9836A766D65d27824e9764C07658e9779761f48b",
    "abi": [
        {
            "inputs": [
                {
                    "internalType": "contract IBentoBoxV1",
                    "name": "bentoBox_",
                    "type": "address"
                },
                {
                    "internalType": "contract IUniswapV2Factory",
                    "name": "factory_",
                    "type": "address"
                }
            ],
            "stateMutability": "nonpayable",
            "type": "constructor"
        },
        {
            "inputs": [],
            "name": "bentoBox",
            "outputs": [
                {
                    "internalType": "contract IBentoBoxV1",
                    "name": "",
                    "type": "address"
                }
            ],
            "stateMutability": "view",
            "type": "function"
        },
        {
            "inputs": [],
            "name": "factory",
            "outputs": [
                {
                    "internalType": "contract IUniswapV2Factory",
                    "name": "",
                    "type": "address"
                }
            ],
            "stateMutability": "view",
            "type": "function"
        },
        {
            "inputs": [
                {
                    "internalType": "contract IERC20",
                    "name": "fromToken",
                    "type": "address"
                },
                {
                    "internalType": "contract IERC20",
                    "name": "toToken",
                    "type": "address"
                },
                {
                    "internalType": "address",
                    "name": "recipient",
                    "type": "address"
                },
                {
                    "internalType": "uint256",
                    "name": "shareToMin",
                    "type": "uint256"
                },
                {
                    "internalType": "uint256",
                    "name": "shareFrom",
                    "type": "uint256"
                }
            ],
            "name": "swap",
            "outputs": [
                {
                    "internalType": "uint256",
                    "name": "extraShare",
                    "type": "uint256"
                },
                {
                    "internalType": "uint256",
                    "name": "shareReturned",
                    "type": "uint256"
                }
            ],
            "stateMutability": "nonpayable",
            "type": "function"
        },
        {
            "inputs": [
                {
                    "internalType": "contract IERC20",
                    "name": "fromToken",
                    "type": "address"
                },
                {
                    "internalType": "contract IERC20",
                    "name": "toToken",
                    "type": "address"
                },
                {
                    "internalType": "address",
                    "name": "recipient",
                    "type": "address"
                },
                {
                    "internalType": "address",
                    "name": "refundTo",
                    "type": "address"
                },
                {
                    "internalType": "uint256",
                    "name": "shareFromSupplied",
                    "type": "uint256"
                },
                {
                    "internalType": "uint256",
                    "name": "shareToExact",
                    "type": "uint256"
                }
            ],
            "name": "swapExact",
            "outputs": [
                {
                    "internalType": "uint256",
                    "name": "shareUsed",
                    "type": "uint256"
                },
                {
                    "internalType": "uint256",
                    "name": "shareReturned",
                    "type": "uint256"
                }
            ],
            "stateMutability": "nonpayable",
            "type": "function"
        }
    ],
    "transactionHash": "0x808b1188d1e82792fdc1e645ddd4d92b84d7276c0aff70727b001e0e285d5eb7",
    "args": [
        "0xB5891167796722331b7ea7824F036b3Bdcb4531C",
        "0xc35DADB65012eC5796536bD9864eD8773aBc74C4"
    ],
    "solcInputHash": "ace1b29554503ebad34590822e77ce03",
    "bytecode": "0x608060405234801561001057600080fd5b5060405161130f38038061130f8339818101604052604081101561003357600080fd5b508051602090910151600080546001600160a01b039384166001600160a01b031991821617909155600180549390921692169190911790556112958061007a6000396000f3fe608060405234801561001057600080fd5b506004361061004c5760003560e01c80634622be90146100515780636b2ace87146100c3578063c45a0155146100f4578063e343fe12146100fc575b600080fd5b6100aa600480360360c081101561006757600080fd5b5073ffffffffffffffffffffffffffffffffffffffff81358116916020810135821691604082013581169160608101359091169060808101359060a0013561014b565b6040805192835260208301919091528051918290030190f35b6100cb610a00565b6040805173ffffffffffffffffffffffffffffffffffffffff9092168252519081900360200190f35b6100cb610a1c565b6100aa600480360360a081101561011257600080fd5b5073ffffffffffffffffffffffffffffffffffffffff813581169160208101358216916040820135169060608101359060800135610a38565b600154604080517fe6a4390500000000000000000000000000000000000000000000000000000000815273ffffffffffffffffffffffffffffffffffffffff8981166004830152888116602483015291516000938493849391169163e6a4390591604480820192602092909190829003018186803b1580156101cc57600080fd5b505afa1580156101e0573d6000803e3d6000fd5b505050506040513d60208110156101f657600080fd5b5051604080517f0902f1ac0000000000000000000000000000000000000000000000000000000081529051919250600091829173ffffffffffffffffffffffffffffffffffffffff851691630902f1ac91600480820192606092909190829003018186803b15801561026757600080fd5b505afa15801561027b573d6000803e3d6000fd5b505050506040513d606081101561029157600080fd5b81019080805190602001909291908051906020019092919080519060200190929190505050506dffffffffffffffffffffffffffff1691506dffffffffffffffffffffffffffff16915060008060009054906101000a900473ffffffffffffffffffffffffffffffffffffffff1673ffffffffffffffffffffffffffffffffffffffff1663566231188c8960016040518463ffffffff1660e01b8152600401808473ffffffffffffffffffffffffffffffffffffffff1681526020018381526020018215158152602001935050505060206040518083038186803b15801561037857600080fd5b505afa15801561038c573d6000803e3d6000fd5b505050506040513d60208110156103a257600080fd5b8101908080519060200190929190505050905060008c73ffffffffffffffffffffffffffffffffffffffff168573ffffffffffffffffffffffffffffffffffffffff16630dfe16816040518163ffffffff1660e01b815260040160206040518083038186803b15801561041457600080fd5b505afa158015610428573d6000803e3d6000fd5b505050506040513d602081101561043e57600080fd5b505173ffffffffffffffffffffffffffffffffffffffff16141561061b57610467828585611053565b905060008054906101000a900473ffffffffffffffffffffffffffffffffffffffff1673ffffffffffffffffffffffffffffffffffffffff166397da6d308e30888560006040518663ffffffff1660e01b8152600401808673ffffffffffffffffffffffffffffffffffffffff1681526020018573ffffffffffffffffffffffffffffffffffffffff1681526020018473ffffffffffffffffffffffffffffffffffffffff168152602001838152602001828152602001955050505050506040805180830381600087803b15801561053e57600080fd5b505af1158015610552573d6000803e3d6000fd5b505050506040513d604081101561056857600080fd5b506020015160008054604080517f022c0d9f000000000000000000000000000000000000000000000000000000008152600481018490526024810187905273ffffffffffffffffffffffffffffffffffffffff928316604482015260806064820152608481018490529051939a509088169263022c0d9f9260c48084019391929182900301818387803b1580156105fe57600080fd5b505af1158015610612573d6000803e3d6000fd5b505050506107d6565b610626828486611053565b905060008054906101000a900473ffffffffffffffffffffffffffffffffffffffff1673ffffffffffffffffffffffffffffffffffffffff166397da6d308e30888560006040518663ffffffff1660e01b8152600401808673ffffffffffffffffffffffffffffffffffffffff1681526020018573ffffffffffffffffffffffffffffffffffffffff1681526020018473ffffffffffffffffffffffffffffffffffffffff168152602001838152602001828152602001955050505050506040805180830381600087803b1580156106fd57600080fd5b505af1158015610711573d6000803e3d6000fd5b505050506040513d604081101561072757600080fd5b506020015160008054604080517f022c0d9f000000000000000000000000000000000000000000000000000000008152600481018790526024810184905273ffffffffffffffffffffffffffffffffffffffff928316604482015260806064820152608481018490529051939a509088169263022c0d9f9260c48084019391929182900301818387803b1580156107bd57600080fd5b505af11580156107d1573d6000803e3d6000fd5b505050505b60008054906101000a900473ffffffffffffffffffffffffffffffffffffffff1673ffffffffffffffffffffffffffffffffffffffff166302b9446c8d60008054906101000a900473ffffffffffffffffffffffffffffffffffffffff168e60008d6040518663ffffffff1660e01b8152600401808673ffffffffffffffffffffffffffffffffffffffff1681526020018573ffffffffffffffffffffffffffffffffffffffff1681526020018473ffffffffffffffffffffffffffffffffffffffff168152602001838152602001828152602001955050505050506040805180830381600087803b1580156108cb57600080fd5b505af11580156108df573d6000803e3d6000fd5b505050506040513d60408110156108f557600080fd5b50610902905089886110a1565b955085156109f05760008054906101000a900473ffffffffffffffffffffffffffffffffffffffff1673ffffffffffffffffffffffffffffffffffffffff1663f18d03cc8e308d8a6040518563ffffffff1660e01b8152600401808573ffffffffffffffffffffffffffffffffffffffff1681526020018473ffffffffffffffffffffffffffffffffffffffff1681526020018373ffffffffffffffffffffffffffffffffffffffff168152602001828152602001945050505050600060405180830381600087803b1580156109d757600080fd5b505af11580156109eb573d6000803e3d6000fd5b505050505b5050505050965096945050505050565b60005473ffffffffffffffffffffffffffffffffffffffff1681565b60015473ffffffffffffffffffffffffffffffffffffffff1681565b600154604080517fe6a4390500000000000000000000000000000000000000000000000000000000815273ffffffffffffffffffffffffffffffffffffffff8881166004830152878116602483015291516000938493849391169163e6a4390591604480820192602092909190829003018186803b158015610ab957600080fd5b505afa158015610acd573d6000803e3d6000fd5b505050506040513d6020811015610ae357600080fd5b505160008054604080517f97da6d3000000000000000000000000000000000000000000000000000000000815273ffffffffffffffffffffffffffffffffffffffff8d81166004830152306024830152808616604483015260648201859052608482018a90528251959650939493909216926397da6d309260a480820193929182900301818787803b158015610b7857600080fd5b505af1158015610b8c573d6000803e3d6000fd5b505050506040513d6040811015610ba257600080fd5b5051604080517f0902f1ac0000000000000000000000000000000000000000000000000000000081529051919250600091829173ffffffffffffffffffffffffffffffffffffffff861691630902f1ac91600480820192606092909190829003018186803b158015610c1357600080fd5b505afa158015610c27573d6000803e3d6000fd5b505050506040513d6060811015610c3d57600080fd5b81019080805190602001909291908051906020019092919080519060200190929190505050506dffffffffffffffffffffffffffff1691506dffffffffffffffffffffffffffff16915060008b73ffffffffffffffffffffffffffffffffffffffff168573ffffffffffffffffffffffffffffffffffffffff16630dfe16816040518163ffffffff1660e01b815260040160206040518083038186803b158015610ce657600080fd5b505afa158015610cfa573d6000803e3d6000fd5b505050506040513d6020811015610d1057600080fd5b505173ffffffffffffffffffffffffffffffffffffffff161415610e5357610d39848484611119565b600080546040805183815260208101918290527f022c0d9f000000000000000000000000000000000000000000000000000000008252602481018481526044820186905273ffffffffffffffffffffffffffffffffffffffff93841660648301819052608060848401908152835160a48501819052979850948c169663022c0d9f9695899592949392909160c4850191908083838b5b83811015610de7578181015183820152602001610dcf565b50505050905090810190601f168015610e145780820380516001836020036101000a031916815260200191505b5095505050505050600060405180830381600087803b158015610e3657600080fd5b505af1158015610e4a573d6000803e3d6000fd5b50505050610f75565b610e5e848385611119565b600080546040805183815260208101918290527f022c0d9f000000000000000000000000000000000000000000000000000000008252602481018581526044820185905273ffffffffffffffffffffffffffffffffffffffff93841660648301819052608060848401908152835160a48501819052979850948c169663022c0d9f968996909592949392909160c4850191908083838a5b83811015610f0d578181015183820152602001610ef5565b50505050905090810190601f168015610f3a5780820380516001836020036101000a031916815260200191505b5095505050505050600060405180830381600087803b158015610f5c57600080fd5b505af1158015610f70573d6000803e3d6000fd5b505050505b60008054604080517f02b9446c00000000000000000000000000000000000000000000000000000000815273ffffffffffffffffffffffffffffffffffffffff8f8116600483015292831660248201819052928e1660448201526064810185905260848101849052815192936302b9446c9360a480840194939192918390030190829087803b15801561100757600080fd5b505af115801561101b573d6000803e3d6000fd5b505050506040513d604081101561103157600080fd5b50602001519550611042868a6110a1565b965050505050509550959350505050565b60008061106c6103e86110668688611167565b90611167565b905060006110806103e561106686896110a1565b9050611097600182848161109057fe5b04906111ed565b9695505050505050565b8082038281111561111357604080517f08c379a000000000000000000000000000000000000000000000000000000000815260206004820152601560248201527f426f72696e674d6174683a20556e646572666c6f770000000000000000000000604482015290519081900360640190fd5b92915050565b600080611128856103e5611167565b905060006111368285611167565b905060006111508361114a886103e8611167565b906111ed565b905080828161115b57fe5b04979650505050505050565b60008115806111825750508082028282828161117f57fe5b04145b61111357604080517f08c379a000000000000000000000000000000000000000000000000000000000815260206004820152601860248201527f426f72696e674d6174683a204d756c204f766572666c6f770000000000000000604482015290519081900360640190fd5b8181018181101561111357604080517f08c379a000000000000000000000000000000000000000000000000000000000815260206004820152601860248201527f426f72696e674d6174683a20416464204f766572666c6f770000000000000000604482015290519081900360640190fdfea2646970667358221220955c931e5d52ceeb434f1df50bf309a9edbf0bb59e6b6c3fea1b1292d45f484064736f6c634300060c0033"
}