{
    "address": "0x00632CFe43d8F9f8E6cD0d39Ffa3D4fa7ec73CFB",
    "abi": [
        {
            "inputs": [
                {
                    "internalType": "bytes",
                    "name": "data",
                    "type": "bytes"
                }
            ],
            "name": "get",
            "outputs": [
                {
                    "internalType": "bool",
                    "name": "",
                    "type": "bool"
                },
                {
                    "internalType": "uint256",
                    "name": "",
                    "type": "uint256"
                }
            ],
            "stateMutability": "nonpayable",
            "type": "function"
        },
        {
            "inputs": [
                {
                    "internalType": "address",
                    "name": "multiply",
                    "type": "address"
                },
                {
                    "internalType": "address",
                    "name": "divide",
                    "type": "address"
                },
                {
                    "internalType": "uint256",
                    "name": "decimals",
                    "type": "uint256"
                }
            ],
            "name": "getDataParameter",
            "outputs": [
                {
                    "internalType": "bytes",
                    "name": "",
                    "type": "bytes"
                }
            ],
            "stateMutability": "pure",
            "type": "function"
        },
        {
            "inputs": [
                {
                    "internalType": "bytes",
                    "name": "",
                    "type": "bytes"
                }
            ],
            "name": "name",
            "outputs": [
                {
                    "internalType": "string",
                    "name": "",
                    "type": "string"
                }
            ],
            "stateMutability": "view",
            "type": "function"
        },
        {
            "inputs": [
                {
                    "internalType": "bytes",
                    "name": "data",
                    "type": "bytes"
                }
            ],
            "name": "peek",
            "outputs": [
                {
                    "internalType": "bool",
                    "name": "",
                    "type": "bool"
                },
                {
                    "internalType": "uint256",
                    "name": "",
                    "type": "uint256"
                }
            ],
            "stateMutability": "view",
            "type": "function"
        },
        {
            "inputs": [
                {
                    "internalType": "bytes",
                    "name": "data",
                    "type": "bytes"
                }
            ],
            "name": "peekSpot",
            "outputs": [
                {
                    "internalType": "uint256",
                    "name": "rate",
                    "type": "uint256"
                }
            ],
            "stateMutability": "view",
            "type": "function"
        },
        {
            "inputs": [
                {
                    "internalType": "bytes",
                    "name": "",
                    "type": "bytes"
                }
            ],
            "name": "symbol",
            "outputs": [
                {
                    "internalType": "string",
                    "name": "",
                    "type": "string"
                }
            ],
            "stateMutability": "view",
            "type": "function"
        }
    ],
    "transactionHash": "0x7c173ab935d9c1c8f1a3c45cf6277c6a40359cf2de7d5120abcf553ddd15d09e",
    "args": [],
    "solcInputHash": "f2dff08519fb66e5e74ab2351f3a4567",
    "bytecode": "0x608060405234801561001057600080fd5b50610677806100206000396000f3fe608060405234801561001057600080fd5b50600436106100725760003560e01c8063d6d7d52511610050578063d6d7d5251461024e578063eeb8a8d31461024e578063fdc28b08146102d957610072565b8063c699c4d614610077578063d39bbef01461015c578063d568866c146101de575b600080fd5b6100e76004803603602081101561008d57600080fd5b8101906020810181356401000000008111156100a857600080fd5b8201836020820111156100ba57600080fd5b803590602001918460018302840111640100000000831117156100dc57600080fd5b50909250905061031c565b6040805160208082528351818301528351919283929083019185019080838360005b83811015610121578181015183820152602001610109565b50505050905090810190601f16801561014e5780820380516001836020036101000a031916815260200191505b509250505060405180910390f35b6101cc6004803603602081101561017257600080fd5b81019060208101813564010000000081111561018d57600080fd5b82018360208201111561019f57600080fd5b803590602001918460018302840111640100000000831117156101c157600080fd5b509092509050610357565b60408051918252519081900360200190f35b6100e7600480360360208110156101f457600080fd5b81019060208101813564010000000081111561020f57600080fd5b82018360208201111561022157600080fd5b8035906020019184600183028401116401000000008311171561024357600080fd5b50909250905061036b565b6102be6004803603602081101561026457600080fd5b81019060208101813564010000000081111561027f57600080fd5b82018360208201111561029157600080fd5b803590602001918460018302840111640100000000831117156102b357600080fd5b5090925090506103a4565b60408051921515835260208301919091528051918290030190f35b6100e7600480360360608110156102ef57600080fd5b5073ffffffffffffffffffffffffffffffffffffffff813581169160208101359091169060400135610401565b60408051808201909152600481527f4c494e4b0000000000000000000000000000000000000000000000000000000060208201525b92915050565b600061036383836103a4565b949350505050565b505060408051808201909152600981527f436861696e6c696e6b0000000000000000000000000000000000000000000000602082015290565b6000806000806000868660608110156103bc57600080fd5b5073ffffffffffffffffffffffffffffffffffffffff813581169450602082013516925060400135905060016103f3848484610448565b945094505050509250929050565b6040805173ffffffffffffffffffffffffffffffffffffffff9485166020820152929093168284015260608083019190915282518083039091018152608090910190915290565b60006ec097ce7bc90715b34b9f100000000073ffffffffffffffffffffffffffffffffffffffff8516156104f9576104f28573ffffffffffffffffffffffffffffffffffffffff166350d25bcd6040518163ffffffff1660e01b815260040160206040518083038186803b1580156104bf57600080fd5b505afa1580156104d3573d6000803e3d6000fd5b505050506040513d60208110156104e957600080fd5b505182906105bb565b905061050e565b61050b81670de0b6b3a76400006105bb565b90505b73ffffffffffffffffffffffffffffffffffffffff8416156105a8578373ffffffffffffffffffffffffffffffffffffffff166350d25bcd6040518163ffffffff1660e01b815260040160206040518083038186803b15801561057057600080fd5b505afa158015610584573d6000803e3d6000fd5b505050506040513d602081101561059a57600080fd5b505181816105a457fe5b0490505b8281816105b157fe5b0495945050505050565b60008115806105d6575050808202828282816105d357fe5b04145b61035157604080517f08c379a000000000000000000000000000000000000000000000000000000000815260206004820152601860248201527f426f72696e674d6174683a204d756c204f766572666c6f770000000000000000604482015290519081900360640190fdfea2646970667358221220bfbcea76f370b47fa7be01331c502144cb8f109366155b38eb137905ddb1c14364736f6c634300060c0033"
}