{
    "address": "0xe4E2540D421e56b0B786d40c5F5268891288c6fb",
    "abi": [
        {
            "inputs": [
                {
                    "internalType": "contract IBentoBoxV1",
                    "name": "bentoBox_",
                    "type": "address"
                },
                {
                    "internalType": "contract IUniswapV2Factory",
                    "name": "factory_",
                    "type": "address"
                },
                {
                    "internalType": "bytes32",
                    "name": "pairCodeHash_",
                    "type": "bytes32"
                }
            ],
            "stateMutability": "nonpayable",
            "type": "constructor"
        },
        {
            "inputs": [],
            "name": "bentoBox",
            "outputs": [
                {
                    "internalType": "contract IBentoBoxV1",
                    "name": "",
                    "type": "address"
                }
            ],
            "stateMutability": "view",
            "type": "function"
        },
        {
            "inputs": [],
            "name": "factory",
            "outputs": [
                {
                    "internalType": "contract IUniswapV2Factory",
                    "name": "",
                    "type": "address"
                }
            ],
            "stateMutability": "view",
            "type": "function"
        },
        {
            "inputs": [],
            "name": "pairCodeHash",
            "outputs": [
                {
                    "internalType": "bytes32",
                    "name": "",
                    "type": "bytes32"
                }
            ],
            "stateMutability": "view",
            "type": "function"
        },
        {
            "inputs": [
                {
                    "internalType": "contract IERC20",
                    "name": "fromToken",
                    "type": "address"
                },
                {
                    "internalType": "contract IERC20",
                    "name": "toToken",
                    "type": "address"
                },
                {
                    "internalType": "address",
                    "name": "recipient",
                    "type": "address"
                },
                {
                    "internalType": "uint256",
                    "name": "shareToMin",
                    "type": "uint256"
                },
                {
                    "internalType": "uint256",
                    "name": "shareFrom",
                    "type": "uint256"
                }
            ],
            "name": "swap",
            "outputs": [
                {
                    "internalType": "uint256",
                    "name": "extraShare",
                    "type": "uint256"
                },
                {
                    "internalType": "uint256",
                    "name": "shareReturned",
                    "type": "uint256"
                }
            ],
            "stateMutability": "nonpayable",
            "type": "function"
        },
        {
            "inputs": [
                {
                    "internalType": "contract IERC20",
                    "name": "fromToken",
                    "type": "address"
                },
                {
                    "internalType": "contract IERC20",
                    "name": "toToken",
                    "type": "address"
                },
                {
                    "internalType": "address",
                    "name": "recipient",
                    "type": "address"
                },
                {
                    "internalType": "address",
                    "name": "refundTo",
                    "type": "address"
                },
                {
                    "internalType": "uint256",
                    "name": "shareFromSupplied",
                    "type": "uint256"
                },
                {
                    "internalType": "uint256",
                    "name": "shareToExact",
                    "type": "uint256"
                }
            ],
            "name": "swapExact",
            "outputs": [
                {
                    "internalType": "uint256",
                    "name": "shareUsed",
                    "type": "uint256"
                },
                {
                    "internalType": "uint256",
                    "name": "shareReturned",
                    "type": "uint256"
                }
            ],
            "stateMutability": "nonpayable",
            "type": "function"
        }
    ],
    "transactionHash": "0xd3e6535234d17921dedbb7f09a1c09cc1e4e62bdf7702f9660d1cded1002cc27",
    "args": [
        "0xB5891167796722331b7ea7824F036b3Bdcb4531C",
        "0xc35DADB65012eC5796536bD9864eD8773aBc74C4",
        "0xe18a34eb0e04b04f7a0ac29a6e80748dca96319b42c54d679cb821dca90c6303"
    ],
    "solcInputHash": "ed7880450e341e378b306abdcb1b8f40",
    "bytecode": "0x60c060405234801561001057600080fd5b506040516113593803806113598339818101604052606081101561003357600080fd5b50805160208201516040909201516001600160601b0319606092831b81166080529290911b90911660a05260005560805160601c60a05160601c61128e6100cb6000398061024652806109de5280610ac45250806103a8528061044d528061059d528061062a528061077a528061083a528061093f52806109b45280610b845280610d1f5280610e635280610f95525061128e6000f3fe608060405234801561001057600080fd5b50600436106100675760003560e01c80639aab9248116100505780639aab92481461010f578063c45a015514610129578063e343fe121461013157610067565b80634622be901461006c5780636b2ace87146100de575b600080fd5b6100c5600480360360c081101561008257600080fd5b5073ffffffffffffffffffffffffffffffffffffffff81358116916020810135821691604082013581169160608101359091169060808101359060a00135610180565b6040805192835260208301919091528051918290030190f35b6100e66109b2565b6040805173ffffffffffffffffffffffffffffffffffffffff9092168252519081900360200190f35b6101176109d6565b60408051918252519081900360200190f35b6100e66109dc565b6100c5600480360360a081101561014757600080fd5b5073ffffffffffffffffffffffffffffffffffffffff813581169160208101358216916040820135169060608101359060800135610a00565b60008060008060008973ffffffffffffffffffffffffffffffffffffffff168b73ffffffffffffffffffffffffffffffffffffffff16106101c257898b6101c5565b8a8a5b604080517fffffffffffffffffffffffffffffffffffffffff000000000000000000000000606094851b811660208084019190915293851b8116603483015282516028818403018152604883018452805190850120600080547fff0000000000000000000000000000000000000000000000000000000000000060688601527f0000000000000000000000000000000000000000000000000000000000000000881b9093166069850152607d840191909152609d808401929092528351808403909201825260bd8301808552825192909501919091207f0902f1ac00000000000000000000000000000000000000000000000000000000909452915192965090945084935073ffffffffffffffffffffffffffffffffffffffff861692630902f1ac9260c180840193829003018186803b15801561030257600080fd5b505afa158015610316573d6000803e3d6000fd5b505050506040513d606081101561032c57600080fd5b508051602091820151604080517f5662311800000000000000000000000000000000000000000000000000000000815273ffffffffffffffffffffffffffffffffffffffff8f81166004830152602482018c90526001604483015291516dffffffffffffffffffffffffffff94851697509390921694506000937f0000000000000000000000000000000000000000000000000000000000000000909116926356623118926064808201939291829003018186803b1580156103ed57600080fd5b505afa158015610401573d6000803e3d6000fd5b505050506040513d602081101561041757600080fd5b50519050600073ffffffffffffffffffffffffffffffffffffffff808e16908d16111561061b5761044982858561104c565b90507f000000000000000000000000000000000000000000000000000000000000000073ffffffffffffffffffffffffffffffffffffffff166397da6d308e30888560006040518663ffffffff1660e01b8152600401808673ffffffffffffffffffffffffffffffffffffffff1681526020018573ffffffffffffffffffffffffffffffffffffffff1681526020018473ffffffffffffffffffffffffffffffffffffffff168152602001838152602001828152602001955050505050506040805180830381600087803b15801561052057600080fd5b505af1158015610534573d6000803e3d6000fd5b505050506040513d604081101561054a57600080fd5b5060200151604080517f022c0d9f0000000000000000000000000000000000000000000000000000000081526000600482018190526024820186905273ffffffffffffffffffffffffffffffffffffffff7f00000000000000000000000000000000000000000000000000000000000000008116604484015260806064840152608483018290529251939a509188169263022c0d9f9260c48084019391929182900301818387803b1580156105fe57600080fd5b505af1158015610612573d6000803e3d6000fd5b505050506107f4565b61062682848661104c565b90507f000000000000000000000000000000000000000000000000000000000000000073ffffffffffffffffffffffffffffffffffffffff166397da6d308e30888560006040518663ffffffff1660e01b8152600401808673ffffffffffffffffffffffffffffffffffffffff1681526020018573ffffffffffffffffffffffffffffffffffffffff1681526020018473ffffffffffffffffffffffffffffffffffffffff168152602001838152602001828152602001955050505050506040805180830381600087803b1580156106fd57600080fd5b505af1158015610711573d6000803e3d6000fd5b505050506040513d604081101561072757600080fd5b5060200151604080517f022c0d9f0000000000000000000000000000000000000000000000000000000081526004810185905260006024820181905273ffffffffffffffffffffffffffffffffffffffff7f00000000000000000000000000000000000000000000000000000000000000008116604484015260806064840152608483018290529251939a509188169263022c0d9f9260c48084019391929182900301818387803b1580156107db57600080fd5b505af11580156107ef573d6000803e3d6000fd5b505050505b604080517f02b9446c00000000000000000000000000000000000000000000000000000000815273ffffffffffffffffffffffffffffffffffffffff8e811660048301527f0000000000000000000000000000000000000000000000000000000000000000811660248301819052908e166044830152600060648301819052608483018c9052835191936302b9446c9360a4808201949293918390030190829087803b1580156108a357600080fd5b505af11580156108b7573d6000803e3d6000fd5b505050506040513d60408110156108cd57600080fd5b506108da9050898861109a565b955085156109a257604080517ff18d03cc00000000000000000000000000000000000000000000000000000000815273ffffffffffffffffffffffffffffffffffffffff8f811660048301523060248301528c811660448301526064820189905291517f00000000000000000000000000000000000000000000000000000000000000009092169163f18d03cc9160848082019260009290919082900301818387803b15801561098957600080fd5b505af115801561099d573d6000803e3d6000fd5b505050505b5050505050965096945050505050565b7f000000000000000000000000000000000000000000000000000000000000000081565b60005481565b7f000000000000000000000000000000000000000000000000000000000000000081565b6000806000808773ffffffffffffffffffffffffffffffffffffffff168973ffffffffffffffffffffffffffffffffffffffff1610610a40578789610a43565b88885b604080517fffffffffffffffffffffffffffffffffffffffff000000000000000000000000606085811b821660208085019190915285821b8316603485015284516028818603018152604885018652805190820120600080547fff0000000000000000000000000000000000000000000000000000000000000060688801527f000000000000000000000000000000000000000000000000000000000000000090941b9094166069860152607d850152609d808501929092528451808503909201825260bd8401808652825192909101919091207f97da6d300000000000000000000000000000000000000000000000000000000090915273ffffffffffffffffffffffffffffffffffffffff8f811660c18501523060e1850152818116610101850152610121840183905261014184018c905284519698509496509490937f000000000000000000000000000000000000000000000000000000000000000016926397da6d3092610161808201939182900301818787803b158015610bc857600080fd5b505af1158015610bdc573d6000803e3d6000fd5b505050506040513d6040811015610bf257600080fd5b5051604080517f0902f1ac0000000000000000000000000000000000000000000000000000000081529051919250600091829173ffffffffffffffffffffffffffffffffffffffff861691630902f1ac91600480820192606092909190829003018186803b158015610c6357600080fd5b505afa158015610c77573d6000803e3d6000fd5b505050506040513d6060811015610c8d57600080fd5b5080516020909101516dffffffffffffffffffffffffffff9182169350169050600073ffffffffffffffffffffffffffffffffffffffff808f16908e161115610e1457610cdb848484611112565b60408051600080825260208201928390527f022c0d9f00000000000000000000000000000000000000000000000000000000835260248201818152604483018590527f000000000000000000000000000000000000000000000000000000000000000073ffffffffffffffffffffffffffffffffffffffff8181166064860152608060848601908152855160a48701819052979850908c169663022c0d9f96949589959394909390929160c4850191908083838b5b83811015610da8578181015183820152602001610d90565b50505050905090810190601f168015610dd55780820380516001836020036101000a031916815260200191505b5095505050505050600060405180830381600087803b158015610df757600080fd5b505af1158015610e0b573d6000803e3d6000fd5b50505050610f4f565b610e1f848385611112565b60408051600080825260208201928390527f022c0d9f00000000000000000000000000000000000000000000000000000000835260248201848152604483018290527f000000000000000000000000000000000000000000000000000000000000000073ffffffffffffffffffffffffffffffffffffffff8181166064860152608060848601908152855160a48701819052979850908c169663022c0d9f9689969394929160c4850191908083838a5b83811015610ee7578181015183820152602001610ecf565b50505050905090810190601f168015610f145780820380516001836020036101000a031916815260200191505b5095505050505050600060405180830381600087803b158015610f3657600080fd5b505af1158015610f4a573d6000803e3d6000fd5b505050505b604080517f02b9446c00000000000000000000000000000000000000000000000000000000815273ffffffffffffffffffffffffffffffffffffffff8f811660048301527f0000000000000000000000000000000000000000000000000000000000000000811660248301819052908f16604483015260648201849052600060848301819052835191936302b9446c9360a4808201949293918390030190829087803b158015610ffe57600080fd5b505af1158015611012573d6000803e3d6000fd5b505050506040513d604081101561102857600080fd5b50602001519750611039888c61109a565b9850505050505050509550959350505050565b6000806110656103e861105f8688611160565b90611160565b905060006110796103e561105f868961109a565b9050611090600182848161108957fe5b04906111e6565b9695505050505050565b8082038281111561110c57604080517f08c379a000000000000000000000000000000000000000000000000000000000815260206004820152601560248201527f426f72696e674d6174683a20556e646572666c6f770000000000000000000000604482015290519081900360640190fd5b92915050565b600080611121856103e5611160565b9050600061112f8285611160565b9050600061114983611143886103e8611160565b906111e6565b905080828161115457fe5b04979650505050505050565b600081158061117b5750508082028282828161117857fe5b04145b61110c57604080517f08c379a000000000000000000000000000000000000000000000000000000000815260206004820152601860248201527f426f72696e674d6174683a204d756c204f766572666c6f770000000000000000604482015290519081900360640190fd5b8181018181101561110c57604080517f08c379a000000000000000000000000000000000000000000000000000000000815260206004820152601860248201527f426f72696e674d6174683a20416464204f766572666c6f770000000000000000604482015290519081900360640190fdfea264697066735822122053020d6b80f5fe4245d0a6c711ccae2d8b0daa7678f89b2d92c468977708e79664736f6c634300060c0033"
}